:020000040800F2
:10000000005000203D020008450200084702000899
:10001000490200084B0200084D02000800000000E1
:100020000000000000000000000000004F02000877
:1000300051020008000000005302000855020008A9
:10004000570200085702000857020008570200082C
:10005000570200085702000857020008570200081C
:10006000570200085702000857020008570200080C
:1000700057020008570200085702000857020008FC
:10008000570200085702000857020008F936000816
:100090000937000857020008BD270008570200086A
:1000A00057020008570200085702000857020008CC
:1000B00057020008570200085702000857020008BC
:1000C00057020008570200085702000857020008AC
:1000D000570200085702000857020008570200089C
:1000E00057020008570200085702000800F002F803
:1000F00000F096F80AA090E8000C82448344AAF12C
:100100000107DA4501D100F08BF8AFF2090EBAE829
:100110000F0013F0010F18BFFB1A43F0010318473B
:10012000E064000000650000103A24BF78C878C180
:10013000FAD8520724BF30C830C144BF04680C60ED
:10014000704700000023002400250026103A28BF35
:1001500078C1FBD8520728BF30C148BF0B60704739
:100160006E2900F04A86702900F00B82662905F09E
:100170007B86652905F07886672905F075866129F3
:1001800005F0748603681B0A28BF41F080016929C5
:1001900000F07C81642900F07981752900F0768176
:1001A0006F2900F03587782900F0D781E92900F020
:1001B000CF86E42900F0CC86F52900F0C986EF2926
:1001C00000F03287F82900F0D6810368DB0928BFE8
:1001D00041F08001632901F07585732901F07A856A
:1001E000E32901F08585F32901F08A850020704715
:1001F0001FB59DE8030000F00FFD01F007FE0400AD
:100200000020002105F0AAFC401C606000200021B5
:1002100005F08EFCE06001F0BDF800F0BDFC1FBDF4
:1002200003F070FD114603B403F0B2FD03BCFFF709
:10023000DFFF02F0BCFA04F0B1F800000648804786
:1002400006480047FEE7FEE7FEE7FEE7FEE7FEE7BB
:10025000FEE7FEE7FEE7FEE749340008ED00000890
:10026000004870477405002070B5064600F0B8FCE1
:10027000056806F10B0020F00704B4429CBF002083
:1002800070BD2B466A68BAB11068A04210D304F161
:10029000080188423CBF5068586007D35168101964
:1002A00041601168091B016058601460101D70BD29
:1002B00013465268002AE7D12146284600F098FCF0
:1002C0000028DED170BD70B50446051F00F088FC23
:1002D0000068002C14BF446870BD002C18BFAC42ED
:1002E0003CBF20466468F8D301680A18AA4218BFC8
:1002F000456003D12A680546114401602868411908
:10030000A1421CBF6C6070BD6168696021680844CF
:10031000286070BD53EA020C00F069802DE9F04BB3
:100320004FF00006002B1FBFB3FA83F503FA05F464
:1003300024FA05F65E4012BF1643B2FA82F502FABD
:1003400005F4C5F120051EBF22FA05FC44EA0C04A1
:10035000203556EA044C4FEA144418BF641C4FF091
:1003600000084FF00009904271EB030C39D30029CB
:1003700019BFB1FA81F701FA07F6B0FA80F700FA6F
:1003800007F6C7F120071EBF20FA07FC46EA0C0655
:100390002037B6FBF4FCA7EB0507103F07F01F0B57
:1003A000CBF120060CFA0BFB2CFA06F644BFB34641
:1003B0000026202FA4BF5E464FF0000B5BEA060C20
:1003C00008BF4FF0010B19EB0B09ABFB027C48EBAC
:1003D0000608C01B06FB02CC0BFB03CC71EB0C0127
:1003E000C1E70B46024641464846BDE8F08B13B5CF
:1003F0004FF000004FF00001AFF30080BDE81C405B
:100400007047B2F120030AD5C2F1200301FA02F1CC
:1004100020FA03F300FA02F041EA0301704700FA00
:1004200003F14FF000007047B2F120030AD5C2F18A
:10043000200320FA02F001FA03F321FA02F140EA64
:100440000300704721FA03F04FF0000170470B469C
:100450000146184600F00CBD7CB51D4616460C0042
:10046000009001D02044401E074B7B442A46694639
:100470000190304600F0DBFC05461CB100206946C7
:1004800000F0E8FC28467CBDF10900002DE9F041B0
:100490000646002410687529314616A510D000F0D4
:1004A00018FC002802DA404213A507E031688A07E9
:1004B00001D512A502E0490704D511A5012401E0E8
:1004C00000F010FC00210A2206F1240709E0B0FB2D
:1004D000F2FCB0FBF2F302FB1C00303078541846FB
:1004E000491C0028F3D123462A463046BDE8F04196
:1004F00000F02ABC000000002D0000002B000000CE
:1005000020000000F0B40D460188090502D5214CF9
:100510007C4402E01F4C7C440E34002100F1240690
:1005200008E002F00F071209E75D42EA03721B09B7
:100530007754491C52EA0307F3D1027800231207CB
:1005400004D5702D06D009B1022311342246F0BC27
:1005500000F0FABB01231034F8E770B504460D46ED
:100560002146106800F0BEFB024629462046BDE841
:1005700070400023C6E7D21D22F00703D3E9002311
:10058000C0E70368126843F0200303600823C361D7
:100590000023B7E7B85E00002DE9F05F8946044606
:1005A0004FF0000ADFF874B1FB44C0F820A02046E9
:1005B000E1688847002874D0252806D0D4E90121B5
:1005C0009047206A401C2062F1E700265F462046E3
:1005D000E16888472028054607DB312D05D27819C8
:1005E00010F8200C08B10643F1E7B00701D526F05A
:1005F0000406C4F81CA00027C4F818A02A2D09D0AE
:10060000284603F0AAFB38B304EB8708303DC8F84E
:10061000185019E059F8041B204604EB8702916139
:10062000E1688847012F054618D1E069002820DAE3
:1006300026F020061DE0D8F8180000EB800005EB3E
:1006400040003038C8F818002046E1688847054661
:1006500003F083FB0028EED1012F0AD02E2D08D104
:100660002046E16888477F1C0546022F46F0200699
:10067000C4DBA069002803DA404246F00106A0610D
:10068000F00701D026F010066C2D0BD0682D09D094
:100690004C2D39D06A2D35D0742D35D07A2D33D0EC
:1006A00016E038E0E1682F4620468847B842054604
:1006B00009D16C2F26D04FF48060E16806432046B4
:1006C0008847054604E06C2F1AD04FF4807006432B
:1006D0000DB3A5F14100192802D8203546F4006673
:1006E0004A462946204626604E46FFF739FD80B12E
:1006F00001280BD0F61D26F0070000F1080956E787
:100700004020E4E78020D8E70020D6E706F104097E
:100710004DE7284652E7206ABDE8F09F485E00009A
:1007200070B50446C068810713D0800601D5A56A5C
:1007300004E0A169606808442169451A204600F078
:10074000E5FD002206462946204600F01BF830460B
:1007500070BD002070BD70B510B1BDE87040DFE71E
:100760000025074C6E1E07E02046FFF7D9FF00B1B9
:100770003546206D20F00104002CF5D1284670BDCF
:10078000780500202DE9F041044616460D464769DC
:10079000007B80072ED0384603F025FB50BB3EB3CC
:1007A000012E02D0022E25D104E0204600F035FDB6
:1007B00005441DE0384603F0F7FAE168002841F0EF
:1007C0001001E16005DA204600F06CFD0120BDE873
:1007D000F081C9030BD56268E16A914200D81146E5
:1007E000A26911442269891A814200DD0846054444
:1007F000002D01DA0220EAE7E16A6068E2688142DE
:1008000006D29103E06203D522F4003141F01002D8
:10081000A6690027AE4213DCE16A814201D90B468A
:1008200000E0034603EB060C2369ACEB030CAC457C
:1008300006DD814201D98C4600E084469C4505D105
:10084000A760276042F02000A5620DE0AD1BE669BD
:10085000AE1B8142A66000D90846C01A281A206043
:100860005819606022F0200003490840E060002031
:1008700084F84870ABE70000BFCFD7FF2DE9F04107
:100880000C4607461646104600F06EF82078611CAC
:1008900061280AD0722802D077283CD102E00125D5
:1008A000002405E00225042402E0082448F20205A1
:1008B00011F8010B2B2806D0622809D011F8010C81
:1008C00074280AD00BE045F0030544F00204EFE77A
:1008D00045F0040544F00104EAE744F0100438460A
:1008E000214603F087FA411C15D000213161716067
:1008F0004FF40071F560F1617061200704D5304656
:1009000002220021FFF73EFF306D40F0010030650C
:100910003046BDE8F0810020FBE72DE9F0410D46AF
:100920000646104C206DC10704D0410804D020F0C9
:100930000104F7E722460EE05420FFF795FC07007C
:100940000ED0206D47F00101084354212065384640
:1009500000F0BBF83A4629463046BDE8F0418DE745
:100960000020D6E7780500202DE9F04704464FF037
:1009700000094FF0FF37C568D4E90486A80707D0FF
:10098000204600F0C3FC304603F008FA002802DAE3
:100990003846BDE8F087280502D54046FFF793FCAE
:1009A0004C21204600F091F8206D20F001002065D8
:1009B0004846EEE730B503461D783DB10A4612F8C9
:1009C000014B1CB1AC42FAD15B1CF5E7181A30BDE3
:1009D00040EA010310B59B070FD1042A0DD310C8BC
:1009E00008C9121F9C42F8D020BA19BA884201D90E
:1009F000012010BD4FF0FF3010BD1AB1D30703D056
:100A0000521C07E0002010BD10F8013B11F8014B0B
:100A10001B1B07D110F8013B11F8014B1B1B01D127
:100A2000921EF1D1184610BD10B5431C02E010F81B
:100A3000011B71B18107FAD14FF0013202C88C1A43
:100A40008C4314EAC211F9D0C01A0A0603D0C01EA2
:100A500010BDC01A10BD0A0401D0801E10BD0902CD
:100A6000FCD0401E10BD10B5203AC0F00B80B1E89C
:100A70001850203AA0E81850B1E81850A0E81850D3
:100A8000BFF4F5AF5FEA027C24BFB1E81850A0E8DC
:100A9000185044BF18C918C0BDE810405FEA827CF6
:100AA00024BF51F8043B40F8043B08BF7047D2070D
:100AB00028BF31F8023B48BF11F8012B28BF20F8AE
:100AC000023B48BF00F8012B70474FF0000200B511
:100AD000134694469646203922BFA0E80C50A0E861
:100AE0000C50B1F12001BFF4F7AF090728BFA0E80F
:100AF0000C5048BF0CC05DF804EB890028BF40F8DB
:100B0000042B08BF704748BF20F8022B11F0804F1C
:100B100018BF00F8012B70474FF0013C50F8042B30
:100B200051F8043B9A4221D1A2EB0C03934313EA00
:100B3000CC1317D150F8042B51F8043B9A4215D12D
:100B4000A2EB0C03934313EACC130BD150F8042B04
:100B500051F8043B9A4209D1A2EB0C03934313EAE8
:100B6000CC13DBD04FF00000704700BFD01A01BAA1
:100B7000B1FA81F101F0180122FA01F0CB40C1F184
:100B80002001DBB2C0B2C01A2CFA01F3D11A914392
:100B900011EAC311E6D1704770B5064C7C44064D8E
:100BA0007D4403E0206820448047241DAC42F9D1F5
:100BB00070BD0000AC5B0000B05B00002DE9F041AF
:100BC00017460E46054633B107FB0354E41B204687
:100BD000B047A542FAD1A5F10800BDE8F0810000B8
:100BE0000048704774060020704770477047704790
:100BF00038B504460A460020694601F0DCF80028B2
:100C000008BF38BD02460099204600F066FC01206E
:100C100038BD012001F0A4B8F8B501F0C1F80546CF
:100C200000200C46102000BF0646A819A0420DD98E
:100C300032466946002001F0BEF8070008BF01F007
:100C40008FF80098A04218BF0546C419FFF7C8FFE7
:100C500005600746F01D20F007004619284600F001
:100C60000AF8B44208BFF8BDA21B31463868BDE897
:100C7000F84000F032BC00210160C0E9011070476B
:100C80001020704770B5044685690068C10601D51B
:100C9000302600E02026C00707D070BDD4E901212E
:100CA00030469047206A401C20626D1EF6D570BD0C
:100CB00070B5044685690078C00707D170BDD4E9D6
:100CC000012120209047206A401C20626D1EF6D52D
:100CD00070BD09684A0501D540B27047C905FCD509
:100CE00000B2704709684A0501D5C0B27047C9050E
:100CF000FCD580B2704770B50C460546012A05D078
:100D00002878800600D5EA69002302E0012305E087
:100D10005B1C934202D2E05C0028F9D1A869E61876
:100D2000C01AA861286A184428622846FFF7AAFF5B
:100D300004E0D5E9012114F8010B9047B442F8D33F
:100D40002846FFF7B5FF70BD2DE9F0470D469946DF
:100D50009246044600F124080168880604D5E0693B
:100D600021F01001216000E00120A84201DD471BB5
:100D700000E00027A1697A1902EB0900081AA061B6
:100D80002078C00602D42046FFF77CFF002608E04A
:100D9000D4E901211AF806009047206A401C761C0D
:100DA00020624E45F4DB2078C0060AD52046FFF7C6
:100DB00069FF06E0D4E9012130209047206A401CF9
:100DC0002062381EA7F10107F4DC07E0D4E9012115
:100DD00018F805009047206A401C2062281EA5F1E3
:100DE0000105F3DC2046FFF763FF2078000602D5FB
:100DF0000220BDE8F0870120FBE711680268006A65
:100E0000530501D508700AE0D30501D5088006E036
:100E1000130603D5C217C1E9000200E008600120F3
:100E20007047000001694A1C02610878704700B5EC
:100E30008FB0CDE901310021059105497944CDE913
:100E4000031011466846FFF7A7FB0FB000BD000076
:100E5000E5FFFFFF0A6802F8010B0A607047D1E95D
:100E600000239A4202D2531C0B601070704700009E
:100E7000074B70B50D467B44FFF7D9FF0446284663
:100E800000F0DCF810B14FF0FF3070BD204670BDAF
:100E90004F3500002DE9FF5F15468A460446DFF80E
:100EA000AC80F8440027D8E900103E46CDE9001098
:100EB00010E03AF816106A4602A800F025FF411C1F
:100EC00007D02178890603D5E269391891420DD8F7
:100ED0000744761C2078800602D5E069B84205DD1B
:100EE000AE42E6DB3AF816000028E2D1A069C01B4A
:100EF000A0612046FFF7C6FED8E90010CDE900103A
:100F0000002017E03AF818106A4602A800F0FCFE2C
:100F1000B0F1FF3F81460BD000250DF1080B05E035
:100F2000D4E901211BF8050090476D1C4D45F7D30E
:100F300008F10100B0428046E4DB206A38442062B8
:100F40002046FFF7B5FEBDE8FF9F00006255000098
:100F50002DE9F0418046D21D22F007020025D2E99A
:100F60000002F52915A614D0011E72F1000106DA5F
:100F70000023D0EB030063EB020211A608E0D8F8CF
:100F800000108B0701D50FA602E0490701D50EA678
:100F900001251146002408F1240704E000F0B7FA07
:100FA00030323A55641C50EA0102F7D12B463246E2
:100FB00021464046BDE8F041FFF7C6BE00000000F4
:100FC0002D0000002B0000002000000030B40021A4
:100FD00000F1240408E002F00705D208303542EAA7
:100FE0004372DB086554491C52EA0305F3D10468D7
:100FF000002310A2250708D504F020040C4304D0D8
:10100000C46901230CA2641EC46130BCFFF79CBEFE
:1010100010B5044621461068FFF764FE02462046DC
:10102000BDE810400023D1E7D21D22F00701D1E92D
:101030000023CBE70000000030000000007B00F040
:10104000800070472DE9F04705460C46C86820F43B
:10105000201040F48000C860800602D5084600F0E9
:1010600078F9E06841F282014FF0FF39014002292E
:1010700003D0204600F016F9B5E000F42041B1F5A8
:10108000004F0FD1C00306D56168E06A884200D8DE
:101090000846606006E02069E0626060606902F016
:1010A00083FEA061A0680022EEB200280DDAE1689C
:1010B0008B050AD4C043A06041F490302260E06008
:1010C0006068411C61600670A5E0E068904622609F
:1010D00040F40050E060206968BB606902F083FE64
:1010E000012704F12405A0B1A08910F4407F08D0A5
:1010F000E069FFF7B9F8206118B1E06840F40060DA
:1011000016E0E7612561E06820F4407040F48060FB
:101110000EE0E069FFF7A8F800282061F1D0E06850
:1011200040F4006010F4407FE06002D140F4807031
:10113000E06020696060E06825696FF0010AC10520
:101140001FD56168E06A884200D80846411B04D078
:101150002246284600F0B0F8F0BBE068010203D553
:10116000E562C4E9015854E0691CE1626160E1692B
:1011700040F48030491EC4E9021030462E70BDE8AC
:10118000F087010202D500F480320AE06068411C59
:1011900061600670E0680A2E40F48030E06006D09E
:1011A0000022E16A6068814203D90B4602E0012215
:1011B000F7E70346A7895B1B7F0503D4E7699F42D6
:1011C00000DDE2B1814200D80146E5620F1AC4E9B0
:1011D0000158002B09DD00E005E0224619462846AB
:1011E00000F06AF808B14846C9E747B1A069E5626E
:1011F0006560C01BA061E06840F01000E060E0683E
:10120000000208D56168A069E562491B0844656071
:10121000A0615046B3E73046B1E710B50146C26859
:10122000900703D0900607D5886A0AE0FFF718F800
:1012300001210160881E10BD8B69486818440B6944
:10124000C01A91F848301BB191F84910401A10BDEE
:101250001103FCD50028FADD401E10BD70B5C4682E
:10126000A50713D0650211D4B2F5807F09D0B2F57D
:10127000007F06D0B2F5806F08D1012300F1240170
:1012800006E05D1E6FF07F46B54201D3012070BDC0
:101290000161C361416024F470611143C1600020A9
:1012A00070BD0000C16821F4001141F08001C160EF
:1012B00000218160016070472DE9F04781461446A6
:1012C0000E464FF0FF383248D5685769054209D0BD
:1012D0003846A16902F0DEFD002811DB2C48C0432E
:1012E0000540E5602B4632464946384602F0E2FDAD
:1012F000A16920F00042B21A11440028A16103D074
:101300002046FFF7CFFF4046BDE8F08770B50446A2
:101310000569C06A6168884200D80846E16821F41E
:101320002011E160C90312D5A84208D02246411B12
:101330002846FFF7C1FF10B14FF0FF3070BD00200D
:10134000E562C4E90150E06820F48030E0600020EC
:1013500070BD10B50446C06820F02000E060A16AAE
:10136000A06988420DD02046FFF7D0FFE06820F446
:10137000405040F01000E060A06AA0612069E06287
:10138000606044F24001E0688843E06010BD000006
:101390001000020010B542485421FFF796FB414867
:1013A0005421FFF792FB40485421FFF78EFB3F4941
:1013B0003B483C4A3F4B08603D490A603A49196046
:1013C000531C0365481C1065012008653B48344ADE
:1013D00039A17844FFF752FA20B9384878440A38DE
:1013E00000F0B7FC37482F4A35A17844FFF746FA9A
:1013F00020B9344878440A3800F0ABFC32482A4A15
:101400002FA17844FFF73AFA20B92F4878440A38D8
:1014100000F09FFC40232248DC0000212246FFF719
:101420001DFF20B125487844543800F092FC1D4837
:10143000224640230021FFF711FF20B121487844C4
:10144000543800F086FC1848224610230021FFF78C
:1014500005FF002806D01C487844BDE810405638E7
:1014600000F077BC10BD104870B5006D20F001048D
:101470000B48FFF779FA0B48FFF776FA0A48FFF7AF
:1014800073FA09E0206D20F001052046FFF76CFAA1
:101490002046FEF718FF2C46002CF3D170BD00004B
:1014A00078050020CC050020200600207C010020CB
:1014B000800100208401002072000000CA4A000060
:1014C00077000000B94A0000A94A000010B500F0FA
:1014D0004FFCBDE8104000F037BC034640688C4626
:1014E000002818BF88423CBF03464068F8D31868FC
:1014F0001844884207D00CF1030020F00700001DBB
:10150000411A521A0146081D0A60FEF7DCBE30B5CA
:10151000B0F10A024FEA900E71F100034EEA817EAB
:10152000B0EB0E0061EB91014FEA101E4EEA017E16
:1015300010EB0E0041EB11114FEA102E4EEA016E36
:1015400010EB0E0041EB11214FEA104E4EEA014E16
:1015500010EB0E0041EB1141401841F100014FEA40
:10156000D00040EA41704FEAD10110EB80054FEA0C
:10157000810444EA907444EB01046D1944EB0404C3
:10158000521BA3414FF0000348BF0A3200D530BDC3
:10159000401C41F1000130BD70472DE9FF4F0C4662
:1015A0001E464FF0FF378BB0D2E90001DDF86080B6
:1015B0000A908A46C1F30A5505B93D4600210846FE
:1015C0004FF00000BAF1000F00F4400005DA00EB24
:1015D00080004FF4400101EA50004FEA9059B9F100
:1015E000010F00DDB9460A9850EA4A000ED044F6D1
:1015F0001050A5F2FF3545432F14B8F1000F1ED04F
:101600007542291E1EDDC9F100021CE0B8F1010F70
:101610004FF0000001D0302103E0F24305E02154F7
:10162000401CB042FBDB30460022002121540B99C4
:10163000C1F80880C1E900200FB0BDE8F08FBD1BE4
:101640006D1CDEE74A4600DA694206A800F022FC7B
:1016500006AB93E8070003AB83E8070050460A99FE
:1016600000F0EAFC8DE80700A0F500501F3800905C
:101670000398002D09DD42F21F014A46084403A9E0
:101680000390684600F049FF08E0A0F500504A4684
:101690001F3803A90390684600F053FF8DE8070048
:1016A0000004000C03D04FF0FF30410800E010466A
:1016B000B8F1000F03D00022009215461EE0751EFF
:1016C00005D4FFF724FF303262556D1EF9D5B346BD
:1016D0000122084302D000227F1C04E02078302839
:1016E00001D100227F1E002A099786D01DE0112D0E
:1016F00007DAFFF70CFF303262556D1C50EA010229
:10170000F5D1084302D00098C8B10EE00021681E50
:1017100005E0235C625C63542254401E491C8142F4
:10172000F7DBAB46A81B401E0990002004F80B0015
:101730000B98099AC0F80880C0E9002B7CE71126B5
:101740004FF0000859E72DE9F04F88460446D21DB6
:1017500022F0070191B0D1E90001CDE90A0102F0C0
:10176000E1F902460B98C00F01D02D2007E0206858
:10177000810701D52B2002E0202101EAC000032AC5
:10178000099001D0072A05DB03464146204600F0B8
:1017900041FB0BE12078800601D5E06900E00620DE
:1017A000B8F1650F814606D0B8F1660F18D0B8F1D0
:1017B000670F70D131E00020B9F1110F009001DB0B
:1017C000112301E009F101030AAA01A90CA8FFF7FE
:1017D000E4FEDDE90C70002609F10105834647E0CF
:1017E00001204B4600904FF000470AAA01A90CA81F
:1017F000FFF7D3FEDDE90DB00C995D46002610B968
:1018000009F101000D18B9EB050003D4C0F1FF3652
:1018100009F10105A5EB09002BE0B9F1010F01DA8F
:101820004FF001090020B9F1110F0090484601DD89
:10183000112300E003460AAA01A90CA8FFF7ADFE98
:10184000DDE90C704D4600268346207800070AD457
:10185000AB4500DA5D4601A8012D04DD411911F800
:10186000011C302907D04F4502DA17F1040F04DAC2
:10187000012082460FE06D1EEEE7002F02DCED1B1B
:101880003E4403E0781CA84200DD7D1CB81B00F13B
:10189000010A4FF000472078000703D4AA4501DB76
:1018A0004FF0FF3A0021B7F1004F0DF143088DF8DA
:1018B000431024D002202B23002F01DA7F422D2356
:1018C0000A21021EA0F1010000DC5FB197FBF1FCD0
:1018D00097FBF1F201FB1C7C17460CF1300C08F869
:1018E00001CDEEE7A8F1010003702188090501D5BB
:1018F000452100E06521A0F1010800F8011C0998CC
:101900000FA9A1EB0807FF1D00B10120411901EB50
:10191000EA70A1693844081A401EA0612078C00608
:1019200002D42046FFF7AEF9099828B1D4E9012185
:101930009047206A401C20622078C00622D52046AD
:10194000FFF7A0F91EE0002E04DBB34502DD01A87D
:10195000805D00E03020D4E901219047206A401CDE
:101960002062761CAAF101005FEA000A0AD100F0A9
:101970004DFAC0680168405CD4E901219047206AB3
:10198000401C2062281EA5F10105DCDC07E0D4E93B
:10199000012118F8010B9047206A401C2062381E74
:1019A000A7F10107F3DC2046FFF782F9032011B00D
:1019B00043E600002DE9F04F04460D46D21D22F00B
:1019C000070089B0D0E900974846394602F0AAF8E6
:1019D0000246F80F01D02D2307E02068810701D5CA
:1019E0002B2302E0202101EAC0038DF820300BB147
:1019F000012000E00020032A824601D0072A04DBF0
:101A00002946204600F006FA3FE12078800601D4FE
:101A10000D2500E0E569C7F30A560D2D49DA0021CE
:101A20004FEA175B08464FF00000002F00F440001B
:101A300007DA00EB80004FF4400100EBD07001EAC0
:101A400060008115012901DD4FF0FF3100224FEACE
:101A5000850CBCF1180F06D31346ACF118004FF0FB
:101A60008052C24003E04FF4801323FA0CF30CF1D0
:101A70000C0CBCF1200F04D3ACF1200C09FA0CF0D3
:101A800001E007FA0CF000294FF0004801DD18B919
:101A90000FE00ED140450CD319EB02095F4121B98B
:101AA000404502D19F4329EA0209BBEB175F00D0F2
:101AB000761C2088000502D57B48784402E07A48ED
:101AC0007844193808AA302302F80A30037C0AF156
:101AD0000101002E0AF1020A53546A4602DC4FF05B
:101AE000300101E04FF031014FF001088DF8001096
:101AF00002D0A6F2FF3603E059EA470100D06B4E50
:101B0000002D02DC2178090704D54FF002082E21B0
:101B10008DF80110C44600210BE0C7F303433F01D9
:101B2000C35C491C6D1E02F80830052908F1010844
:101B300001DA002DF1DC00210CE000EB1973491CE7
:101B40001B786D1E082902F808304FEA091908F1C0
:101B5000010801DA002DF0DC21688B0602D516E0C1
:101B6000A8F10108E04505DD02EB080313F8013C8C
:101B7000302BF5D0B8F1000F09DD02EB080313F8A4
:101B8000013C2E2B03D1090701D4A8F10108002D37
:101B900005DD3E2102F808106D1E08F10108407CA9
:101BA000002E02F8080008F1010804DA2D20764220
:101BB00002F8080002E02B2002F808000A214FF486
:101BC0007A70864208F101080BDB96FBF0F33033A4
:101BD00002F8083096FBF0F308F1010800FB1366E9
:101BE00001E0642E0CDB642096FBF0F3303302F846
:101BF000083096FBF0F308F1010800FB136601E0E2
:101C00000A2E06DB96FBF1F0303002F8080008F1EE
:101C1000010896FBF1F001FB1060303002F808007B
:101C2000A16908F1010808EB050202EB0A00081A95
:101C3000A0612078C00602D42046FFF723F8216A6D
:101C400008AE01EB0A00206204E0D4E9012116F895
:101C5000010B9047BAF1010AF7D22078C00602D5ED
:101C60002046FFF70FF86E4609E016F8010B3E28F4
:101C70000FD0D4E901219047206A401C2062B8F1BE
:101C80000108F2D22046FFF713F809B00320BDE89F
:101C9000F08F206A2844206203E0D4E9012130203B
:101CA00090476D1EEBD3F8E76549000002FCFFFF8B
:101CB00010B5436913B1AFF3008001E0FFF71BF8E3
:101CC000012010BD127800F124010A7000224A7030
:101CD0000122EDE711684FF0FF32E9E710B54369E3
:101CE00013B1AFF3008001E0FFF7D4F8012010BD7D
:101CF000128800F1240182840022C2840122EDE7CF
:101D000011684FF0FF32E9E770B516460C460546FC
:101D100000F074F8036893F80101012806D0FF2C45
:101D20000FD8185D68B101202C7070BDD3F8070181
:101D30003246214603F2071303442846BDE87040AB
:101D400018474FF0FF3070BD002801D000F050B8A8
:101D5000704710B500F026F9BDE81040FFF7F4BF5A
:101D600010B500F039F9BDE81040FFF7EDBF0000F5
:101D700010B5002102A000F0FBF8012010BD00000A
:101D80005349475056464E3A205075726520766941
:101D9000727475616C20666E2063616C6C656400A2
:101DA000124B694600F580528A421A6001D81146EA
:101DB00070471960704730B50C4D6B46A3F58053E2
:101DC0002C6822449A420FD89B1A02F5805003EBEC
:101DD000D37302EB6303984200D91846C01D20F06C
:101DE00007020C60101B2A6030BD00008801002033
:101DF00001491820ABBEFEE72600020010B500F036
:101E000005F8001D10BD00BF553D0000004870479B
:101E1000780600202DE9F0411F460446032601689C
:101E2000072A01F4006004DB08B116A505E016A539
:101E300003E008B115A500E015A521F01000206011
:101E4000A069C01EA0610FB1401EA0612046FEF730
:101E500019FF4FB1D4E9012138469047206A401C50
:101E60002062C01C206206E0206AFAE7D4E9012162
:101E700015F8010B9047761EF8D22046FEF718FFA2
:101E8000BDE8F0814E414E006E616E00494E460045
:101E9000696E66002DE9F047814616468AB03348E0
:101EA00078440DC88DE80D0030487844801C03ACA0
:101EB0000DC884E80D0041F69B300844372190FBA3
:101EC000F1F290FBF1F5A5F1800501FB12041B3C3A
:101ED00002D56442012000E00020DFF890A0804697
:101EE0000027FA44AAF1BE0A0DE0E00709D0324605
:101EF000684607EB47010AEB810100F022FB8DE801
:101F0000070064107F1C002CEFD1184F7F44AC3FBA
:101F100018E0E80714D007EB04100DF1180A90E858
:101F20000E008AE80E00C068F04201D198190890AE
:101F3000324606A903A800F004FB03AB83E80700C0
:101F40006D10641C002DE4D132466946B8F1000FD3
:101F500003A802D000F0E1FA01E000F0F2FAC9E9CA
:101F60000001C9F808200AB0BDE8F087104600005B
:101F700070B505460C460A2000E06D1C00F054F8D0
:101F800035B128780028F8D102E0641C00F04CF844
:101F900014B120780028F8D1BDE870400A2000F084
:101FA00043B8000010B5014602A0FFF7E1FF012091
:101FB00010BD000053494752545245443A205265DF
:101FC0006469726563743A2063616E2774206F7070
:101FD000656E3A200000000010B5012805D00021F0
:101FE00003A0FFF7C5FF012010BD09A1F8E700001D
:101FF00053494752544D454D3A204F7574206F66F2
:102000002068656170206D656D6F72790000000059
:102010003A2048656170206D656D6F727920636F3D
:10202000727275707465640008B569468DF80000B9
:102030000320ABBE08BD70475FEA400C08BF91F0BB
:10204000000F4FEA8C234FEAC12243EA51514FEA75
:102050001C5018BF00F5F0404FEA300018BF41F0A7
:1020600000415FEA6C5C00F02980BCF1FF3F08BFD3
:1020700040F080407047130C06BF12044FF0100C64
:102080004FF0000C130E04BF12020CF1080C130FDA
:1020900004BF12010CF1040C930F04BF92000CF169
:1020A000020CD30F04BF52000CF1010C11464FF08B
:1020B0000002A0F11F00A0EB0C00704711F0004FD0
:1020C00008BF704731F000413FF4D5AF0B0C06BF9D
:1020D00009044FF0100C4FF0000C0B0E04BF090266
:1020E0000CF1080C0B0F04BF09010CF1040C8B0F51
:1020F00004BF89000CF1020CCB0F04BF49000CF1A6
:10210000010CCCF12003A0EB0C0022FA03F302FA3D
:102110000CF241EA030100F10100704720F07F4C0E
:1021200080EA030023F07F47ACEB070303F57C5301
:1021300000F0004003F1FF032DE980494FEA154B01
:1021400009B44FEA144325EA0B4E24EA03480FF280
:10215000042606EB132749083E785FEA320203FBA8
:102160000667C7F5000707FB06F64FEA54374FEA44
:10217000D64606F1020607FB066CCCF1005C4FEA7E
:102180001C472CEA074C07FB06F40CFB06F504EB96
:1021900015464FEA961634BF00204FF000404FEA34
:1021A000D13706FB07FC4FEA1C4C0CFB0BF7D21B8C
:1021B00003FB0CF761EB07010CFB0EF7B0EB0740DC
:1021C00072EB17420CFB08F734BFA2EB0742B2EBED
:1021D000074261EB17414FEA0C444FEA910706FBB7
:1021E00007FC4FEA1C4C0CFB0BF7B0EBC74072EB43
:1021F000573203FB0CF734BFA2EBC742B2EBC74226
:1022000061EB57310CFB0EF7B0EBC70072EB577266
:102210000CFB08F734BFA2EBC702B2EBC70261EBBD
:102220005771039F4FEA816141EA921104EBCC049C
:102230004FEAD1374FEA826206FB07FC42EA90126E
:102240004FEA80604FEA1C4C0CFB0BF7D21B03FBE0
:102250000CF761EB07010CFB0EF7B0EB074072EBDC
:1022600017420CFB08F734BFA2EB0742B2EB074260
:1022700061EB17414FEA8C554FEA910704EB9C2420
:1022800006FB07FC4FEA1C4C0CFB0BF7B0EBC740FE
:1022900072EB573203FB0CF734BFA2EBC742B2EB31
:1022A000C74261EB57310CFB0EF7B0EBC70072EB86
:1022B00057720CFB08F734BFA2EBC702B2EBC702A0
:1022C00061EB577115EB4C254FEA816141EA9211A0
:1022D0004FEA82624FEAD13742EA901206FB07FCCE
:1022E00044F100044FEA80604FEA1C4C0CFB0BF7F2
:1022F000D21B03FB0CF761EB07010CFB0EF7B0EBF5
:10230000074072EB17420CFB08F734BFA2EB074201
:10231000B2EB074261EB174115EB1C154FEA813117
:1023200041EA92414FEA823242EA90424FEA8030DB
:102330004FEA0C7644F1000448EA03434EEA0B48A6
:102340004FF0000EB2EB080C71EB030724BF62469E
:1023500039464EEB0E0E4FF0000B0018524149412A
:102360004BEB0B0BB2EB080C71EB03077BF1000B93
:1023700024BF624639464EEB0E0E4FF0000B00189C
:10238000524149414BEB0B0BB2EB080C71EB0307CD
:102390007BF1000B24BF624639464EEB0E0E51EA2C
:1023A000020718BF46F0010616EB0E7655F1000243
:1023B00054F1000103D5BDE88901BDE80088BDE8FE
:1023C0008901BDE80048B619524141EB0101A3F172
:1023D0000103704780807F7E7D7C7B7A7978777679
:1023E00076757473727171706F6E6E6D6C6C6B6AF2
:1023F0006A69686867666665646463636261616090
:10240000605F5F5E5E5D5D5C5C5B5B5A5A5959580C
:102410005857575656555555545453535252525176
:10242000515050504F4F4F4E4E4D4D4D4C4C4C4BCC
:102430004B4B4A4A4A494949484848474747474613
:10244000464645454544444444434343434242424F
:1024500042414141002B26D4770021D01CB54FEAE0
:10246000370703B44FF010004FF010014FF0000099
:102470000FBCBDE810400BF1010BBBF1010F08BF11
:102480005FEA170722BF12F1010211F101014FF0BB
:10249000004143F1000300F0004043EA00007047B0
:1024A000F9D35708DAE746EA064613F1400F4FEA38
:1024B00016461FDD13F1200FDFBF16430A46002129
:1024C00020335B42C8D0C3F1200746EA064602FA31
:1024D00007F74FEA164646EA0706C3F1200722FA35
:1024E00003F201FA07F721FA03F14FF0000342EA81
:1024F0000702B1E746EA020646EA06464FEA1646F2
:1025000046EA0106BCBF46EA0646360C4FF0000319
:102510004FF000024FF000019EE72DE9C0489346BE
:1025200030B491E8380007C831EA400C48BF34EABB
:10253000430C03D5FFF7F2FDFFF78CFFF0BCBDE8BD
:1025400000882DE9C048934630B491E8380007C8A8
:1025500010F0804F08BF13F0804F03D100F005F852
:10256000FFF778FFF0BCBDE8008820F07F4780EAE5
:10257000030023F07F4C07EB0C03A3F57C5300F022
:102580000040A3F1FE0392F0000F00F0B38095F03D
:10259000000F00F077802DE901494FEA11404FEA22
:1025A000144621EA004800FB06FC24EA064708FB23
:1025B00006F607FB08F800FB07F718EB06484CEB9C
:1025C000164C4FEA124B18EB07484FEA15464CEBF6
:1025D000174022EA0B4E0BFB06FC25EA06470EFBD2
:1025E00006F607FB0EFE0BFB07F71EEB064E4CEB49
:1025F000164C4FF000061EEB074E4CEB174B18EB3A
:102600000B0840F1000018EB0E0B58EB000840F1EE
:1026100000008F1A4FF000013CBFC943661B14BF76
:10262000B5EB040C00213CBFC943F61B4FEA17442D
:102630004EEA8E0E27EA04454FEA1C4704FB076268
:102640002CEA074C05FB07F70CFB05F604FB0CFC1A
:1026500016EB074642EB174216EB0C4642EB1C42C8
:102660001BEB060658EB0202414146EA9E0601D5E5
:10267000BDE80189B619524141EB0101A3F1010303
:10268000BDE801894FEA14454FEA114724EA05469F
:1026900021EA074C05FB07F406FB07F70CFB06F1E4
:1026A00005FB0CFC11EB074144EB17444FEA1247C2
:1026B00011EB0C4144EB1C4422EA074C05FB07F2EA
:1026C00006FB07F70CFB06F605FB0CFC16EB0746B2
:1026D00042EB174216EB0C4642EB1C456A1854F1CC
:1026E000000148BF7047B619524141EB0101A3F107
:1026F0000103704795F0000F37D04FEA11424FEABF
:10270000144721EA024624EA074C02FB07F106FBC4
:1027100007F70CFB06F402FB0CFC14EB074441EB3F
:1027200017414FEA154714EB0C4441EB1C4125EAD5
:10273000074C02FB07F506FB07F70CFB06F602FB4E
:102740000CFC16EB074645EB174516EB0C4645EB24
:102750001C42121951F1000148BF7047B61952418D
:1027600041EB0101A3F1010370474FEA14454FEA21
:10277000114724EA054621EA074C05FB07F106FB51
:1027800007F70CFB06F24FF0000605FB0CFC12EB02
:10279000074241EB174112EB0C4251EB1C4148BF81
:1027A0007047921841EB0101A3F10103704710B586
:1027B00002F0E6F902F000F910BD000010B50021AA
:1027C000014801F005FC10BD0064004070B51448DC
:1027D000006880B101F044FE054603F006F8114997
:1027E000096844184FF000000E4908604FF47A70F1
:1027F000B4FBF0F070BD03F033F9044609480088DB
:10280000201A80B208490968084407490860054849
:102810000460084600684FF47A71B0FBF1F0E9E714
:1028200070010020680100206C01002010B50848EC
:10283000006840F0100006490860032000F012F81C
:102840000F2000F007F800F00BF8002010BD00008A
:102850000020024010B5044601F02AFF002010BD00
:102860007047000000BF00F00702064B19684FF6E2
:10287000FF031940044B0B4343EA0221014B19604B
:1028800000BF70470CED00E00000FA0570B504468B
:102890000D4600266248006800F00700A8420ED2EC
:1028A0005F48006820F0070028435D49086008463B
:1028B000006800F00700A84201D0012070BD207818
:1028C00000F00200022807D15648406820F0F000CE
:1028D000A168084353494860207800F001000028AF
:1028E0005DD06068012806D14E48006800F40030D1
:1028F00090B90120E2E76068022806D149480068E3
:1029000000F0007040B90120D8E74648006800F0A8
:10291000020008B90120D1E74248406820F00300D6
:10292000616808433F494860FFF750FF064660680A
:10293000012810D108E0FFF749FF801B41F28831E0
:10294000884201D90320B9E73648406800F00C00FE
:102950000428F0D123E06068022810D108E0FFF7D6
:1029600035FF801B41F28831884201D90320A5E759
:102970002C48406800F00C000828F0D10FE008E077
:10298000FFF724FF801B41F28831884201D90320E0
:1029900094E72448406800F00C000028F0D120485B
:1029A000006800F00700A8420ED91D48006820F01A
:1029B000070028431A4908600846006800F007002D
:1029C000A84201D0012079E7207800F00400042813
:1029D00007D11448406820F4E060E16808431149D9
:1029E0004860207800F00800082808D10D484068A9
:1029F00020F46050216940EAC1000A49486000F0B3
:102A00003DF808494968C1F30311074A515CC840C1
:102A1000064908600F20FFF71DFF00204EE7000069
:102A20000020024000100240345F000878010020BE
:102A300001480068704700007801002000B5FFF7EA
:102A4000F7FF04494968C1F30221034A515CC840B9
:102A500000BD000000100240445F000800B5FFF711
:102A6000E7FF04494968C1F3C221034A515CC840E9
:102A700000BD000000100240445F0008F0B585B0C2
:102A80000FF26C0C9CE8E01001A8A0E8E0101CA577
:102A90002D68009500210022002300240020194DFC
:102AA000696801F00C05F5B1042D02D0082D19D18B
:102AB00001E0154819E001ADC1F38346AC5D01F4B6
:102AC000803555B10F4D6D68C5F340451DF80520A3
:102AD0000D4D6543B5FBF2F302E00C4D04FB05F32D
:102AE000184602E000BF084800BF00BF05B0F0BDB7
:102AF00002030405060708090A0B0C0D0E0F10103F
:102B0000010200000010024000127A0000093D009E
:102B1000F8B504460025207800F00100002878D0A0
:102B2000F848406800F00C0004280CD0F5484068D4
:102B300000F00C00082811D1F248406800F4803001
:102B4000B0F5803F0AD1EF48006800F4003000285B
:102B50005FD0606800285CD10120F8BD00BF6068CC
:102B6000B0F5803F06D1E748006840F48030E54981
:102B7000086028E0606858B9E248006820F48030B6
:102B8000E04908600846006820F4802008601AE0E8
:102B90006068B0F5A02F0BD1DA48006840F48020BF
:102BA000D84908600846006840F4803008600AE0B0
:102BB000D448006820F48030D24908600846006894
:102BC00020F48020086000BF606888B1FFF7FEFD38
:102BD000054606E0FFF7FAFD401B642801D90320F3
:102BE000BBE7C848006800F400300028F2D010E0CD
:102BF000FFF7ECFD054606E0FFF7E8FD401B642803
:102C000001D90320A9E7BF48006800F4003000287C
:102C1000F2D1207800F00200022857D1B94840686C
:102C200000F00C0050B1B748406800F00C000828D4
:102C300018D1B448406800F4803098B9B1480068B1
:102C400000F0020020B12069012801D0012084E7B2
:102C5000AC48006820F0F800616940EAC100A94969
:102C6000086033E02069E8B10120A7490860FFF758
:102C7000ADFD054606E0FFF7A9FD401B022801D97E
:102C800003206AE79F48006800F002000028F2D0A5
:102C90009C48006820F0F800616940EAC100994949
:102CA000086013E0002098490860FFF78FFD054693
:102CB00006E0FFF78BFD401B022801D903204CE7FB
:102CC0009048006800F002000028F2D1207800F05F
:102CD000080008282DD1A069B8B101208B490860EF
:102CE000FFF774FD054606E0FFF770FD401B022864
:102CF00001D9032031E78348406A00F00200002830
:102D0000F2D0012000F046FA13E000207F4908606D
:102D1000FFF75CFD054606E0FFF758FD401B022863
:102D200001D9032019E77748406A00F00200002823
:102D3000F2D1207800F00400042873D100267148F5
:102D4000C06900F0805070B900BF6E48C06940F0A3
:102D500080506C49C8610846C06900F080500090FE
:102D600000BF00BF01266A48006800F48070B0B957
:102D70006748006840F4807065490860FFF726FDE9
:102D8000054606E0FFF722FD401B642801D9032019
:102D9000E3E65F48006800F480700028F2D000BFCE
:102DA000E068012806D15748006A40F00100554903
:102DB000086227E0E06858B95248006A20F0010034
:102DC000504908620846006A20F00400086219E0D1
:102DD000E06805280BD14B48006A40F004004949DF
:102DE00008620846006A40F0010008620AE04548AF
:102DF000006A20F00100434908620846006A20F09A
:102E00000400086200BFE068A0B1FFF7DFFC0546E0
:102E100009E0FFF7DBFC401B41F28831884202D910
:102E200003209AE622E03748006A00F002000028FA
:102E3000EFD012E0FFF7CAFC054608E0FFF7C6FC3A
:102E4000401B41F28831884201D9032085E62D4894
:102E5000006A00F002000028F0D1012E05D12948B7
:102E6000C06920F080502749C86100BFE069C8B33D
:102E70002448406800F00C00082860D0E06902286F
:102E800048D1002020490866FFF7A0FC054606E06F
:102E9000FFF79CFC401B022801D903205DE619487E
:102EA000006800F000700028F2D1206AB0F5803F81
:102EB00007D11448406820F40030A1680843114944
:102EC0004860D4E9080108430E49496821F47411A7
:102ED00008430C49486001200B490866FFF776FC5F
:102EE000054607E02DE0FFF771FC401B022801D9E1
:102EF000032032E60348006800F000700028F2D09A
:102F00001FE00000001002400000424280044242E4
:102F10000070004000200C490866FFF757FC05468A
:102F200006E0FFF753FC401B022801D9032014E6FA
:102F30000648006800F000700028F2D101E001208E
:102F40000BE6002009E600000000424200100240AB
:102F500010B504460CB9012010BD94F83D0028B905
:102F6000002084F83C00204600F00CF8022084F891
:102F70003D00211D206800F093FA012084F83D00F7
:102F80000020E9E770470146022081F83D0008680B
:102F9000006840F001000A681060012081F83D00DF
:102FA0000020704730B504460D46012229462068AE
:102FB00000F0B0FA0A492068884201D1012000E0FF
:102FC000002028B12068406C40F40040216848642B
:102FD0002068006840F0010021680860002030BDD2
:102FE000002C014030B504460D46002229462068D9
:102FF00000F090FA17492068884201D1012000E0D2
:10300000002090B100BF2068006A41F21111084011
:1030100050B92068006A8910084028B92068406CBF
:1030200020F400402168486400BF00BF2068006AA7
:1030300041F21111084050B92068006A8910084017
:1030400028B92068006820F001002168086000BFEE
:10305000002030BD002C014010B504460CB9012001
:1030600010BDA06900B100E000BF94F8390028B994
:10307000002084F83800204600F027F8242084F847
:1030800039002068C06820F400502168C8602046DC
:1030900000F04EFA2068006920F490402168086131
:1030A0002068406920F02A00216848612068C068D3
:1030B00040F400502168C8600020E063202084F8BC
:1030C000390084F83A000020CAE7704730B502465C
:1030D00002EB116391FAA1F4B4FA84F4A5000F2471
:1030E000AC401868204091FAA1F4B4FA84F4A4002A
:1030F000E04030BD70B500EB116391FAA1F5B5FA6F
:1031000085F5AE000F25B5401C68AC4391FAA1F5DA
:10311000B5FA85F5AD0002FA05F52C431C6070BDCB
:1031200070B500EB116391FAA1F5B5FA85F5AE0023
:103130000F25B5401C68AC4391FAA1F5B5FA85F5A9
:10314000AD0002FA05F52C431C6070BD70B500EBB4
:10315000116391FAA1F5B5FA85F5AE000425B540E5
:103160001C68AC4391FAA1F5B5FA85F5AD0002FAF9
:1031700005F52C431C6070BD10B5C36823EA11230C
:103180000C0A94FAA4F4B4FA84F402FA04F4234383
:10319000C36010BD08B508490968C9084FF47A72C0
:1031A000B1FBF2F14143009100BF00BF00994A1EFC
:1031B00000920029F9D108BD7801002010B5012046
:1031C00000F016F848B9002000F012F828B900F015
:1031D0003FF810B901A001F0AFF810BD536574536A
:1031E0007973436C6F636B206661696C65640A0078
:1031F00010B590B004460120019014B9000402906B
:1032000002E04FF4A02002900020039002200890DA
:10321000C10309914FF4E0110A9101A8FFF778FC6E
:1032200010B1002010B010BD0F200B9002200C90A8
:1032300000200D904FF480600E9000200F9002212E
:103240000BA8FFF723FB08B10020EBE70120E9E71B
:1032500000B58FB003200090012004900020019061
:103260001020059002200790002108914FF4601172
:1032700009916846FFF74CFC10B100200FB000BD6B
:103280000F200A9002200B9000200C904FF48060D9
:103290000D9000200E9002210AA8FFF7F7FA08B15E
:1032A0000020EBE70120E9E738B504460025052CAE
:1032B00054D2DFE804F00313233343002A4D00BF48
:1032C0002A48806940F004002849886108468069DE
:1032D00000F00400009000BF00BF42E0244D00BF9A
:1032E0002248806940F008002049886108468069CA
:1032F00000F00800009000BF00BF32E01D4D00BF8D
:103300001A48806940F010001849886108468069B1
:1033100000F01000009000BF00BF22E0164D00BF7B
:103320001248806940F02000104988610846806991
:1033300000F02000009000BF00BF12E00F4D00BF62
:103340000A48806940F04000084988610846806961
:1033500000F04000009000BF00BF02E008A000F0B5
:10336000EBFF00BF284638BD0008014000100240B6
:10337000000C014000100140001401400018014001
:1033800050696E6D6170206572726F723A2077724B
:103390006F6E6720706F7274206E756D6265722E2D
:1033A0000000000010B5002100200022214B5B68C6
:1033B00003F00C0121B1042906D0082928D107E027
:1033C0001D4B1E4C236027E01B4B1C4C236023E04D
:1033D000184B5B6803F47010164B5B6803F4803283
:1033E000022303EB904022B9154B4343134C236057
:1033F0000DE0104B5B6803F4003323B1104B4343E3
:103400000E4C236003E00C4B43430C4C236003E061
:10341000094B0A4C236000BF00BF064B5B68C3F337
:103420000313084CE15C054B1B68CB40034C236045
:1034300010BD00000010024000127A007801002048
:1034400000093D00345F00081148006840F00100A9
:103450000F490860084640680E4908400C4948601A
:10346000084600680C490840094908600846006899
:1034700020F4802008600846406820F4FE00486080
:103480004FF41F008860C8030449086070470000BB
:10349000001002400000FFF8FFFFF6FE08ED00E01C
:1034A00000220268184B984208D0B0F1804F05D036
:1034B000164B984202D0164B984203D122F070026C
:1034C0004B681A43104B984208D0B0F1804F05D09A
:1034D0000E4B984202D00E4B984203D122F4407218
:1034E000CB681A4322F080024B691A4302608B6852
:1034F000C3620B688362044B984201D10B6903637A
:103500000123436170470000002C0140000400408B
:103510000008004030B50023012404FA01F3046AD6
:103520009C430462046A02FA01F52C43046230BD34
:103530002DE9F041044600252068006920F4405040
:10354000E1680843216808612169A068084361694E
:10355000084305432068C06841F20C618843284352
:103560002168C8602068406920F44070A169084360
:10357000216848615F49206888425CD1FFF76EFA94
:1035800000EBC00101EB001061688900B0FBF1F6AF
:10359000FFF764FA00EBC00101EB001061688900DD
:1035A000B0FBF1F06421B0FBF1F000EBC00101EBE6
:1035B0000010A6EB8000322101EB00106421B0FB6B
:1035C000F1F000F0F006FFF749FA00EBC00101EB63
:1035D000001061688900B0FBF1F06421B0FBF1F0EC
:1035E00006EB0016FFF73AFA00EBC00101EB001002
:1035F00061688900B0FBF1F7FFF730FA00EBC0011A
:1036000001EB001061688900B0FBF1F06421B0FBB0
:10361000F1F000EBC00101EB0010A7EB80003221BC
:1036200001EB00106421B0FBF1F000F00F0030441A
:10363000216888605BE0FFF701FA00EBC00101EB55
:10364000001061688900B0FBF1F6FFF7F7F900EBB5
:10365000C00101EB001061688900B0FBF1F064214A
:10366000B0FBF1F000EBC00101EB0010A6EB800015
:10367000322101EB00106421B0FBF1F000F0F00604
:10368000FFF7DCF900EBC00101EB00106168890075
:10369000B0FBF1F06421B0FBF1F006EB0016FFF790
:1036A000CDF900EBC00101EB001061688900B0FBAF
:1036B000F1F7FFF7C3F900EBC00101EB00106168FF
:1036C0008900B0FBF1F06421B0FBF1F000EBC00128
:1036D00001EB0010A7EB8000322101EB0010642108
:1036E000B0FBF1F000F00F00304421688860BDE8C5
:1036F000F08100000038014010B50021014800F0C1
:1037000067FC10BD0064004010B50021014800F0C6
:103710005FFC10BD0064004070B50546284600F00F
:1037200025F904460CB1204670BD284600F021F969
:1037300004460CB12046F7E700F004F8F4E7014630
:103740000020704710B50D48007800F0010090B9D6
:103750000A4800F011FA70B14FF416530A220921F9
:10376000074800F08FF80446064A074900F0EEF9D2
:10377000024800F04DFA024810BD00005801002038
:103780005C01002000000008CD38000870B5044638
:103790000D46FCF765FD614201600020024941F8D9
:1037A0002500401E70BD00001801002070B51548AE
:1037B00002F06CFA054600BF032405E0124850F8F9
:1037C000240000B902E0641C102CF7DB00BF102CB1
:1037D0000BDBFCF745FD182101600A4802F056FAA0
:1037E000054600BF4FF0FF3070BD4FF0FF30064977
:1037F00041F82400034802F049FA054600BF20467C
:10380000F2E70000080300201801002070B504460C
:10381000102C01DB002070BD074850F82450681CB4
:1038200040B9032C06DA2046FFF776FF0546024929
:1038300041F824002846EEE71801002003466FF007
:103840001C00704701466FF01500704701460020CC
:10385000704700002DE9F04180460E461446374679
:10386000002504E0795D044801F052FE6D1CA5427C
:10387000F8D32046BDE8F0811C0400200146012059
:10388000704700002DE9F04104460E4617461D46DC
:1038900000BF00BF09480A4820600A48006810B10C
:1038A0002046BDE8F0813A463146074801F02CFD3C
:1038B0002946054801F004FD2046F2E7246500088A
:1038C000D4640008740100201C04002010B50446D4
:1038D000204600F032F8044610BD30B50A461346C3
:1038E0001BB1856804682C6002E0C56804682C6020
:1038F00000BF00BF30BD70B5044620680122002122
:103900000369204698470546002D01DA284670BD18
:103910002068022200210369204698470646206855
:10392000002229460369204698473046EFE70146C2
:103930000020704701460020704700BF00BF00BF55
:10394000704710B50446002104F1140002F04EF94E
:10395000A0F11404204610BD10B5044604F1140073
:1039600002F060F9A0F11404204610BD01460020C9
:1039700070470146002070470146087B70470000F1
:103980002DE9F04106460D461B4802F07FF9074637
:1039900000BF1A48046815E0A06890B1A068FDF760
:1039A00043F8A8420DD12A463146A068FDF710F829
:1039B00038B9114802F06AF9074600BF2046BDE851
:1039C000F0816468002CE7D1072D0DD12A463146DD
:1039D0000BA0FCF7FDFF38B9074802F057F907467E
:1039E00000BF09480068EAE7034802F04FF90746BC
:1039F00000BF0020E3E7000060020020F800002084
:103A000064656661756C7400FC00002010B50446A6
:103A1000204600F00AF830B1606810B16068001FFD
:103A200010BD0020FCE70020FAE710B504466068EE
:103A300008B9002010BD6068FFF79EFF012800D183
:103A4000F8E70020F6E710B50446204600F011F82C
:103A500030B1606810B16068001F10BD0020FCE745
:103A60000020FAE70146486808B1012070470020AD
:103A7000FCE710B50446606808B9002010BD606816
:103A8000FFF77AFF08B90120F8E70020F6E70146C2
:103A9000086870472DE9F04104460D46002020607B
:103AA000606015A12846FCF785FF05442F46276076
:103AB00000260EE0216808782F2803D12168491CD0
:103AC000216007E000B905E0761C2168491C2160EF
:103AD00000BFEFE700BF00BF26B92A2207A10EA052
:103AE00000F07EFF00BF31463846FFF749FF6060B7
:103AF0002046BDE8F08100002F0000006D62656483
:103B00005C706C6174666F726D5C46696C65506167
:103B100074682E63707000006C656E20213D20304B
:103B200000000000490050EAC12018BF04204A0DDF
:103B300018BF40F0010040F2FF72B2EB515F08BFC6
:103B400040F00200012808BF05207047034601200D
:103B500070472DE9F0411C4617460E00804607D0FD
:103B6000054602E02846B0473D442046641EF9D28F
:103B70004046BDE8F081000070B505462C4620782F
:103B800000F00300012801D1002070BD00BF00BF7C
:103B9000207800F00300012803D100BF00BF0020FF
:103BA000F3E700BF207800F0030028B140F28C5208
:103BB00005A10DA000F014FF00BF207840F0020026
:103BC00020700120E1E700006D6265645C706C614B
:103BD00074666F726D5C6D6265645F72657461724C
:103BE0006765742E6370700030203D3D20282A6781
:103BF000756172645F6F626A656374202620435842
:103C0000415F47554152445F4D41534B29000000ED
:103C100070B505462C4600BF207800F0030002284E
:103C200005D040F2945206A10DA000F0D9FE00BFCD
:103C3000207820F00300401C207000BF00BF70BD42
:103C40006D6265645C706C6174666F726D5C6D62F0
:103C500065645F72657461726765742E637070006D
:103C60004358415F47554152445F494E49545F496B
:103C70004E5F50524F4752455353203D3D20282A16
:103C800067756172645F6F626A65637420262043A2
:103C900058415F47554152445F4D41534B29000005
:103CA0000020FDF713BC000070B50A4C02232C2243
:103CB00009492046FFF74DFF04460020A065E06556
:103CC00084F8600000BF2546044A05492846FFF7EE
:103CD0003DFF70BDA8010020895B000800000008BE
:103CE000B55B000870B5064D1C2421462846FCF73C
:103CF000ECFE2146284600F0EDFB00BF70BD000041
:103D00008C0100202DE9FF4104460D4616461F4652
:103D10003B4632462946204600F026F88DE80F0043
:103D200004B0BDE8F0812DE9F04107460C46154688
:103D30001E462146384600F0A7FB601C58B13146AC
:103D4000384600F015FC0121384600F08DFB29466D
:103D5000384600F0D3FBBDE8F08130380A2801D2A4
:103D600001207047002070472DE9FF4106460F46AD
:103D700094469846054C6D46E01D20F007040094DB
:103D800002959DE80F0004B0BDE8F0818C0600208C
:103D900010B500F035FE00F0F5FE10BD10B504467C
:103DA000204600F0B3F910BD70B506463046FFF767
:103DB0002DFD054635B9FCF753FA092101604FF096
:103DC000FF3070BD2868816A284688470446002C69
:103DD00006DAFCF745FA614201604FF0FF30F0E788
:103DE00000BF2046EDE710B50446204600F0A4FDD4
:103DF00010BD000070B505460C4623492846FCF767
:103E00008BFE20B90020FFF701FD002070BD1F4987
:103E10002846FCF781FE20B90120FFF7F7FC0120BE
:103E2000F4E71B492846FCF777FE20B90220FFF78C
:103E3000EDFC0220EAE72878402802D1D5F80100FD
:103E4000E4E72046014600F002020AB102210AE03E
:103E500000F004020AB1012105E000F008020AB1F5
:103E6000092100E0002100F00C020AB141F40071C8
:103E700000F004020AB141F4806100BF0E462846FA
:103E800000F0BAFEC2E70000A05E0008A75E0008CE
:103E9000AF5E00082DE9F04104460D46002632468B
:103EA0002946204600F064FD074600BF3846BDE8BD
:103EB000F08100002DE9F05F80460E469246BAF18F
:103EC000004F07D3FCF7CCF9162101604FF0FF300B
:103ED000BDE8F09FD14600244046FFF730FC0028A3
:103EE00037D02B4810F808B000252FE0705D0A2865
:103EF00029D1BBF10D0F26D0A54211DD2A1B3119A6
:103F0000404601F0F1FD0746002F02DA4FF0FF3086
:103F1000DEE73C44AC4200DA33E01D4800F808B06C
:103F200001221CA1404601F0DFFD0746002F02DA06
:103F30004FF0FF30CCE7012F00DA22E00D201449CA
:103F400001F8080000BF16F805B06D1C4D45CDDB2B
:103F500000BF4C4514DAA9EB04023119404601F0C8
:103F6000C3FD0546002D02DA4FF0FF30B0E72C44C8
:103F7000002C04DD601E305C054901F8080000BF1C
:103F800000BF002C02DBA9EB0400A1E720469FE75D
:103F9000F80200200D00000003469A4207D9914222
:103FA00001D2994201D2012070470020FCE79942DA
:103FB00003D2914201D30120F6E70020F4E700BFCD
:103FC000EFF3108000F0010080F001007047000066
:103FD0002DE9F04192B080460C46002500260027CE
:103FE000CDF804800198406900F00100002835D028
:103FF0000198806840490840884201D1012000E0D2
:1040000000200546019880683C490840884201D15B
:10401000012000E0002006460198806838490840E9
:10402000884201D1012000E00020074615B101209F
:10403000019988601EB14FF48070019988601FB1AA
:104040004FF48030019988600DB906B937B12D4918
:1040500051F8240001212C4A126890470198C06849
:1040600000F0030501984069C0F340063DB136B148
:10407000244951F824000021234A126890470198EE
:104080008069C0F3400501984069C0F3402601985B
:104090004069C0F3C03745B13EB137B1194951F855
:1040A00024000521184A1268904701988069C0F3DE
:1040B000800501984069C0F3802601984069C0F3EB
:1040C000C03745B13EB137B10E4951F82400072140
:1040D0000D4A1268904701984069C0F3C03745B156
:1040E0003EB137B1074951F824000221064A12684F
:1040F000904712B0BDE8F081010000040001000803
:1041000000000110600100206401002070B5064627
:104110003046FFF77BFB054600200D4941F826009D
:1041200035B9FCF79DF8092101604FF0FF3070BDF3
:1041300028684169284688470446002C06DAFCF7BF
:104140008FF8614201604FF0FF30F0E70020EEE7AA
:10415000180100202DE9FE4F044617469846D4F872
:104160000490D9E90C013D1A68EB01066068D0F8AB
:1041700010A06068D0E90610491BB0414FD32C490C
:10418000D9F80800884208D1AA46606800695045FD
:1041900045D26068D0F810A041E099F83B00F0B13A
:1041A000606890F83B20AB46584631460296FCF7D3
:1041B00028F91F4BC31841F10001581E61F100019D
:1041C0001B4A0023CDE90001FCF7A4F88246606891
:1041D0000069504523D26068D0F810A01FE000218C
:1041E000D9F80800A0FB052301FB053100FB0610F0
:1041F0000F49521840F10000511E60F100000C4AB6
:104200000023CDE9001008460199FCF783F88246A7
:1042100060680069504502D26068D0F810A0D9F8F3
:1042200020005044D9F80C100840BDE8FE8F000073
:1042300040420F0000BFEFF3108000F0010080F05B
:1042400001007047014600BFD1E84F2F0123C1E8AC
:10425000403F0028F8D10AB1012070470020FCE758
:1042600010B500BF08480068401C20B9512207A1C2
:104270000EA000F0B5FB00BF00F08CF9024800680A
:10428000401C0149086010BD000100206D6265649A
:104290005C706C6174666F726D5C6D6265645F63A7
:1042A0007269746963616C2E6300000063726974E3
:1042B0006963616C5F73656374696F6E5F72656576
:1042C0006E7472616E63795F636F756E7465722070
:1042D0003C2055494E5433325F4D41580000000098
:1042E00010B50848006800B910BD06480068401EB7
:1042F000044908600846006808B900F061F900BF89
:10430000F2E700000001002000BFEFF3058008B1D4
:10431000012070470020FCE70FB408B503A8009007
:104320000448009A0299FCF792F80020009001B02E
:104330005DF814FB200600200FB41CB50E48FFF7F3
:1043400081FFB0B9039C00231A4619460B4800941C
:1043500000F070F900231A4609A10F4800F03AFE58
:1043600005A801900199049800F0D0FB002001906D
:1043700000BF00F0E7FB0000040100200001FF8007
:10438000466174616C2052756E2D74696D6520658F
:1043900072726F7200000000A402002004460848F8
:1043A000FCF7D9F90748FCF7D6F9012000F019F815
:1043B000022000F016F80CB100F036FB00BFFEE75B
:1043C000CC050020200600208A68002A01DCFCF7CA
:1043D00039BE521E8A604A68C0B2531C4B601070CE
:1043E000704770B506463046FFF710FA054635B9F6
:1043F000FBF736FF092101604FF0FF3070BD2868E0
:104400008169284688470446002C06DAFBF728FF16
:10441000614201604FF0FF30F0E70020EEE700005E
:10442000024600210B48824201D148B27047481C25
:10443000C1B20948824201D148B2F7E7481CC1B273
:104440000648824201D148B2F0E7481CC1B24FF0A1
:10445000FF30EBE7003801400044004000480040D6
:1044600000487047905E000870B504460D462DB9AF
:104470000822D4E90501FEF73DFE04E00122D4E95B
:104480000501FEF737FE70BD2DE9F04104460D46EB
:104490002582681C08B9BDE8F081C5F303173846CA
:1044A000FEF702FF0646284600F032F820606661FB
:1044B000207C00F00F00064951F82000A06106F1B1
:1044C000080060600830A060001DE06000BFE2E707
:1044D000C85E000870B504460D46002229462046F5
:1044E00000F001F870BD70B505460E46144623462F
:1044F000002231462846FFF716FC70BD70B5044611
:104500000D46B4F91000294600F068FC70BD0000AB
:1045100010B5044600BF601C20B9762206A10FA08A
:1045200000F05EFA00BF0021204600F0BBFB04F063
:104530000F010120884010BD6D6265645C7461727A
:10454000676574735C5441524745545F53544D5CE6
:104550006770696F5F6170692E63000070696E201B
:10456000213D202850696E4E616D65294E43000043
:1045700019B1836802681A6002E0C36802681A60B1
:10458000704719B1836802681A6002E0C368026864
:104590001A60704710B5FFF712FD044672B6064860
:1045A0000078012800D110BD0448047001200249A0
:1045B000087000BFF7E70000F1000020F0000020C5
:1045C00010B500BFFFF7FBFC20B1362206A110A0FA
:1045D00000F006FA00BF0020144908701448007863
:1045E000012800D162B610BD6D6265645C68616CC3
:1045F0005C6D6265645F637269746963616C5F734B
:10460000656374696F6E5F6170692E6300000000FE
:10461000216172655F696E74657272757074735F23
:10462000656E61626C65642829000000F10000205D
:10463000F00000202DE9F0418EB004460D461746EB
:104640009846149E002C00DB144C342101A8FCF782
:104650003CFA019402960395FFF702FE10480068A9
:10466000401C0F49086008460068012804D1342224
:1046700001A90C48FCF7F7F9342201A90A48FCF714
:10468000F2F90A48006818B10748084909688847DC
:10469000FFF726FE00200EB0BDE8F0810101FF808B
:1046A0000801002070020020A40200200C0100205C
:1046B00008B500BF2D48C06940F004002B49C8610F
:1046C0000846C06900F00400009000BF00BF084623
:1046D000006940F0040008610846006920F0040009
:1046E0000861FEF75FFE2248224908604FF6FF711D
:1046F0002048C160204800682049B0FBF1F0401E0E
:104700001C49486000211B48016181604161816151
:10471000FEF71EFC00211748FEF744FC1E20184936
:10472000184B1A6800F1100342F8231000BF00BFB5
:10473000002809DB00F01F0201219140420992008C
:1047400002F1E022C2F8001100BF0A48FEF71BFC8C
:1047500008480068C06820F0020006490968C8607F
:104760000020094908600949086008BD001002409E
:1047700000080040680400207801002040420F003B
:104780000D58000808ED00E0680100206C010020D1
:1047900070B505462E461549706801EB80143068E7
:1047A0002060B0686060F168A1603169E1607169A2
:1047B0002161316AA1610021E1610020E084A084CF
:1047C000E085A085B6F91A00401C10B90821616186
:1047D00008E0B6F91800401C10B90421616101E03D
:1047E0000C2161612046FEF737FC70BDB404002047
:1047F0002DE9FF5F0446606890F8380008B1BDE815
:10480000FF9F606890F83A0000B1F8E721680868F7
:1048100080472168C869804706463568306828B9EE
:1048200000BF2D223BA142A000F0DAF80020029048
:104830001F2007E001218140A94201D1029003E03D
:10484000411EC8B20028F5DC00BFD6F8049070689D
:10485000202802D87068042805D200BF3B222DA171
:1048600033A000F0BDF8A9F10400072101FA00FA15
:104870003048AAFB0020531940F100005A1E60F195
:104880000000CDE900202A460023DDE90001FBF706
:1048900041FD0746884600206168086061684860FD
:1048A00021684868804761680862002162689162F7
:1048B000D162606885600298616881F83B004A4671
:1048C0004FF0010B0020039058460399FBF799FD28
:1048D000401E6168C8606068C0F810A06168C1E9E6
:1048E00006784FF00000626810635063616881F8D9
:1048F0003900616881F83A004FF00100616881F881
:104900003800204600F09EFF204600F061FC00BF0A
:1049100075E700006D6265645C68616C5C6D626582
:10492000645F7469636B65725F6170692E63000018
:104930003000000040420F0070B506463046FEF7DA
:1049400065FF05462DB9FBF78BFC092101600020AE
:1049500070BD2868C169284688470446002C05DADE
:10496000FBF77EFC614201600020F1E72046EFE7A3
:104970002DE9F04106460F4690463046FEF746FFC9
:1049800005463DB9FBF76CFC092101604FF0FF3093
:10499000BDE8F081286842463946036928469847B1
:1049A0000446002C06DAFBF75BFC614201604FF025
:1049B000FF30EDE72046EBE70DE001210648FEF76A
:1049C0008CFF064801F066F800210348FEF785FFDA
:1049D000024801F05FF8F0E78C010020CDCCCC3D1F
:1049E00008B504460D461646FFF73AFC2B46002252
:1049F00021460248009600F049F800004401FF807B
:104A0000084801688206002004E051F8203042F88E
:104A10002030401C3B28F8DB4FF00050014B186061
:104A20007047000008ED00E088B0FFF719FC1C217A
:104A300001A8FFF74FFD27E000240EE0012101A8A7
:104A4000FFF79FFD962001F035F8002101A8FFF740
:104A500098FD962001F02EF8641C042CEEDB002457
:104A600010E0012101A8FFF78CFD4FF4C87001F0A0
:104A700021F8002101A8FFF784FD4FF4C87001F070
:104A800019F8641C042CECDBD6E7000008B50646D8
:104A90000F4614461D46DDF808800B48FFF7D2FB91
:104AA00078B9DDF8049043462A4621463046CDF8D1
:104AB0000090FFF7BFFD43462A463946034800F001
:104AC00089FA00F03FF8000004010020A402002051
:104AD0000FB408B503A800900099029800F016F8EA
:104AE0000020009001B05DF814FB70B50446FFF79C
:104AF000B7FB2046FBF798FF05462A4621460220D1
:104B000000F0F2FFFFF7ECFB70BD000033B5A1B081
:104B10000446224684216846229BFBF79DFC0546FD
:104B2000842D06D306480168CDF87F1000798DF8F2
:104B30008300002D02DD6846FFF7D7FF23B030BDAC
:104B4000985E00080D48FFF77DFB60B1FFF788FB1A
:104B500000BF00BF00BFBFF34F8F00BF00BF00BF4B
:104B600000BF20BFFDE7FFF7CFFB10B9FFF762FBE7
:104B700008B9FFF759FF0120FFF710FC05010020DD
:104B80007047000000B58BB0FEF70CFCFDF74EFE41
:104B9000FEF714FBFEF706FC282101A8FBF795FFA2
:104BA0000B48006A00F4407060B1082001900020BA
:104BB00008900120079001A8FDF7AAFF10B105A0F9
:104BC000FFF7BAFB01200B4908600BB000BD0000E5
:104BD00000100240496E6974203A2063616E6E6F66
:104BE0007420696E697469616C697A65204C5349F7
:104BF0000A000000700100202DE9FE4F8046894622
:104C0000FEF7D4FD0446002C02DA2046BDE8FE8FF4
:104C10000020029041466846FEF73CFF6846FEF7DA
:104C200021FF28B921466FF01200FEF7AFFDEDE736
:104C30006846FEF71EFF20B16846FEF704FF0290AB
:104C40001FE06846FEF7E2FE06462EB921466FF0E9
:104C50001200FEF79BFDD9E735466846FEF717FFC1
:104C6000824628684B46524602A9D0F808C028461A
:104C7000E047074627B121463846FEF787FDC5E7DE
:104C800000BF0549029841F8240000200349085557
:104C9000034908552046B9E718010020E802002022
:104CA000F80200202DE9F05F05460E4600BF681CA3
:104CB00020B93E2239A142A0FFF792FE00BF06F0C4
:104CC0000707C6F30329C5F3031A05F00F0041498E
:104CD00051F820404FF0000B5046FEF7E5FA8046B1
:104CE000012F18D1032008EB146194FAA4F3B3FA4E
:104CF00083F34FEA830C032303FA0CF30A689A4305
:104D000094FAA4F3B3FA83F39B0000FA03F31A4373
:104D10000A6000BF00BF37B1012F07D0022F08D0B3
:104D2000032F11D10DE04FF0080B13E04FF0010BF2
:104D300010E04FF0090B4A462946404600F078FC47
:104D400008E04FF0000B05E000BF672213A122A08E
:104D5000FFF746FE00BF5A4621464046FEF7E0F9FF
:104D6000012F01D0022F0DD1C6F3C00028B10422BB
:104D700021464046FEF7EAF904E00022214640467B
:104D8000FEF7E4F9C6F301122146404600F01CFC90
:104D9000284600F0E9FBBDE8F09F00006D62656405
:104DA0005C746172676574735C5441524745545F2B
:104DB00053544D5C70696E6D61702E63000000008D
:104DC00070696E20213D202850696E4E616D652905
:104DD0004E430000C85E0008300000002DE9F04797
:104DE00005460C4600BF681C20B9882222A12BA0D2
:104DF000FFF7F6FD00BFC5F3031705F00F002C49C0
:104E000051F820803846FEF74FFA81464146484621
:104E1000FEF75CF90646012E01D0092E10D1042CB4
:104E200003D0032C01D0052C05D10422414648466D
:104E3000FEF78CF904E0002241464846FEF786F969
:104E4000032C01D0012C05D101224146484600F037
:104E5000BBFB0EE0052C01D0022C05D102224146FD
:104E6000484600F0B1FB04E000224146484600F00D
:104E7000ABFBBDE8F08700006D6265645C74617235
:104E8000676574735C5441524745545F53544D5C9D
:104E900070696E6D61702E630000000070696E2095
:104EA000213D202850696E4E616D65294E430000FA
:104EB000C85E0008024606E0B1F90000904201D148
:104EC000486870470C31B1F90000401C0028F3D14C
:104ED000401EF6E738B505460C46A54201D12846E6
:104EE00038BD681C08B92046FAE7601C08B9284696
:104EF000F6E7002003462A4602A100900648FFF785
:104F0000C5FD000070696E6D6170206D69732D6D57
:104F1000617463680000000030010180F8B5054647
:104F20000E464FF0FF34681C08B92046F8BD3146E4
:104F30002846FFF7BFFF0446B4F1FF3F07D100202A
:104F40000346224603A100900A48FFF79FFD204632
:104F5000ECE7000070696E6D6170206E6F74206602
:104F60006F756E6420666F72207065726970686517
:104F700072616C003001018038B505460C46681C32
:104F800000B938BD0DE0B4F90000A84208D12846A8
:104F9000A168FFF787FE00212846FFF71FFFF0E713
:104FA0000C34B4F90000401C0028ECD103462A461A
:104FB00002A100900648FFF769FD0000636F756C61
:104FC00064206E6F742070696E6F7574000000004D
:104FD000300101802DE9F04704460E4615461F4674
:104FE0002068C0F34170032802D12068404201E0EC
:104FF000208880B280462068C0F307494B4642466D
:1050000033482168FFF764FD40F23511A8EB010039
:10501000884527D009DCA8F2311078B1012812D0D8
:10502000022815D0032835D117E0012824D0022802
:105030001DD0032825D00F282CD127E025A0A1685A
:10504000FFF746FD27E029A0A168FFF741FD22E018
:105050002AA0A168FFF73CFD1DE02CA0A168FFF786
:1050600037FD18E02EA0A168FFF732FD13E031A054
:10507000A168FFF72DFD0EE033A0A168FFF728FD22
:1050800009E035A0A168FFF723FD04E038A0FFF791
:105090001FFD00E000BF00BF3046FFF726FD39A02E
:1050A0006168FFF715FD4DB13AA0FFF71EFD2846D8
:1050B000FFF71BFD394639A0FFF70AFD38A0A168AC
:1050C000FFF706FD3BA0FFF703FDBDE8F0870000FA
:1050D000AC6500084B65726E656C204572726F722C
:1050E0003A20307825582C20000000005468726562
:1050F00061643A20307825582C2000004D75746585
:10510000783A20307825582C2000000053656D61D6
:1051100070686F72653A20307825582C20000000A6
:105120004D656D6F7279506F6F6C3A2030782558ED
:105130002C2000004576656E74466C6167733A20DA
:10514000307825582C20000054696D65723A203063
:105150007825582C200000004D65737361676551F8
:10516000756575653A20307825582C2000000000C0
:10517000417373657274696F6E206661696C6564F2
:105180003A2000000A4C6F636174696F6E3A2030F8
:10519000782558000A46696C653A20002B25640082
:1051A0000A4572726F722056616C75653A203078CC
:1051B000255800000A2D2D204D6265644F5320456F
:1051C00072726F7220496E666F202D2D0A000000EA
:1051D0002DE9F05F0446D4F8049099F83A0018B924
:1051E000606890F8390008B1BDE8F09F204600F0F3
:1051F00029FB60684068002832D06068D0E90C78EC
:105200006068406860C8791B78EB060003D32168AA
:1052100048698047E8E72A4633462046FEF79AFF6A
:10522000824600BFD9F82000504505D14FF4847262
:1052300013A11AA0FFF7D4FB00BF206801695046F4
:105240008847216848688047834652465946D9F8BE
:105250002000FEF7A1FE10B12168486980470DE0EB
:10526000D9F81010D9F820000844D9F80C1000EA39
:105270000105206801692846884700BF00BFB3E7E1
:105280006D6265645C68616C5C6D6265645F7469C5
:10529000636B65725F6170692E6300006D6174639A
:1052A000685F7469636B20213D2071756575652D9C
:1052B0003E7469636B5F6C6173745F7265616400F7
:1052C00070B504460D462646B5602046FFF760FAE5
:1052D00018B1294601A0FFF71FF870BD43616E6E3B
:1052E0006F7420696E697469616C697A65205541D3
:1052F0005254207769746820626175642072617409
:10530000652025750A0000002DE9F84F07460D4677
:1053100016463C464FF0000851492846FFF7FEFD6F
:10532000814650493046FFF7F9FD824651464846CE
:10533000FFF7D0FD206000BF2068401C20B93D224F
:1053400049A153A0FFF74CFB00BF092D01D00A2E45
:1053500002D14FF0010808E041490920FFF7DEFDC6
:10536000484502D151A0FEF7E7FF5E492068884218
:105370000DD100BF5C48806940F480405A49886183
:105380000846806900F48040009000BF00BF574984
:10539000206888420DD100BF5348C06940F40030F6
:1053A0005149C8610846C06900F40030009000BF50
:1053B00000BF4F49206888420DD100BF4A48C069EC
:1053C00040F480204849C8610846C06900F4802044
:1053D000009000BF00BF2068FFF722F8606000BFA8
:1053E0006068002804DAA4221FA142A0FFF7F8FA9F
:1053F00000BF1B492846FFF7BFFD1A493046FFF79B
:10540000BBFD681C18B101212846FFF7E7FC701CA2
:1054100018B101213046FFF7E1FC4FF41650A060AF
:10542000B8F1000F01D0A06002E04FF41650A06068
:105430000020E06020616061206225836683384639
:10544000FFF7A6F9B8F1000F07D001202E49086038
:105450004C2239462D48FBF706FBBDE8F88F0000CB
:10546000A4610008046200086D6265645C74617286
:10547000676574735C5441524745545F53544D5CA7
:1054800073657269616C5F6170692E630000000072
:105490006F626A5F732D3E7561727420213D202812
:1054A000554152544E616D65294E43004572726FED
:1054B000723A206E65772073657269616C206F6245
:1054C0006A656374206973207573696E6720736100
:1054D0006D65205541525420617320535444494F07
:1054E000000000000038014000100240004400406D
:1054F000004800406F626A5F732D3E696E64657894
:10550000203E3D2030000000740100201C040020DB
:105510002DE9F04104460D4627460B49786801EB1A
:10552000801600BF204600F011F80028FAD0F86875
:1055300018B9E8B23168486003E0C5F30800316883
:105540004860BDE8F0810000B404002010B50146B9
:105550000B46044C586804EB801210680068C0F3D6
:10556000C01010BDB404002008B500BF14498969FB
:1055700041F00101124A91611146896901F001016E
:10558000009100BF00BF0D2801D00E2808D100BF38
:105590000C4A516821F0E06141F08061516000BF28
:1055A0000F2803D0132801D0142808D100BF054AC2
:1055B000516821F0E06141F00071516000BF08BD09
:1055C00000100240000001402DE9F04106460F4660
:1055D000154639463046FDF779FD0446012D02D0C7
:1055E000022D1AD10CE0042C04D108223946304691
:1055F000FDF796FD012239463046FDF7BDFD14E06A
:10560000042C04D1082239463046FDF789FD0022DA
:1056100039463046FDF7B0FD07E0082C04D10422DE
:1056200039463046FDF77CFD00BF00BFBDE8F08184
:1056300018B5034600BF4748806940F00100454C5B
:10564000A0612046806900F00100009000BF00BF0B
:10565000002A7DD00B2A79D2DFE802F07806101AF2
:10566000242E3A46525E6A0000BF3B4C606840F010
:10567000E06040F00100606000BF68E000BF364CB1
:10568000606840F0E06040F00200606000BF5EE0F3
:1056900000BF314C606840F0E06040F004006060A2
:1056A00000BF54E000BF2C4C606840F0E06040F068
:1056B0000800606000BF4AE000BF274C606820F02F
:1056C000300040F0E06040F01000606000BF3EE05D
:1056D00000BF214C606820F0C00040F0E06040F066
:1056E0004000606000BF32E000BF1B4C606820F4E7
:1056F000406040F0E06040F40060606000BF26E081
:1057000000BF154C606820F4407040F0E06040F449
:105710004070606000BF1AE000BF0F4C606820F46A
:10572000406040F0E06040F44060606000BF0EE028
:1057300000BF094C606820F4C04040F0E06040F4D5
:105740008040606000BF02E002E0FFE700BF00BFF2
:1057500018BD0000001002400000014070B5044672
:10576000FEF77EFD2168C8688047606890F83A00BF
:1057700010B1FEF7B5FD70BD0120616881F83900F8
:1057800020E06068406800B91DE0204600F05AF84B
:105790006068D0E90C1062685268D2E90032C91A18
:1057A00090410ED36068456860684068C068616871
:1057B00048606068006818B1A86862681168884726
:1057C00000E000E0DDE700BF0020616881F83900FB
:1057D0002046FFF7FDFCFEF783FD00BFCBE710B5C9
:1057E0000446204600F001F810BD10B504462046DE
:1057F000FEF7FEFFFEF734FD204600F023F8FEF72B
:105800006FFD6168D1E90C0110BD000010B50B48B7
:105810000B490860084600680069C0F3400058B1B1
:1058200008460068C068C0F3400028B16FF002006D
:105830000968086100F006F910BD0000000800408A
:10584000680400202DE9F14F86B00698446894F86A
:105850003A0010B107B0BDE8F08F069909684868B2
:105860008047029006984068016A0298814200D100
:10587000F0E7216A0298401AE16800EA01074FF058
:105880000008029820624949A068884202D13D463A
:10589000464682E094F83B00E8B344490020A7FB69
:1058A000019208FB012107FB0010CDE9009094F85C
:1058B0003B00DDE900920592024648460599FAF759
:1058C000B3FD05460E4694F83B20D4E90AAB2846C2
:1058D0003146CDE90365FAF794FDDDE90092B9EBB5
:1058E000000062EB01021AEB00004BEB020BC4E973
:1058F0000A0BD4E90A30A168591A70F100000DD3DF
:105900006D1C46F10006D4E90AC1A068BCEB00009A
:1059100061F1000100E002E0C4E90A013DE0234931
:105920000020A7FB012308FB013107FB0010CDE994
:105930000020D4F808C062460023DDE90001FAF730
:10594000E9FC0E4605464FF0000C2846A168A1FB75
:1059500000AB0CFB05B001FB060CD4E90A23DDE922
:105960000001B0EB0A0061EB0C0110184B41C4E9D7
:105970000A03D4E90AC1A068BCEB000071F1000180
:105980000AD36D1C46F10006D4E90A31A068181A42
:1059900061F10001C4E90A0100BFD4E90C10491902
:1059A0007041C4E90C1000BF54E7000040420F00F2
:1059B0006FF002000149096808617047680400201F
:1059C00004480068C06820F0020002490968C86005
:1059D00070470000680400206FF002000949096860
:1059E000086108490868416941F00201416100BF4E
:1059F00004480068C06840F0020002490968C860B5
:105A0000704700006804002010B500210248FDF72F
:105A1000E9FAFFF7D5FF10BD680400200048704781
:105A20002C5F000810B506480068C06820F002002E
:105A300003490968C86000210148FDF7B3FA10BDA9
:105A40006804002010B50448006818B103480249F2
:105A50000968884710BD0000F4000020905E00082F
:105A600001480068704700002408004008490968A0
:105A700048636FF00201064A12681161044909681F
:105A8000C96841F00201024A1268D1607047000003
:105A90006804002070B504460549204600F018F956
:105AA000064600F0F9F8054600F00DF870BD00005C
:105AB0000024744910B504464FF47A7104FB01F0D8
:105AC00000F001F810BD70B50446FEF7C9FC0646AB
:105AD0003046FFF784FE054600BF3046FFF77FFEE5
