:020000040800F2
:1000000000200020950200089D0200089F020008C1
:1000100000000000000000000000000000000000E0
:10002000000000000000000000000000A102000825
:100030000000000000000000A3020008A502000864
:10004000A702000800000000A7020008A70200089D
:10005000A7020008A7020008A7020008A7020008DC
:1000600000000000A7020008A7020008A70200087D
:10007000A7020008A7020008A7020008000000006D
:10008000A7020008A702000800000000A70200085D
:10009000A7020008A7020008A7020008A70200089C
:1000A000A7020008A7020008A7020008A70200088C
:1000B000A702000800F002F800F0C3F80CA030C856
:1000C000083824182D18A246671EAB4654465D46D4
:1000D000AC4201D100F0B5F87E460F3E0FCCB646DB
:1000E0000126334200D0FB1AA246AB4633431847E1
:1000F0006864000088640000103A02D378C878C1B0
:10010000FAD8520701D330C830C101D504680C6059
:10011000704700000023002400250026103A01D378
:1001200078C1FBD8520700D330C100D50B607047AF
:1001300010B56E2902D100F08AFF10BD702902D1DE
:1001400000F063FA10BD662902D105F087FE10BDEC
:10015000652902D105F082FE10BD672902D105F0A4
:100160007DFE10BD612902D105F080FE10BD03683F
:100170001B0A01D380231943692902D100F0D0F969
:1001800010BD642902D100F0CBF910BD752902D150
:1001900000F0C6F910BD6F2902D101F05DF810BD65
:1001A000782902D100F01EFA10BDE92902D100F031
:1001B000F9FF10BDE42902D100F0F4FF10BDF529CC
:1001C00002D100F0EFFF10BDEF2902D101F050F88D
:1001D00010BDF82902D100F013FA10BD0368DB0945
:1001E00001D380231943632902D101F098FE10BD89
:1001F000732902D101F09BFE10BDE32902D101F069
:10020000A5FE10BDF32902D101F0A8FE10BD00200B
:1002100010BD1FB50098019900F02BFE01F022FFE0
:1002200004000020002105F01FFD401C606000203C
:10023000002105F003FDE06001F0E0F900F0B2FDFF
:100240001FBD03F00FFF114603B403F04BFF03BCC7
:10025000FFF7DFFF02F069FA04F0A6F970B5054672
:100260000C46164602E00FCC0FC5103E102EFAD2F7
:10027000082E02D303CC03C5083E042E07D301CCBD
:1002800001C5361F03E021782970641C6D1C761EA1
:10029000F9D270BD0448804704480047FEE7FEE7F6
:1002A000FEE7FEE7FEE7FEE7F5340008B5000008CC
:1002B000004870472005002070B5064600F0BCFDE0
:1002C000056830460B30C408E400B44201D8002071
:1002D00070BD68682A46002818D00168A14211D371
:1002E0000B46214608318B4208D3436801194B6005
:1002F00003681B1B0B605160046001E041685160A2
:10030000001D70BD024640680028E6D121462846FF
:1003100000F09AFD0028DCD170BD70B50446051FC1
:1003200000F08AFD0068002C1AD0446801E02046E5
:100330006468002C01D0AC42F9D301680A18AA42C3
:1003400004D12A6805468918016000E045602868E4
:100350004119A14205D1616869602168401828608F
:1003600070BD6C6070BD10B5202A04DB0146203AD8
:100370009140002010BD914020239C1A0346E34089
:100380001943904010BD10B5202A04DB0846203ADE
:10039000D040002110BD0B462024D340D040A21AEB
:1003A00091400843194610BD4343514330B55C1892
:1003B000010C130C0D4692B25D4380B251432C19CF
:1003C000054655430A0C09044D1962415843010C76
:1003D00000044019514130BDFEB5054610460C469B
:1003E000184373D0AE468C460020AD1A01469C419E
:1003F00067D36646002701243D46B61A9D4102D3C5
:1004000013463A462124654676462F04360C3E4371
:100410002D0CB61A9D4104D3150C1B042B4312045A
:100420001034654676462F06360A3E432D0AB61A24
:100430009D4104D3150E1B022B431202083465465E
:1004400076462F0736093E432D09B61A9D4104D33F
:10045000150F1B012B431201241D65467646AF077D
:10046000B6083E43AD08B61A9D4104D3950F9B00D4
:100470002B439200A41C65467646EF0776083E4360
:100480006D08B61A9D411AD392185B41641C16E0A0
:100490000018764665464941B71A9D410191009082
:1004A00009D36046B11A98418E4684460098019956
:1004B0000025401C6941DD0752082A435B08641E81
:1004C000E6D57246634603B0F0BDFFE70020014663
:1004D000C046C0462A462346F5E710B50B460146FE
:1004E000184600F0EDFD10BD7CB51D4616460C000B
:1004F000009001D00019401E084B7B442A466946F3
:100500000190304600F0BBFD002C054603D0694643
:10051000002000F0C7FD28467CBD0000B10B0000A4
:10052000F7B5002575291068009914A611D000F0C0
:10053000FBFC002802DA404211A608E00099096895
:100540008A0701D50FA602E0490704D50EA60125AA
:1005500001E000F0F2FC009F0024243704E001F0E9
:10056000F1F830313955641C0028F8D12B46324659
:100570002146009800F013FDFEBD000000000000C1
:100580002D0000002B00000020000000F8B50F46F1
:100590000188090502D5224C7C4402E0204C7C44B1
:1005A0000E3405460021243508E016071209360FDF
:1005B000A65D6E541E0732431B09491C16461E4396
:1005C000F3D1224604780023240705D5702F06D0E6
:1005D000002901D00223113200F0E1FCF8BD012313
:1005E0001032F9E770B504460D462146106800F058
:1005F000A4FC0023024629462046FFF7C7FF70BD32
:10060000D21DD308DB000CCBC0E730B40368202434
:100610001268234303600823C36130BC0023B5E79D
:10062000885D0000F3B50446002081B020622046BA
:10063000E1688847002872D0252802D06268A16846
:10064000ABE0594F00267F442046E16888472028C8
:10065000054608DB312D06D27819203800780028AD
:1006600001D00643F0E7B00701D5042086430020FF
:10067000E0610746A0612A2D0AD0284603F01BFD41
:10068000002827D0B8000019303D0090856119E09E
:100690000298BA00121902C8916102902046E168DE
:1006A0008847012F054617D1E06900281FDA20206E
:1006B00086431CE000980A2180694843009940194C
:1006C000303888612046E1688847054603F0F3FC2E
:1006D0000028EFD1012F0AD02E2D08D12046E16845
:1006E00088470546202006437F1C022FC3DBA069F4
:1006F000002803DA4042A06101200643F00701D040
:10070000102086436C2D0BD0682D09D04C2D3CD089
:100710006A2D38D0742D38D07A2D36D016E040E0CE
:10072000E1682F4620468847B842054609D16C2F1C
:1007300029D001208002E16806432046884705460B
:1007400004E06C2F1DD0FF2001300643002D28D07F
:1007500028464138192803D80120C0020643203515
:10076000204626602946029A1646FFF7E1FC00283B
:1007700010D001280BD0F61DF008C0000830029000
:1007800055E74020E1E78020D5E70020D3E7361D7C
:1007900002964CE762682846A1689047206A401C90
:1007A00044E7206AFEBD0000025D000070B504460B
:1007B000C068810713D0800601D5A56A04E0A1694D
:1007C000606840182169451A204600F0CFFE0022DB
:1007D00006462946204600F01DF8304670BD002030
:1007E00070BD70B5002802D0FFF7E0FF70BD002596
:1007F000074C6E1E08E02046FFF7D8FF002800D007
:100800003546206D44086400002CF4D1284670BDA4
:1008100024050020F8B5044616460D464769007BBE
:10082000800730D0384603F088FC00282BD13246B0
:100830001026002A25D0012A02D0022A23D104E062
:10084000204600F01BFE45191BE0384603F056FC1D
:10085000E16831430028E16004DA204600F056FEEA
:100860000120F8BDC9030BD56268E16A914200D846
:100870001146A26989182269891A814200DD084659
:100880002D18002D01DA0220F8BDE16A6068E268E7
:10089000814206D29103E06203D5012149048A43D3
:1008A0003243A669AE4211DCE16A814201D90B46AE
:1008B00000E003469F192369FF1AAF4206DD81421B
:1008C00001D90F4600E007469F4206D1202002438F
:1008D0000020A060A56220600DE0AD1BE669AE1BA4
:1008E0008142A66000D90846C01A281A206058190B
:1008F000606020208243034802400020E2604034D0
:100900002072F8BDBFCFD7FFF7B516460C4610468C
:1009100000F06EF82078611C61280AD0722802D09D
:10092000772839D102E00125002404E002250424BF
:1009300001E02D4D08240222032301270878491CD9
:100940002B2806D0622807D02039C87F742807D00A
:1009500008E01D431443F1E7042005433C43EDE761
:10096000102004430098214603F0EEFB411C13D0F5
:100970000021316171600121F5604902F16170610E
:10098000200704D5304602220021FFF743FF306DD7
:10099000384330653046FEBD0020FEBDF8B50D463B
:1009A0000646124C206DC10704D0410804D044080B
:1009B0006400F7E7224610E05420FFF77DFC0700B3
:1009C00010D07908206D49000122114308435421B9
:1009D0002065384600F0F1F83A4629463046FFF7E0
:1009E00093FFF8BD0020F8BD028000002405002020
:1009F000FEB50446466900690F4F0190E568002086
:100A00000090A80707D0204600F0B0FD304603F064
:100A10006FFB002801DA3846FEBD280502D5019893
:100A2000FFF77BFC4C21204600F0C7F8206D400802
:100A3000400020650098FEBDFFFFFFFF30B5034674
:100A40001D78002D08D00A461478521C002C03D0C3
:100A5000AC42F9D15B1CF3E7181A30BD034610B560
:100A60000B439B070FD1042A0DD308C810C9121FCE
:100A7000A342F8D018BA21BA884201D9012010BD8A
:100A80000020C04310BD002A03D0D30703D0521C5E
:100A900007E0002010BD03780C78401C491C1B1B8C
:100AA00007D103780C78401C491C1B1B01D1921EF6
:100AB000F1D1184610BD000030B5441C03E00178A8
:100AC000401C00290DD08107F9D10B4BDD0104C872
:100AD000D11A91432940FAD0001B0A0603D0C01E48
:100AE00030BD001B30BD0A0401D0801E30BD09029C
:100AF000FCD0401E30BD000001010101F8B5042A00
:100B00002CD3830712D00B78491C0370401C521E53
:100B100083070BD00B78491C0370401C521E8307BF
:100B200004D00B78491C0370401C521E8B079B0F8E
:100B300005D0C91ADF002023DE1B08C90AE0FFF731
:100B40008DFBF8BD1D4608C9FD401C46B4402C4332
:100B500010C0121F042AF5D2F308C91A521EF0D48D
:100B60000B78491C0370401C521EEAD40B78491CB8
:100B70000370401C012AE4D409780170F8BD01E03B
:100B800004C0091F0429FBD28B0701D50280801CF9
:100B9000C90700D00270704700290BD0C30702D0EC
:100BA0000270401C491E022904D3830702D502802B
:100BB000801C891EE3E70022EEE70022DFE7000049
:100BC000024670B50A4392072AD11E4DEE0104C8B1
:100BD00008C9541B9443344017D0D0B2D9B2401A3C
:100BE0002106014310D190B299B2401A2104014369
:100BF0000AD110021902000A090A401A210201430F
:100C000002D1100E190E401A70BD9A42DFD010BAF0
:100C100019BA884201D9012070BD0020C04370BDBF
:100C200002780B78401C491C002A09D09A4207D14F
:100C300002780B78401C491C002A01D09A42EFD060
:100C4000D01A70BD01010101002203098B422CD38F
:100C5000030A8B4211D300239C464EE003460B430C
:100C60003CD4002243088B4231D303098B421CD36E
:100C7000030A8B4201D394463FE0C3098B4201D360
:100C8000CB01C01A524183098B4201D38B01C01A98
:100C9000524143098B4201D34B01C01A524103090F
:100CA0008B4201D30B01C01A5241C3088B4201D3BE
:100CB000CB00C01A524183088B4201D38B00C01A6B
:100CC000524143088B4201D34B00C01A5241411A92
:100CD00000D201465241104670475DE0CA0F00D075
:100CE0004942031000D34042534000229C4603096E
:100CF0008B422DD3030A8B4212D3FC22890112BAF4
:100D0000030A8B420CD3890192118B4208D38901CB
:100D100092118B4204D389013AD0921100E08909E3
:100D2000C3098B4201D3CB01C01A524183098B42C4
:100D300001D38B01C01A524143098B4201D34B01AD
:100D4000C01A524103098B4201D30B01C01A524110
:100D5000C3088B4201D3CB00C01A524183088B4297
:100D600001D38B00C01A5241D9D243088B4201D320
:100D70004B00C01A5241411A00D20146634652410B
:100D80005B10104601D34042002B00D5494270470A
:100D900063465B1000D3404201B50020C046C04608
:100DA00002BD000070B5064C7C44064D7D4403E056
:100DB000206800198047241DAC42F9D170BD0000A5
:100DC000F8580000FC580000F8B517460E460546D6
:100DD000002B07D0104658434419E41B2046B04767
:100DE000A542FAD128460838F8BD10B501469E2420
:100DF0000002CA15A307002A02D01843002A04DB08
:100E0000A21A002A0CDDD04010BD1206120E01D12C
:100E100040004008A21A03D4D04040420028F3DD2D
:100E2000FF2248001206904201D9002010BDC817C9
:100E3000C043584010BD0000004870472006002005
:100E4000704770477047704738B504460A4600201F
:100E5000694601F0DDF8002805D0024620460099D9
:100E600000F084FC012038BD10B5012001F0A6F887
:100E700010BDF8B501F0C0F8054600200C46102062
:100E8000C0460646A819A0420DD932466946002040
:100E900001F0BEF8070001D101F090F80098A042DF
:100EA00000D00546C419FFF7C7FFF61D07460560C9
:100EB000F008C0004619284600F008F8B44204D0F3
:100EC00031463868A21B00F051FCF8BD00210160DA
:100ED0004160806070471020704770B50446856996
:100EE0000068C10601D5302600E02026C00707D0E3
:100EF00070BD62683046A1689047206A401C20623D
:100F00006D1EF6D570BD70B5044685690078C007C2
:100F100007D170BD6268A16820209047206A401CFC
:100F200020626D1EF6D570BD09684A0501D540B234
:100F30007047C905FCD500B2704709684A0501D55C
:100F4000C0B27047C905FCD580B2704770B50C4679
:100F50000546012A05D02878800600D5EA690023D5
:100F600002E0012305E05B1C934202D2E05C002812
:100F7000F9D1A869E618C01AA861286AC0182862C1
:100F80002846FFF7AAFF04E06A682078A968641C75
:100F90009047B442F8D32846FFF7B5FF70BDFFB5C0
:100FA00004460D4681B0243000902168880604D59F
:100FB0001022E0699143216000E00120A84201DD98
:100FC000471B00E000270498A1697A191018081A35
:100FD000A0612078C00602D42046FFF77EFF0026DD
:100FE00008E003986268A168805D9047206A401C11
:100FF000761C206204988642F3DB2078C0060AD56E
:101000002046FFF76AFF06E06268A168302090473B
:10101000206A401C206238467F1E0028F4DC07E06E
:1010200000986268A168405D9047206A401C206279
:1010300028466D1E0028F3DC2046FFF764FF207869
:10104000000602D5022005B0F0BD0120FBE71168C3
:101050000268006A530501D5087009E0D30501D57F
:10106000088005E0130602D5C21705C100E008603C
:101070000120704701694A1C02610878704700B579
:101080008FB00291002105910549019379440391A4
:10109000114604906846FFF7C5FA0FB000BD000086
:1010A000E5FFFFFF0A681070521C0A6070470CC908
:1010B00008399A4202D2531C0B601070704700002E
:1010C000084B70B50D467B44FFF7D9FF0446284610
:1010D00000F0D8F8002802D00020C04370BD2046A0
:1010E00070BD00000F350000F7B50446154686B008
:1010F0002B487844002703C83E460090019111E038
:1011000007986A467100415A02A800F02BFF411C63
:1011100007D02178890603D5E269391891420ED8A3
:101120003F18761C2078800602D5E069B84206DDBB
:10113000AE42E5DB07987100405A0028E0D1A06973
:10114000C01BA0612046FFF7C8FE154878445A38F6
:1011500003C800900020019116E041006A460798FC
:10116000415A02A800F0FEFE0590401C0AD000255E
:1011700005E0626802A8A168405D90476D1C059873
:101180008542F6D30498401CB0420490E5DB206A07
:10119000C01920622046FFF7B6FE09B0F0BD00007E
:1011A0006A520000F7B5D21D0025D20815A6D2005C
:1011B000F52905CA11D0002A05DA002140429141E3
:1011C00011A60A4608E0009909688B0701D50FA609
:1011D00002E0490701D50EA601251146009F002413
:1011E000243704E000F0DCFA30323A55641C024641
:1011F0000A43F7D12B46324621460098FFF7CFFE2F
:10120000FEBD0000000000002D0000002B000000CB
:101210002000000070B504460021243408E0550782
:10122000D2086D0F303565545D072A43DB08491C31
:1012300015461D43F3D10468002310A2250708D5E5
:1012400020252C400C4304D0C46901230CA2641E49
:10125000C461FFF7A4FE70BD10B5044621461068B6
:10126000FFF76BFE002302462046FFF7D3FF10BDB9
:10127000D21DD108C9000CC9CCE700000000000055
:1012800030000000C068802108407047F8B505466E
:101290000C46C8680521C904884301218905084313
:1012A000E060800602D5204600F086F97149E068CA
:1012B0000140022903D0204600F028F9BCE00521B6
:1012C000012249030140D20391420FD1C00306D548
:1012D0006168E06A884200D80846606006E02069DC
:1012E000E0626060606902F009FFA061A16800220D
:1012F000EEB200290EDAE06883050BD4C943A16081
:101300000921226049030843E0606068411C616074
:101310000670ACE0E068012149030843E06000206A
:1013200020602069002831D1606902F006FF0125A4
:1013300027462437ED02002816D0A0898005800FAB
:1013400008D0E069FEF7B8FF0028206102D0E0680D
:10135000284318E001202761E061E06803210902C9
:101360008843012189020DE0E069FEF7A5FF00280E
:101370002061EFD0E0682843E0608105890F03D148
:10138000FF2101310843E06020696060E2683A4F64
:101390002569D0051FD56168E06A884200D80846F3
:1013A000411B05D02246284600F0BAF8002843D158
:1013B000E068010204D5E56200206560A06053E0AA
:1013C000691CE1626160E169491E3843A160E06027
:1013D00030462E70F8BD100201D53A4009E0606831
:1013E000411C61600670E06838430A2EE06006D058
:1013F0000022E16A6068814203D90B4602E00122C3
:10140000F7E70346A7895B1B7F0504D4E7699F4282
:1014100001DD002A1ED0814200D801460F1A0020AB
:10142000E5626560002BA06009DD2246194628466A
:1014300000F076F8002802D00020C043F8BD002F4D
:1014400008D0A069E5626560C01BA061E06810215A
:101450000843E060E068000209D56168A069E562C0
:10146000491B40186560A0610120C043F8BD3046AB
:10147000F8BD0000821000000000010010B5014618
:10148000C268900703D0900607D5886A0AE0FEF785
:101490000FFF01210160881E10BD8B694868C018CC
:1014A0000B69C01A40310B7A002B02D0497A401ADE
:1014B00010BD1103FCD50028FADD401E10BD000050
:1014C00070B5C468A50713D0650211D4D51FF93DC6
:1014D0000AD0FF3D6D1E07D0FF3DFF3D022D07D115
:1014E00001462431012305E0074E5D1EB54201D3BC
:1014F000012070BD0161C36141600F2109028C436D
:101500001443C460002070BDFFFFFF00C16880224B
:10151000114392039143C1600021816001607047D3
:10152000F7B514460E463348D5685769054209D0C9
:101530003846A16902F044FE002811DB2D48C04363
:101540000540E5602B4632463846009902F046FEDB
:101550004200A1695208B21A89180028A16104D07A
:101560002046FFF7D3FF0020C043FEBD70B5044600
:101570000569C06A6168884200D80846E1680522AA
:10158000D2049143E160C90314D5A84209D0224690
:10159000411B2846FFF7C4FF002802D00020C043AB
:1015A00070BDE56200206560A060E068012109046B
:1015B0008843E060002070BD10B50446C06820215B
:1015C0008843E060A16AA06988420ED02046FFF7F8
:1015D000CDFFE06803210903884310210843E06040
:1015E000A06AA0612069E06260600349E068084089
:1015F000E06010BD10000200BFBFFFFF10B5434800
:101600005421FFF7DAFA42485421FFF7D6FA41484D
:101610005421FFF7D2FA40483C493D4B404A016013
:101620003E4803603B4810605A1C0A65411C19651E
:10163000012101653C48354A3AA17844FFF764F935
:10164000002804D1384878440C3800F0B1FC384800
:101650002F4A36A17844FFF757F9002804D13448BF
:1016600078440C3800F0A4FC32482A4A2FA1784470
:10167000FFF74AF9002804D12E4878440C3800F0CE
:1016800097FC40232148DC0000212246FFF718FF89
:10169000002804D0244878445C3800F089FC1C48B9
:1016A000224640230021FFF70BFF002804D02048EA
:1016B00078445C3800F07CFC164822461023002158
:1016C000FFF7FEFE002804D01A4878445C3800F08A
:1016D0006FFC10BD0F4870B5006D44080B486400E6
:1016E000FFF786F90A48FFF783F90A48FFF780F900
:1016F00009E0206D450820466D00FFF779F9204686
:10170000FEF70BFE2C46002CF3D170BD2405002003
:1017100078050020CC0500203C010020400100207D
:1017200044010020720000006E48000077000000B5
:101730005B4800004948000010B500F045FC00F08F
:1017400031FC10BD01468008081A02091018020A6F
:101750001018020C1018C008820012185200891AC2
:1017600001E0401C0A390A29FBD2704710B5034634
:10177000406801E003464068002801D08842F9D360
:101780001868C3188B4206D0CB1CD808C000001DB7
:10179000411A521A0146081D0A60FEF7BEFD10BD2F
:1017A0000B4670B5024689078008084319469D0814
:1017B000141AA94125090807054308092C194841AD
:1017C000250A01060D43010A2C194141200C0D0484
:1017D00028430D0C00194D41002140194D41C0080E
:1017E00069070843E908840F8D0025438400241805
:1017F0004D4124196D41121BAB4107E00925ED4312
:101800002C11521963410024401C61411C460A25D9
:101810000026551BB441F1D270BD00007047FFB5E2
:101820000C461E468FB003CA089009914F007D0DEB
:1018300000D16D1E002108460020C0460321099AF0
:1018400089050840002A03DA820080184008084011
:10185000800D01280A9002DD0020C0430A900898FC
:1018600007430DD0EF48F04928184843071418984B
:1018700000281DD07542291E1DDD0A9842421BE03A
:101880001898012802D00020302104E00020F24303
:1018900005E02154401CB042FBDB30460022189B7F
:1018A000002121540F998B600A60486013B0F0BD8D
:1018B000BD1B6D1CDFE70A9A002900DA69420BA8FC
:1018C00000F018FC0BAB07CB03AB07C308990998D2
:1018D00000F074FC6B4607C30146D4480918002D7C
:1018E00000910ADDD14903980A9A4942401803A998
:1018F0000390684600F087FE07E003990A9A0818EB
:1019000003A90390684600F054FE6B4607C3000429
:10191000000C03D00020C043410800E01046189A94
:10192000002A03D00022009215461EE0751E05D441
:10193000FFF736FF303262556D1EF9D5012208439C
:10194000079602D000227F1C04E02078302801D1C5
:1019500000227F1E002A069789D01EE0112D07DA8B
:10196000FFF71EFF303262556D1C02460A43F5D167
:10197000084303D00098002819D00EE00021681E0B
:1019800005E0235C625C63542254401E491C814282
:10199000F7DBA81B401E07950690079A18990020B0
:1019A000A0540F98079B069A81600CC07EE7112611
:1019B000002018905BE7D21DF0B50D460446D10813
:1019C00093B0C90003C90C900D9102F007FA0246CA
:1019D0000D98C00F01D02D2007E02068810701D5A8
:1019E0002B2002E04007C00F4001032A0F9001D0D6
:1019F000072A05DB03462946204600F037FB0EE1A7
:101A00002078800601D5E76900E006272846652D85
:101A100004D0662814D0672D69D12DE00020112F45
:101A2000009001DB112300E07B1C0CAA03A910A885
:101A3000FFF7F5FE1199002610987D1C0E9142E0EB
:101A400001203B460CAAC0070B900120009003A97F
:101A500010A8FFF7E4FE119D1298109900260028A7
:101A60000E9501D1781C0D18781B02D446427D1CBE
:101A7000761EE81B00903AE0012F00DA01270020D3
:101A8000112F009001DD112300E03B460CAA03A9B1
:101A900010A8FFF7C4FE11993D46109800260E913C
:101AA000217809070BD40E99A94200DA0D4603A943
:101AB000012D04DD4A19203AD27F302A06D0B842DF
:101AC00001DA011D04DA012100910FE06D1EEFE73C
:101AD000002802DC86192D1A03E0411CA94200DD12
:101AE0000D46801B401C00900120C0070B90207801
:101AF000000705D40098A84202DB0020C0430090F4
:101B000069460020C8720B98012102AF0337C9074C
:101B1000884225D0022010902B2011900B9800288D
:101B20000BDA40420B902D20119006E00B98FFF746
:101B300009FE30317F1E0B9039701099481E002924
:101B40001090F3DC0B980028F0D111987F1E3870AC
:101B50002088000501D5452000E065207F1E3870F3
:101B600001A8C01BC01D0B900F98002800D00120B9
:101B700041190098C01709180B980818A169081A8C
:101B8000401EA0612078C00602D42046FFF7A5F9C8
:101B90000F98002805D06268A1689047206A401C11
:101BA00020622078C00625D52046FFF796F921E06F
:101BB000002E07DB0E98B04204DD03A86268805D4A
:101BC000A16802E06268A16830209047206A761C14
:101BD000401C20620098401E002800900AD100F0AE
:101BE00041FAC06862680168405CA1689047206A59
:101BF000401C206228466D1E0028D9DC07E0626880
:101C00003878A1687F1C9047206A401C20620B999D
:101C1000481E00290B90F2DC2046FFF774F90320E0
:101C200044E6000001FCFFFF104D0000E1DFFFFF74
:101C3000D21DF0B504460D46D0088DB0C0004668F0
:101C400007683146384602F0C9F80246F00F01D065
:101C50002D2307E02068810701D52B2302E04007F0
:101C6000C00F43016846002B037001D0012000E043
:101C70000020032A0A9001D0072A04DB29462046C7
:101C800000F0F4F92DE12078800601D40D2500E064
:101C9000E5697000400D0D2D01904BDA300D0021EB
:101CA0000B9008460020C046032189050840002EFD
:101CB00005DA82008018C20F101840100840801505
:101CC000012801DD0020C043A9000023182906D304
:101CD0009C460A460123183A1B07D34003E0012221
:101CE0001205CA4094460C31202902D33A462039C5
:101CF00000E032468A40002802DD002A06D119E0C1
:101D0000002817D10121C9078A4213D31946634617
:101D10007F185E41002806D10120C007824202D10F
:101D2000084687439E430B98310D814202D00198AB
:101D3000401C01902088000502D57149794402E0D9
:101D40006F49794419396B460A9830221A540A9817
:101D50000A7C401C1A54401C0A900198002801DC9F
:101D6000302000E031201872019A0120002A02D0B0
:101D7000644BD21804E072003A4302D0614A521C0C
:101D80000192002D02DC2278120703D56A462E202C
:101D9000507202200022864694460CE0320336013F
:101DA000120F6D1E8B5C02AA13546246521C401C1B
:101DB0009446052A01DA002DF0DC002202AE08E08C
:101DC0003B0F3F01CB5C521C6D1E3354401C082A54
:101DD00001DA002DF4DC23689A0601D511E0401EDB
:101DE000704504DD3218203AD27F302AF7D000281F
:101DF00007DD3218203AD27F2E2A02D11A0700D4EA
:101E0000401E002D03DD3E223254401C6D1E497CD5
:101E100031540199401C002906DA2D21471C315408
:101E200001984042019003E02B21471C3154019856
:101E30007D21C900884206DBFEF710FF3030F055E7
:101E40007F1C019101E0642808DB01986421FEF702
:101E500005FF3030F0557F1C019101E00A2806DBB8
:101E600001980A21FEF7FAFE3030F0557F1C0198E8
:101E70000A21FEF7F3FE3031F1550A98A1697F1C63
:101E80007A191018081AA0612078C00602D42046DA
:101E9000FFF723F8216A6E460A980818206204E0CA
:101EA00062683078A168761C90470A98401E0A90B4
:101EB000401CF5D12078C00602D52046FFF70DF86A
:101EC00002AE09E03078761C3E280DD06268A16829
:101ED0009047206A401C20627F1EF3D22046FFF705
:101EE00012F80DB00320F0BD206A4019206203E013
:101EF0006268A168302090476D1EEDD3F8E70000BE
:101F00003B46000001FCFFFF10B54369002B02D0E7
:101F1000C046C04601E0FFF719F8012010BD127855
:101F2000014624310A7000224A700122ECE7116850
:101F30000022D243E8E710B54369002B02D0C04627
:101F4000C04601E0FFF7D0F8012010BD128801461D
:101F5000243182840022C2840122ECE7116800222D
:101F6000D243E8E770B516460C46054600F072F815
:101F70000368FF200230C05C012807D0FF2C0ED878
:101F8000185D00280BD001202C7070BDFF33324645
:101F9000214608331868C3182846984770BD0020AA
:101FA000C04370BD10B5002801D000F04DF810BD41
:101FB00010B500F071FBFFF7F5FF10BD10B500F094
:101FC00085FBFFF7EFFF10BD10B5002102A000F068
:101FD00049FB012010BD00005349475056464E3A78
:101FE0002050757265207669727475616C20666E1A
:101FF0002063616C6C65640001226946114B120319
:1020000082188A421A6001D81146704719607047D9
:1020100070B50C4C6D46012636032368AD1B9A182B
:10202000AA420ED8AD1A9019EE0F75196D10AA18A4
:10203000904200D91046C01D0B60C208D200D01AD1
:10204000226070BD4801002001491820ABBEFEE7A8
:102050002600020010B500F005F8001D10BD00BFFD
:10206000093C00000048704724060020F8B51F46D0
:10207000044601230068DB02032601461840072AB4
:1020800005DB002801D017A506E017A504E000280D
:1020900001D016A500E016A5102081432160A0699B
:1020A000C01E002FA06101D0401EA0612046FEF797
:1020B00014FF002F09D038466268A1689047206A53
:1020C000401C2062C01C206206E0206AFAE76268B9
:1020D0002878A1686D1C9047761EF8D22046FEF73E
:1020E00012FFF8BD4E414E006E616E00494E460033
:1020F000696E6600F7B516468AB02F4878446C467C
:1021000003467C33C06F5A689B680DC42A487844E4
:10211000763003AC0DC80DC43720C0010818372134
:102120001B30FEF79BFD05460C46803D1B3C02D54F
:102130006442012000E00020002709900FE0E00742
:102140000BD00C201C497843794432464C39411855
:10215000684600F02EFA6B4607C364107F1C002C03
:10216000EDD1154F7F442C3F15E0E80711D0200139
:10217000C0190EC80691089307920068F04201D179
:1021800098190890324606A903A800F012FA03AB8A
:1021900007C36D10641C002DE7D1324669460998CB
:1021A000002803A802D000F02EFA01E000F001FAA6
:1021B0000A9B07C30DB0F0BD9042000003464000EB
:1021C0000A4610B5400D0BD00121C9070F24A40207
:1021D00000191C0364082143540D2143D20207E077
:1021E00000210120F2E7D40F490021435200401E94
:1021F0000029F8DADB0FDB07184310BDFFB50D46E9
:10220000144685B04868516801F0C2FD0091019004
:10221000A868A16801F0BCFD02910390A8686168FC
:1022200001F0B6FD029A12188242029201D20120F8
:1022300000E00020019A0B18D2180028019202D069
:102240008A4202D903E08A4201D2012000E0002044
:102250000099081800906868A16801F099FD029A39
:1022600012188242029201D2012000E00020019A5D
:102270000B18D2180028019202D08A4202D903E03A
:102280008A4201D2012000E0002000990818009045
:102290002868216840004900400849084018EE4974
:1022A000471814E001994000C90F084300900198B5
:1022B00002994000C90F0843019002980399400019
:1022C000C90F08430290039840007F1E03900098B6
:1022D0000028E7DA0898002801D0E04E00E0002648
:1022E000B74228DAF71BF806C00E15D0029B202152
:1022F000091A039A8B401A430392029A019BC24027
:102300008B401A430292019A009BC2408B40009975
:102310001A430192C14000917A110BD06B46032001
:10232000811A01D5002101E0890059588700401E1B
:10233000D951F5D5374603980299002800D00120DD
:10234000014308980291002808460CD0002800D0CC
:1023500001200199019A490508430121D20AC902C5
:10236000D202019200E001210E9B0122D207012B33
:1023700002D0002B03D013E0002807D116E09042D2
:1023800004D890420CD1019B0B4209D0019B5918F3
:10239000019105D10099491C009101D17F1C009247
:1023A000002803D0102108460020C0462868216874
:1023B000019B009A4840C10F0598C90739430EC0D8
:1023C00009B0F0BDFFB587B0099A0898089953681D
:1023D000926840688968964600220393174694469F
:1023E000089A12685300099A5B0812685200520852
:1023F0009A1A9B4BD4180A9A002A01D0352200E081
:10240000402206920022012315460492DB07059321
:1024100024E0002D05D175460346039E4D1BB341B4
:1024200009D375466646039B491B049D9841059B4D
:102430007519AC465F4163463B4308D0059B049E3B
:10244000DD0776082E435B080496059301E0521ED3
:10245000641EC50FED0749184041521C069B9A4265
:10246000D7DB002D04D17546039A6B1A824101D245
:1024700003200CE0039A0B466B404240134303D009
:10248000014303D0012002E0022000E00020614669
:1024900001910021009702910A99002905D0614617
:1024A000400201436D4B019102E08007002302903E
:1024B0009C423ADA1A1BD006C00E15D0029D20218C
:1024C000019C091AC5408C402543029C8C4000D0D9
:1024D00001242543019C02953D46C4408D40394668
:1024E0002C43C1400194009154111DD06D4602212E
:1024F000002202290CD10320001B07E0002804DB86
:102500008600AE59002E00D00122401C0328F5DBC6
:10251000081B02D588002A5004E080002858104388
:102520008A00A850491EE3D51C460A980028029844
:102530000CD0002800D001200199019A49050843D8
:102540000121D20AC902D202019200E00121109BAE
:102550000122D207012B02D0002B03D013E0002868
:1025600007D116E0904204D890420CD1019B0B4257
:1025700009D0019B5918019105D10099491C00917E
:1025800001D1641C0092002803D0102108460020CD
:10259000C04608980999019A00680968484000995E
:1025A000C30F0798DB0723430360826041600BB0D1
:1025B000F0BD1FB5002300920A46014601A8FFF7AF
:1025C0001DFE01AB07CB04B010BD1FB50123009267
:1025D0000A46014601A8FFF711FE01AB0F2407CB05
:1025E000A402C30F4000DB074008001B002900DBEA
:1025F0000020490000054908CC0A2043490518433A
:10260000D20A1143DFE71FB5002300920A460146B4
:1026100001A8FFF7D7FE01AB07CBD4E71FB5012315
:1026200000920A46014601A8FFF7CCFE01AB0F2439
:1026300007CBA402C30F4000DB074008001B0029A2
:1026400000DB0020490000054908CC0A2043490569
:102650001843D20A1143B6E702C0FFFF013C000055
:10266000FF3F000070B505460C460A2000E06D1CD7
:1026700000F054F8002D06D028780028F7D102E0A9
:10268000641C00F04BF8002C02D020780028F7D111
:102690000A2000F043F870BD10B5014602A0FFF714
:1026A000E1FF012010BD00005349475254524544F8
:1026B0003A2052656469726563743A2063616E27DB
:1026C00074206F70656E3A200000000010B501287C
:1026D00005D0002103A0FFF7C5FF012010BD09A10F
:1026E000F8E7000053494752544D454D3A204F7585
:1026F00074206F662068656170206D656D6F7279FA
:10270000000000003A2048656170206D656D6F72B1
:102710007920636F727275707465640008B56946DC
:1027200008700320ABBE08BD704710B502F026FB51
:1027300002F052FA10BD000070B51548006800287C
:1027400010D001F08FFF054603F0BFF8114909686A
:10275000441800200F4908607D21C9002046FEF77B
:1027600073FA70BD03F004FA04460A480088201A80
:1027700080B20949096840180749086005480460A3
:102780007D21C90004480068FEF75EFAE9E7000011
:1027900030010020280100202C01002010B506483F
:1027A00000681021084304490860032000F006F87F
:1027B00000F00AF8002010BD0020024010B50446C9
:1027C00002F07EF8002010BD7047000070B504468E
:1027D0000D4600265D480068C007C00FA8420ED213
:1027E0005A48006840084000284358490860084695
:1027F0000068C007C00FA84201D0012070BD0221AF
:1028000020680840022807D151484068F0218843D9
:10281000A16808434E4948602078C007C00F0028CF
:102820005FD06068012808D1494800680121490447
:102830000840002815D10120E0E76068022808D18F
:1028400043480068012149060840002809D10120B9
:10285000D4E73F48006802210840002801D1012048
:10286000CCE73B48406880088000616808433849ED
:102870004860FFF761FF0646606801280FD107E056
:10288000FFF75AFF801B3349884201D90320B5E77F
:102890002F4840680C2108400428F1D121E06068ED
:1028A00002280FD107E0FFF747FF801B2949884224
:1028B00001D90320A2E7264840680C2108400828D7
:1028C000F1D10EE007E0FFF737FF801B2149884276
:1028D00001D9032092E71E4840680C2108400028D7
:1028E000F1D11A480068C007C00FA8420ED9174896
:1028F0000068400840002843144908600846006802
:10290000C007C00FA84201D0012077E7042120684A
:102910000840042808D10E4840680721090288436E
:10292000E16808430A49486000F032F808494968FC
:10293000F02211400909084A515CC8400749086063
:102940000320FFF73BFF002058E700000020024073
:102950000010024088130000405F0008380100208A
:1029600001480068704700003801002000B5FFF7FB
:10297000F7FF05494968072212021140090A034A74
:10298000515CC84000BD000000100240505F0008CC
:10299000F0B589B024A001460EC9C06805AC0EC4CC
:1029A000089025A001460EC9C06801AC0EC4049071
:1029B00000240027002500260020009022484468BB
:1029C0000C202040002827D0042802D0082822D13B
:1029D00002E01E48009022E00F2080042040800C7E
:1029E00005A90E5C1848C06A0007000F01A90F5C1A
:1029F00001200004204001210904884206D1394603
:102A00001248FEF721F97043054602E010483546AA
:102A10004543009503E000BF0C48009000BF00BF95
:102A2000009809B0F0BD000002030405060708097C
:102A30000A0B0C0D0E0F1010010203040506070807
:102A4000090A0B0C0D0E0F100010024000127A0044
:102A500000093D00F8B5044600252078C007C00FE6
:102A6000002871D0F94840680C21084004280BD098
:102A7000F64840680840082812D1F448406801210F
:102A80000904084088420BD1F0480068012149043C
:102A9000084000286BD06068002868D10120F8BD8C
:102AA00000BF6068012807D1E848006801210904D7
:102AB0000843E649086031E0606800280ED1E34829
:102AC0000068012109048843E0490860084600685D
:102AD000012189048843DD4908601FE060680528FA
:102AE0000ED1DA480068012189040843D7490860FB
:102AF00008460068012109040843D44908600DE034
:102B0000D2480068012109048843D049086008467A
:102B10000068012189048843CC49086000BF6068CF
:102B2000002812D0FFF708FE054606E0FFF704FE76
:102B3000401B642801D90320B1E7C4480068012183
:102B4000490408400028F1D011E0FFF7F5FD0546E3
:102B500006E0FFF7F1FD401B642801D903209EE742
:102B6000BA4800680121490408400028F1D1022137
:102B700020680840022861D1B44840680C21084010
:102B800000280BD0B1484068084008281BD1AF4846
:102B90004068012109040840002814D1AB480068AE
:102BA00002210840002804D0E068012801D001205B
:102BB00075E7A6480068F82188432169C9000843E1
:102BC000A24908603AE0E068002820D09F480068E9
:102BD000012108439D490860FFF7AEFD054606E068
:102BE000FFF7AAFD401B022801D9032057E79748A9
:102BF0000068022108400028F2D094480068F821BB
:102C000088432169C90008439049086016E08F484D
:102C10000068400840008D490860FFF78DFD0546BB
:102C200006E0FFF789FD401B022801D9032036E7A3
:102C300086480068022108400028F2D10821206857
:102C40000840082831D1E069002817D07F48406A41
:102C5000012108437D494862FFF76EFD054606E005
:102C6000FFF76AFD401B022801D9032017E77748C8
:102C7000406A022108400028F2D016E07348406AFA
:102C80004008400071494862FFF756FD054606E0DE
:102C9000FFF752FD401B022801D90320FFE66B48D5
:102CA000406A022108400028F2D10421206808402F
:102CB000042871D100266548C069890608400028AB
:102CC0000DD100BF6148C06908436049C86108462A
:102CD000C06909040840009000BF00BF01265C489D
:102CE0000068FF2101310840002816D158480068CB
:102CF000084357490860FFF71FFD054606E0FFF748
:102D00001BFD401B642801D90320C8E65048006819
:102D1000FF21013108400028F1D000BFA068012840
:102D200006D14A48006A01210843484908622BE05D
:102D3000A06800280CD14548006A4008400043497B
:102D400008620846006A04218843404908621BE083
:102D5000A06805280CD13D48006A042108433B497E
:102D600008620846006A01210843384908620BE0FE
:102D70003648006A40084000344908620846006A44
:102D8000042188433149086200BFA068002813D09D
:102D9000FFF7D2FC054608E029E0FFF7CDFC401B19
:102DA0002C49884201D9032079E62848006A02218B
:102DB00008400028F1D011E0FFF7BEFC054607E00F
:102DC000FFF7BAFC401B2349884201D9032066E67D
:102DD0001E48006A022108400028F1D1012E05D1C9
:102DE0001A48C069310788431849C86100BF1021DB
:102DF0002068084010285FD1606901282CD1134851
:102E0000406B04210843114948630846406B012187
:102E100008430E494863FFF78FFC054606E0FFF7BD
:102E20008BFC401B022801D9032038E60748406B81
:102E3000022108400028F2D00448406BF821884362
:102E4000A169C90008430149486335E00010024008
:102E500000700040881300006069401D00280FD1F9
:102E60004E48406B042188434C4948630846406BF8
:102E7000F8218843A169C9000843484948631BE019
:102E80004648406B04210843444948630846406B68
:102E9000400840004863FFF74FFC054606E0FFF797
:102EA0004BFC401B022801D90320F8E53B48406B4E
:102EB000022108400028F2D1206A00286CD037484F
:102EC00040680C210840082864D0206A022847D1B5
:102ED0003248006801210906884330490860FFF73D
:102EE0002BFC054606E0FFF727FC401B022801D912
:102EF0000320D4E52948006801214906084000283C
:102F0000F1D100BF2548C06A00090001E16A084309
:102F10002249C862616AA06A0843204949683D2283
:102F20001204914308431D49486000BF08460068E9
:102F300001210906084319490860FFF7FDFB054612
:102F400006E0FFF7F9FB401B022801D90320A6E5A4
:102F5000124800680121490608400028F1D01BE012
:102F60000E4800680121090688430C490860FFF7F4
:102F7000E3FB054606E0FFF7DFFB401B022801D913
:102F800003208CE505480068012149060840002817
:102F9000F1D101E0012082E5002080E5001002402F
:102FA00010B50446002C01D1012010BD3D20005D6C
:102FB000002805D100213C200155204600F00CF8E6
:102FC00002213D200155211D206800F0D3FA012186
:102FD0003D2001550020E8E77047014602223D20D0
:102FE000425408680068012210430A6810600122F8
:102FF0003D2042540020704730B504460D46012262
:103000002946206800F006FB1149206888420BD051
:1030100010492068884207D00F492068884203D0B1
:103020000E492068884201D1012000E000200028DC
:1030300006D02068406C0121C90308432168486418
:10304000206800680121084321680860002030BD25
:10305000002C014000400140004401400048014074
:1030600030B504460D4600222946206800F0D2FA09
:103070001F49206888420BD01E492068884207D02B
:103080001D492068884203D01C492068884201D12C
:10309000012000E00020002814D000BF2068006A52
:1030A0001749084000280CD12068006A89100840A0
:1030B000002806D12068406C0121C903884321689B
:1030C000486400BF00BF2068006A0D49084000281E
:1030D0000BD12068006A89100840002805D12068BB
:1030E0000068400840002168086000BF002030BD33
:1030F000002C0140004001400044014000480140D4
:103100001111000010B50446002C01D1012010BDA2
:10311000A069002800D000E000BF6920005D002801
:1031200005D1002168200155204600F02CF824210B
:103130006920015520680068400840002168086047
:10314000204600F0FDFA012800D1E0E7606A00287F
:1031500002D0204600F06CFA206840680121C902C4
:103160008843216848602068806808218843216876
:1031700088602068006801210843216808602046B3
:1031800000F0CEFAC3E7704730B503680C464C43F5
:1031900065006419A3430C464C4354432343036026
:1031A00030BD10B543688B430C4654432343436002
:1031B00010BD30B5C3680C464C4365006419A34389
:1031C0000C464C4354432343C36030BD70B50246A4
:1031D000104B1B689B079B0F032B14D00123DB06AE
:1031E000002007E084001C59850001267607AD19F0
:1031F0002C60401C2D28F5DB064C246803252C434D
:10320000044D2C6000BF9300012464071B1919644E
:1032100070BD00000000014010B5012000F018F85A
:1032200000280AD100F014F8002806D100F052F866
:10323000002802D101A001F085F910BD5365745337
:103240007973436C6F636B206661696C65640A0017
:1032500010B590B00446302104A8FDF7AEFC002064
:1032600000900190029003900120009000200190B6
:1032700001216846FFF7AAFA002802D0002010B00A
:1032800010BD01200490002C01D1059001E0052023
:10329000059002200C90C1030D9101210F91052191
:1032A000C9040E9104A8FFF7D5FB002801D0002027
:1032B000E5E7072000900220019000200290039093
:1032C00001216846FFF782FA002801D00020D6E7E6
:1032D0000120D4E700B591B00220059000200690AF
:1032E0000790012008901020099000200A901020DB
:1032F0000B9000200C9002200D9000210E910121D6
:1033000010910521C9040F9105A8FFF7A3FB002820
:1033100002D0002011B000BD0720019002200290D1
:10332000002003900490012101A8FFF74FFA002824
:1033300001D00020EEE70120ECE7000038B504469C
:103340000025230000F03CFD06041727375B495B8E
:103350000925ED0600BF2D484069012149040843B5
:103360002A49486108464069012149040840009003
:1033700000BF00BF46E0264D00BF24484069290237
:1033800008432249486108464069290208400090E4
:1033900000BF00BF36E01F4D00BF1C484069290236
:1033A00008431A49486108464069290208400090CC
:1033B00000BF00BF26E0184D00BF1448406901213E
:1033C000090508431149486108464069012109057A
:1033D0000840009000BF00BF14E0104D00BF0B4834
:1033E0004069012189050843084948610846406948
:1033F000012189050840009000BF00BF02E008A03D
:1034000001F0A0F800BF284638BD000000100240BF
:103410000004004800080048000C00480014004860
:1034200050696E6D6170206572726F723A207772AA
:103430006F6E6720706F7274206E756D6265722E8C
:1034400000000000F8B500250024002600272448CD
:1034500040680C2108400546002D04D0042D06D0FC
:10346000082D2BD107E01F481F4908602AE01D489E
:103470001D49086026E01A4840680F218904084069
:103480000446174840680121090408400646A00C7C
:10349000841C1348C06A0007000F471C0846864278
:1034A00007D139460F48FDF7CFFB60430E4908604E
:1034B00003E00E4860430C49086003E009480A49EC
:1034C000086000BF00BF06484068F02108400009BE
:1034D00007490D5C04480068E84003490860F8BDEE
:1034E0000010024000127A003801002000093D005F
:1034F000405F00081C480068012108431A49086021
:10350000084640681949084017494860084600685D
:1035100017490840144908600846006801218904D9
:10352000884311490860084640683F2109048843E0
:103530000D4948600846C06A00090001C862084693
:10354000006BFF2114318843074908630846406B2C
:1035500040084000486300208860084680690121D7
:103560000843014988617047001002400CB8FF0809
:10357000FFFFF6FE10B500220268204B984202D0F1
:103580001F4B984205D170241346A3431A464B683B
:103590001A431A4B98420ED0194B98420BD0194B34
:1035A000984208D0184B984205D0184B984202D048
:1035B000174B984206D1032424021346A3431A460C
:1035C000CB681A4380241346A3434C6923431A460D
:1035D00002608B68C3620B688362084B984208D014
:1035E000094B984205D0094B984202D0084B9842AB
:1035F00001D10B6903630123436110BD002C01401D
:103600000004004000200040004001400044014010
:103610000048014030B5002301248C402346046A51
:103620009C430462046A15468D402C43046230BDFD
:10363000818CC907C90F002908D001684968012297
:1036400052049143826A1143026851600222416A26
:103650001140002907D001684968D2039143C26A2A
:103660001143026851600422416A1140002907D0C9
:103670000168496812049143026B1143026851606A
:103680000822416A1140002907D0016849681203E5
:103690009143426B1143026851601022416A11400C
:1036A000002907D00168896812029143826B114397
:1036B000026891602022416A1140002907D0016808
:1036C000896812029143C26B1143026891604022E3
:1036D000416A1140002915D001684968920391435D
:1036E000026C11430268516001221205016C914283
:1036F00008D101684968032252059143426C114385
:10370000026851608022416A1140002907D0016897
:10371000496812039143826C1143026851607047FB
:1037200001460020C8662022692042546A20425483
:1037300000BF00226820425400BF002070470000F4
:10374000FEB50446002510260027002002900190B7
:103750002169A068084361690843E1690843054697
:10376000206800686849084028432168086020688C
:103770004068032109038843E168084321684860E1
:10378000216AA06908430546206880680B21090268
:10379000884328432168886000BF5C4920688842CC
:1037A00017D15B48006B8007800F002806D00128E6
:1037B00008D0022808D0032808D101E0002607E03D
:1037C000022605E0042603E0082601E0102600BFDB
:1037D00006E050492068884201D1002600E010260A
:1037E00000BF0121C903E069884249D1042E20D0DD
:1037F00004DC002E07D0022E32D111E0082E25D095
:10380000102E2DD12DE0FFF7B1F840006168490876
:10381000401800906168FDF717FA80B2029023E02B
:1038200061684A083C4BD018FDF70EFA80B202904E
:103830001AE0FFF7ADF840006168490840180090B1
:103840006168FDF701FA80B202900DE061684A08F4
:1038500001231B04D018FDF7F7F980B2029003E0B2
:1038600000BF0120019000BF00BF2C490298084012
:10387000074602980007400F07432068C76040E0F2
:10388000042E21D004DC002E07D0022E34D111E00A
:10389000082E26D0102E2FD12FE0FFF767F8616891
:1038A0004908401800906168FDF7CEF980B22168A0
:1038B000C86025E061684A08194BD018FDF7C4F9C3
:1038C00080B22168C8601BE0FFF762F861684908B0
:1038D000401800906168FDF7B7F980B22168C860B0
:1038E0000EE061684A080123DB03D018FDF7ACF94C
:1038F00080B22168C86003E000BF0120019000BFD2
:1039000000BF0198FEBD0000F369FFFF00380140D1
:1039100000100240004400400024F400F0FF0000CA
:1039200000127A0070B50546284600F04EF90446AC
:10393000002C01D0204670BD284600F049F904460D
:10394000002C01D02046F6E700F004F8F3E701462A
:103950000020704710B50E480078C007C00F00283F
:1039600013D10B4800F0ACFA00280ED04B23DB013A
:1039700003220221074800F0B3F80446064A07492B
:1039800000F08AFA024800F0EBFA024810BD00008D
:10399000200100202401002000000008293B00082D
:1039A00070B504460D46FCF783FC614201600020BF
:1039B000A900024A5050401E70BD0000E0000020E7
:1039C0000146084602220A40002A01D002200CE0EB
:1039D00004220A40002A01D0012006E008220A4001
:1039E000002A01D0092000E000200C220A40002A11
:1039F00002D001225202104304220A40002A02D0BF
:103A0000012292021043704770B5154802F0C8F9C0
:103A1000054600BF032406E0A0001249085800280C
:103A200000D102E0641C102CF6DB00BF102C0BDB75
:103A3000FCF73EFC18210160094802F0B1F9054687
:103A400000BF0020C04370BD0020C043A100054A54
:103A50005050034802F0A4F9054600BF2046F2E7A3
:103A6000C8020020E000002070B50446102C01DBE5
:103A7000002070BDA00008490D58681C002808D11E
:103A8000032C06DA2046FFF74DFF0546A100024A47
:103A900050502846EDE70000E000002003461C20BF
:103AA000C043704701461520C043704701460020BF
:103AB00070470000F8B50E4614463746002504E06E
:103AC000795D044801F03EFE6D1CA542F8D3204606
:103AD000F8BD0000DC030020014601207047000013
:103AE000F8B504460E4617461D4600BF00BF0A48FB
:103AF0000A4820600A480068002801D02046F8BD26
:103B00003A463146074801F023FD2946054801F0B1
:103B1000F9FC2046F3E700007C6400082C640008F0
:103B200034010020DC03002010B50446204600F0DC
:103B300033F8044610BD30B50A461346002B03D0B7
:103B4000856804682C6002E0C56804682C6000BFCA
:103B500000BF30BD70B50446206801220021036912
:103B6000204698470546002D01DA284670BD20689A
:103B70000222002103692046984706462068002259
:103B800029460369204698473046EFE70146002062
:103B9000704701460020704700BF00BF00BF70475C
:103BA00010B5044600212046143002F0A5F8044662
:103BB000143C204610BD10B504462046143002F0D7
:103BC000B7F80446143C204610BD0146002070475B
:103BD0000146002070470146087B7047F8B506464D
:103BE0000D461C4802F0DCF8074600BF1A4804687E
:103BF00016E0A068002812D0A068FCF75DFFA8427C
:103C00000DD12A463146A068FCF728FF002806D1CE
:103C1000104802F0C5F8074600BF2046F8BD6468AA
:103C2000002CE6D1072D0ED12A4631460BA0FCF719
:103C300015FF002807D1074802F0B2F8074600BF79
:103C400008480068EAE7034802F0AAF8074600BF00
:103C50000020E3E720020020C000002064656661C8
:103C6000756C7400C400002010B50446204600F0B6
:103C70000CF8002807D06068002802D06068001F98
:103C800010BD0020FCE70020FAE710B5044660688C
:103C9000002800D110BD6068FFF79DFF012800D10A
:103CA000F8E70020F6E710B50446204600F014F8C7
:103CB000002807D06068002802D06068001F10BD8F
:103CC0000020FCE70020FAE701464868002801D000
:103CD000012070470020FCE710B50446606800280A
:103CE00000D110BD6068FFF776FF002801D10120E8
:103CF000F7E70020F5E7014608687047F8B5044685
:103D00000D4600202060606015A12846FCF796FE55
:103D100045192F46276000260FE0216808782F28D4
:103D200003D12168491C216008E0002800D105E08A
:103D3000761C2168491C216000BFEEE700BF00BF70
:103D4000002E04D12A2207A10EA000F059FF00BFC7
:103D500031463846FFF742FF60602046F8BD00005C
:103D60002F0000002E2E5C6D6265645C706C6174C7
:103D7000666F726D5C46696C65506174682E637025
:103D8000700000006C656E20213D203000000000B6
:103D9000F8B582B28BB2040C0D0C104658430021CA
:103DA00026465E43370C36048019794116466E4329
:103DB000370C36048019794126466E438919F8BDBF
:103DC00030B47446641E2578641CAB4204D3635D32
:103DD0005B00E31830BC18471D46F8E74900CA02EB
:103DE0000243100000D004204A0D01D001221043EC
:103DF000044A490D914201D102210843012800D112
:103E000005207047FF070000002805DBC206D20E20
:103E100001219140014A11607047000000E100E07B
:103E200010B5002819DB1A4A03231B02D218830895
:103E30009B00D2588307DC0EFF23A3409A438B07D5
:103E40001B0E8407E40EA3401A43114B03242402E3
:103E50001B198408A4001A5118E00E4A03071B0F0F
:103E6000083B9B089B00D2588307DC0EFF23A3402E
:103E70009A438B071B0E8407E40EA3401A43054B9D
:103E80000407240F083CA408A4001A5110BD000028
:103E900000E100E01CED00E0034601207047FFB5A3
:103EA00081B01C4617460E0007D0019D02E028464F
:103EB000B047ED192046641EF9D2019805B0F0BD57
:103EC00070B505462C4620788007800F012801D167
:103ED000002070BD00BF00BF20788007800F012840
:103EE00003D100BF00BF0020F3E700BF20788007A8
:103EF000800F002804D0064A06A10FA000F080FE23
:103F000000BF20780221084320700120E1E7000073
:103F10008C0500002E2E5C6D6265645C706C6174B3
:103F2000666F726D5C6D6265645F72657461726705
:103F300065742E637070000030203D3D20282A6794
:103F4000756172645F6F626A6563742026204358EE
:103F5000415F47554152445F4D41534B290000009A
:103F600070B505462C4600BF20788007800F0228D8
:103F700004D0074A07A110A000F042FE00BF20783D
:103F800080088000401C207000BF00BF70BD000092
:103F9000940500002E2E5C6D6265645C706C61742B
:103FA000666F726D5C6D6265645F72657461726785
:103FB00065742E63707000004358415F475541524D
:103FC000445F494E49545F494E5F50524F475245F6
:103FD0005353203D3D20282A67756172645F6F62EC
:103FE0006A6563742026204358415F475541524417
:103FF0005F4D41534B29000010B50020FDF79CFB9D
:1040000010BD000070B50B4C02232C220A4920463B
:10401000FFF745FF04460020A065E0650021602011
:10402000015500BF2546054A05492846FFF734FFDC
:1040300070BD000068010020955C000800000008C9
:10404000C15C000870B5064D05241C212846FCF70C
:10405000B4FD2146284600F03FFB00BF70BD0000C4
:104060004C010020F0B585B004460D4616461F46AB
:104070003B4632462946204600F024F86C460FC4E1
:1040800005B0F0BDF8B507460C4615461E4621465C
:10409000384600F0FDFA601C00280BD03146384647
:1040A00000F06CFB0121384600F0E0FA2946384662
:1040B00000F026FBF8BD30380A2801D201207047F5
:1040C00000207047FFB506460F46054C6D46E01DC3
:1040D000C408E4000094029568460FC804B0F0BD1F
:1040E0003806002010B500F09BFD00F049FE10BD21
:1040F00010B50446204600F005F910BD70B506461F
:104100003046FFF7B1FC0546002D05D1FCF7D0F88D
:1041100009210160681E70BD2868816A28468847A9
:104120000446002C06DAFCF7C3F861420160002067
:10413000C043F0E700BF2046EDE710B50446204637
:1041400000F00CFD10BD0000F8B504460D461949FD
:104150002046FCF735FD002803D1FFF785FC002041
:10416000F8BD15492046FCF72BFD002804D101209D
:10417000FFF77AFC0120F3E710492046FCF720FD09
:10418000002804D10220FFF76FFC0220E8E7207826
:10419000402806D10422611C6846FCF7AFFC009859
:1041A000DEE72846FFF70CFC06463146204600F0C5
:1041B00023FED5E7AC5E0008B35E0008BB5E0008D6
:1041C000F8B504460D46002632462946204600F042
:1041D000E2FC074600BF3846F8BD0000FFB583B0DB
:1041E0000E4637490598884207D9FCF761F8162131
:1041F00001600020C04307B0F0BD05980290002484
:104200000398FFF7A4FB00283AD02E490398085CD6
:104210000190002530E0705D0A282AD101980D2810
:1042200027D0A54212DD2A1B3119039801F0E4FCC6
:104230000746002F02DA0020C043DCE7E419AC4255
:1042400000DA36E01F4A03990198505401221EA15A
:10425000039801F0D1FC0746002F02DA0020C0438A
:10426000C9E7012F00DA24E00D21164A0398115402
:1042700000BF705D01906D1C02988542CBDB00BFD2
:104280000298844214DA0298021B3119039801F053
:10429000B3FC0546002D02DA0020C043ABE76419E9
:1042A000002C04DD601E315C064A0398115400BFE7
:1042B00000BF002C02DB0298001B9CE720469AE717
:1042C000FFFFFF7FB80200200D00000003469A4266
:1042D00007D9914201D2994201D2012070470020B2
:1042E000FCE7994203D2914201D30120F6E7002076
:1042F000F4E700BFEFF31080C007C00F0121484072
:104300007047000070B506463046FFF7ADFB054626
:104310000020B1000C4A5050002D05D1FBF7C8FF1A
:1043200009210160681E70BD2868416928468847D8
:104330000446002C06DAFBF7BBFF61420160002057
:10434000C043F0E70020EEE7E0000020F0B51FB426
:104350008AB0044667687B6B3A6B0D990C98851A96
:1043600099410E4660680069039061688869C9696F
:10437000401BB1414FD32B49B868884209D10395FE
:1043800060680069039DA84245D260680069039097
:1043900041E03B20C05D00281ED060682030C27E16
:1043A0002846314604960595FBF7DDFF1D4B00229C
:1043B000C0185141401E91411A46002301910090BE
:1043C000FCF70AF80390606801690398814222D2E1
:1043D0006068006903901EE00021B8682A463346F1
:1043E0000696079508910990FBF7DEFF0D4B00221A
:1043F000C0185141401E91411A460023019100907E
:10440000FBF7EAFF0390606801690398814202D2DA
:10441000606800690390396A03980818F9680840D1
:104420000FB0F0BD40420F0000BFEFF31080C00797
:10443000C00F01214840704770B5044600F00CF8E9
:1044400025780120207000F04BF8002D01D00120CC
:1044500070BD0020FCE7000010B500BF09480068EF
:10446000401C002804D1512207A110A000F0C8FB75
:1044700000BF00F097F903480068401C014908603C
:1044800010BD0000C80000202E2E5C6D6265645CCB
:10449000706C6174666F726D5C6D6265645F63728F
:1044A00069746963616C2E63000000006372697453
:1044B0006963616C5F73656374696F6E5F72656574
:1044C0006E7472616E63795F636F756E746572206E
:1044D0003C2055494E5433325F4D41580000000096
:1044E00010B509480068002800D110BD06480068D2
:1044F000401E0549086008460068002801D100F008
:1045000067F900BFF1E70000C800002000BFEFF32B
:104510000580002801D0012070470020FCE7000042
:104520000FB408B503A800900548009A0299FBF75C
:10453000D4FF0020009001B008BC04B01847000070
:10454000CC0500200FB41CB50E48FFF775FF0028FE
:1045500016D1039C00231A4619460B48009400F01C
:1045600073F900231A4609A10E4800F049FE05A878
:1045700001900199049800F0C3FB0020019000BF56
:1045800000F0DAFBCC0000200001FF80466174617E
:104590006C2052756E2D74696D65206572726F7234
:1045A000000000006402002004460948FCF719F9E5
:1045B0000848FCF716F9012000F01DF8022000F071
:1045C0001AF8002C01D000F02CFB00BFFEE7000021
:1045D00078050020CC05002010B58A68002A02DC8E
:1045E000FCF754FE10BD521E8A604A68C0B2531CCC
:1045F0004B60107010BD70B506463046FFF734FAB8
:104600000546002D05D1FBF753FE09210160681E08
:1046100070BD28688169284688470446002C06DA60
:10462000FBF746FE614201600020C043F0E7002036
:10463000EEE70000024600210848824201D148B25C
:104640007047481CC1B20648824201D148B2F7E720
:10465000481CC1B20020C043F2E70000003801400E
:1046600000440040004870479C5E000870B5044656
:104670000D46002D05D10022A1696069FEF784FD79
:1046800004E00122A1696069FEF77EFD70BD0000B3
:10469000F8B504460D462582681C002800D1F8BDF7
:1046A0002806070F3846FEF749FE0646284600F062
:1046B00031F820606661207C0007800E05490858AB
:1046C000A0613046103060600830A0601030E060BB
:1046D00000BFE4E7D45E000870B504460D46002232
:1046E0002946204600F001F870BD70B505460E461B
:1046F00014462346002231462846FFF7C3FC70BD0E
:1047000070B504460D461020205E294600F06CFC72
:1047100070BD000010B5044600BF601C002804D125
:10472000762207A110A000F06BFA00BF00212046FE
:1047300000F0BEFB2107090F0120884010BD0000DA
:104740002E2E5C6D6265645C746172676574735C67
:104750005441524745545F53544D5C6770696F5FD5
:104760006170692E6300000070696E20213D202871
:1047700050696E4E616D65294E430000002903D0DB
:10478000836802681A6002E0C36802681A607047B2
:10479000002903D0836802681A6002E0C3680268D7
:1047A0001A60704710B5FFF7A4FD044672B60648BC
:1047B0000078012800D110BD04480470012002498E
:1047C000087000BFF7E70000B9000020B800002023
:1047D00010B500BFFFF78DFD002804D0362207A1D9
:1047E00010A000F00DFA00BF002015490870154810
:1047F0000078012800D162B610BD00002E2E5C6D3D
:104800006265645C68616C5C6D6265645F6372695B
:10481000746963616C5F73656374696F6E5F617007
:10482000692E6300216172655F696E7465727275CD
:104830007074735F656E61626C65642829000000A6
:10484000B9000020B8000020F0B58DB004460D4638
:104850001746129E002C00DB144C34216846FCF7EE
:10486000ACF9009401960295FFF7F6FD1048006838
:10487000401C0F49086008460068012804D1342212
:1048800069460C48FBF7EAFC342269460A48FBF704
:10489000E5FC0A480068002803D007480749096872
:1048A0008847FFF71DFE00200DB0F0BD0101FF801D
:1048B000D00000203002002064020020D40000203C
:1048C00008B500BF2D4880690121C90208432B4962
:1048D000886108468069C9140840009000BF00BF85
:1048E0002648C06808432549C8600846C068C914FE
:1048F00088432249C860FEF7A5FD21482149086088
:1049000021492048C160214921480068FCF79CF9F1
:10491000401E1C49486000211A48016181604161C4
:104920008161FEF73DFB00211648FEF765FB194942
:104930000D20FEF74BFC0D20FFF766FA00210D203D
:10494000FFF76EFA14490E20FEF740FC0E20FFF729
:104950005BFA01210E20FFF763FA0A48FEF73DFBE0
:1049600008480068C0680221884306490968C86091
:1049700000200A4908600A49086008BD001002408A
:10498000002C014000040020FFFF000040420F0007
:104990003801002029590008ED580008280100209E
:1049A0002C01002070B505462E46702170684843E2
:1049B0001649441830682060B0686060F168A160F2
:1049C0003169E16071692161F169A1610021E161F1
:1049D00052200153502001535A20015358200153B3
:1049E0001A20305E401C002802D10821616109E0D4
:1049F0001820305E401C002802D10421616101E0D2
:104A00000C2161612046FEF77DFB70BD4004002053
:104A1000F0B589B0044660682030007E002801D0DF
:104A200009B0F0BD60682030807E002800D0F7E734
:104A30002168086880472168C8698047064635684C
:104A40003068002805D100BF2D223AA141A000F016
:104A5000D7F8002005901F2007E001218140A942DE
:104A600001D1059003E0411EC8B20028F5DC00BF6B
:104A700077687068202802D87068042805D200BFC3
:104A80003B222CA133A000F0BBF8391F072088403F
:104A9000049031490498FFF77BF9002240195141F5
:104AA000401E91412A46002301910090FBF794FC9F
:104AB0000391029000206168086061684860216885
:104AC0004868804761680862002162689162D1622B
:104AD00060688560059861682031C8763A46012192
:104AE00000200791069008460699FBF73CFC401E03
:104AF0006168C860049861680861039902986268F7
:104B0000D161906100206268106350630021606889
:104B10002030417660682030817601216068203045
:104B20000176204600F008FF204600F06DFC00BF33
:104B300076E700002E2E5C6D6265645C68616C5CDB
:104B40006D6265645F7469636B65725F6170692E25
:104B5000630000003000000040420F0070B50646C0
:104B60003046FEF781FF0546002D05D1FBF7A0FB7F
:104B700009210160002070BD2868C1692846884766
:104B80000446002C05DAFBF793FB6142016000202C
:104B9000F1E72046EFE7F7B506460F463046FEF749
:104BA00063FF0546002D05D1FBF782FB092101605B
:104BB000681EFEBD2868036939462846029A984750
:104BC0000446002C06DAFBF773FB6142016000200B
:104BD000C043EEE72046ECE70DE001210648FEF772
:104BE000AAFF064800F0DEFF00210348FEF7A3FFFE
:104BF000024800F0D7FFF0E74C010020CDCC4C3E3E
:104C000008B504460D461646FFF726FC2B46002243
:104C100021460248009600F035F800004401FF806C
:104C2000704788B0FFF718FC052101A8FFF754FD75
:104C300027E000240EE0012101A8FFF7A9FD96203E
:104C400000F0C0FF002101A8FFF7A2FD962000F0B0
:104C5000B9FF641C042CEEDB002410E0012101A844
:104C6000FFF796FDFF20913000F0ACFF002101A876
:104C7000FFF78EFDFF20913000F0A4FF641C042C90
:104C8000ECDBD6E71CB506460F4614461D460B481E
:104C9000FFF7D2FB00280ED10398019000902A461E
:104CA00021463046049BFFF7CFFD2A46394604488B
:104CB000049B00F0A5FA00F03FF80000CC000020B3
:104CC000640200200FB408B503A800900099029870
:104CD00000F016F80020009001B008BC04B018479E
:104CE00070B50446FFF7B8FB2046FBF7E5FE054626
:104CF0002A462146022000F07FFFFFF7F1FB70BD3E
:104D000033B5A1B00446224684216846229BFBF7B6
:104D1000EBFB0546842D05D3052206491FA8033069
:104D2000FBF7ECFE002D02DD6846FFF7D9FF23B04C
:104D300030BD0000A45E00080F48FFF77DFB00288F
:104D40000CD0FFF789FB00BF00BF00BFBFF34F8F40
:104D500000BF00BF00BF00BF20BFFDE7FFF7D6FBCD
:104D6000002803D1FFF760FB002801D1FFF759FFAE
:104D70000120FFF719FC0000CD0000207047000063
:104D800000B58DB0FEF75EFBFDF708FDFEF744FAB7
:104D9000FEF758FB302101A8FBF70FFF0C48006A13
:104DA00003210902084000280DD0082001900020AE
:104DB00009900120089001A8FDF74CFE002802D0C0
:104DC00004A0FFF7BFFB01200A4908600DB000BD39
:104DD00000100240496E6974203A2063616E6E6F64
:104DE0007420696E697469616C697A65204C5349F5
:104DF0000A000000300100200FB4F0B585B0FEF7C6
:104E000003FE0446002C05DA204605B0F0BC08BCC1
:104E100004B018470020049002A80A99FEF76EFF1C
:104E200002A8FEF751FF002805D121461220C043F9
:104E3000FEF7B6FDE9E702A8FEF74EFF002804D012
:104E400002A8FEF730FF049021E002A8FEF70CFF55
:104E50000646002E05D121461220C043FEF7A0FDD4
:104E6000D3E7354602A8FEF746FF0090286887681A
:104E700004A928460B9B009AB84701900198002886
:104E800004D021460198FEF78BFDBEE700BFA100CC
:104E9000044A049850500020034908550349085516
:104EA0002046B2E7E0000020A8020020B80200205F
:104EB000F0B585B006460F4600BF701C002804D12F
:104EC0003E2239A141A0FFF79BFE00BF7807400FAB
:104ED00003903805000F02903006000F0190300754
:104EE000800E3F490C58002000900198FEF726FAEA
:104EF00005460320A968224662435300D218914315
:104F00002246624342431143A96000BF0398002830
:104F100006D0012807D0022808D0032811D10DE0BF
:104F20000020009013E00120009010E0022000908B
:104F300031462846029A00F049FC08E00320009020
:104F400005E000BF672218A126A0FFF759FE00BFA9
:104F500000982968224662435300D21891432246A2
:104F6000624342431143296000BF0398012802D0E5
:104F7000039802280ED13807C00F002805D001225F
:104F800021462846FEF70DF904E000222146284676
:104F9000FEF707F9B806820F2146284600F0F8FB15
:104FA00000BF00BF05B0F0BD2E2E5C6D6265645C75
:104FB000746172676574735C5441524745545F5322
:104FC000544D5C70696E6D61702E630070696E2067
:104FD000213D202850696E4E616D65294E430000C9
:104FE000D45E000830000000FEB507460C4600BF46
:104FF000781C002804D1882228A131A0FFF700FEE8
:1050000000BF3806000F02903807800E31490D5856
:105010000298FEF793F9019000BF019800682946B5
:1050200069434A00891808400090284668430346AF
:1050300019460098FBF708FE064600BF012E01D076
:10504000022E10D1042C03D0032C01D0052C05D145
:10505000012229460198FEF7A4F804E0002229461F
:105060000198FEF79EF8032C01D0012C05D10122F6
:105070002946019800F08CFB0EE0052C01D0022C93
:1050800005D102222946019800F082FB04E00022AB
:105090002946019800F07CFBFEBD00002E2E5C6DC1
:1050A0006265645C746172676574735C54415247F5
:1050B00045545F53544D5C70696E6D61702E630092
:1050C00070696E20213D202850696E4E616D652902
:1050D0004E430000D45E0008024606E00020085E51
:1050E000904201D1486870470C310020085E401C96
:1050F0000028F3D1401EF6E738B505460C46A54218
:1051000001D1284638BD681C002801D12046F9E7A6
:10511000601C002801D12846F4E7002003462A46F7
:1051200002A100900648FFF7ADFD000070696E6DAA
:105130006170206D69732D6D6174636800000000FB
:1051400030010180F8B505460E460024E443681C92
:10515000002801D1401EF8BD31462846FFF7BCFFAC
:1051600004460020C043844207D100200346224663
:1051700003A100900A48FFF785FD2046EBE70000F9
:1051800070696E6D6170206E6F7420666F756E64ED
:1051900020666F72207065726970686572616C005C
:1051A0003001018038B505460C46681C002800D146
:1051B00038BD0DE00020205EA84208D12846A16835
:1051C000FFF776FE00212846FFF70EFFF0E70C34CC
:1051D0000020205E401C0028ECD103462A4602A194
:1051E00000900648FFF74EFD636F756C64206E6F8C
:1051F000742070696E6F75740000000030010180CA
:10520000FFB581B004460E461546032149072068C4
:1052100008404017032802D12068404201E020885E
:1052200080B20746FF21090420680840001400905E
:1052300021683A463448009BFFF744FDFF21363190
:10524000781A8F4229D00BDC3846FF3832380028D4
:105250000FD0012812D0022815D0032835D117E02D
:10526000012824D002281DD0032825D00F282CD1B6
:1052700027E026A0A168FFF725FD27E029A0A16867
:10528000FFF720FD22E02BA0A168FFF71BFD1DE02A
:105290002CA0A168FFF716FD18E02FA0A168FFF76A
:1052A00011FD13E031A0A168FFF70CFD0EE034A062
:1052B000A168FFF707FD09E035A0A168FFF702FD2F
:1052C00004E039A0FFF7FEFC00E000BF00BF30465D
:1052D000FFF706FD39A06168FFF7F4FC002D09D047
:1052E0003AA0FFF7FDFC2846FFF7FAFC39A0049925
:1052F000FFF7E8FC38A0A168FFF7E4FC3BA0FFF74C
:10530000E1FC05B0F0BD0000046500084B65726E5D
:10531000656C204572726F723A20307825582C20C7
:10532000000000005468726561643A2030782558A6
:105330002C2000004D757465783A20307825582C63
:105340002000000053656D6170686F72653A20300F
:105350007825582C200000004D656D6F7279506FD4
:105360006F6C3A20307825582C2000004576656E09
:1053700074466C6167733A20307825582C20000001
:1053800054696D65723A20307825582C2000000051
:105390004D65737361676551756575653A20307841
:1053A00025582C2000000000417373657274696FEA
:1053B0006E206661696C65643A2000000A4C6F6378
:1053C0006174696F6E3A2030782558000A46696C1E
:1053D000653A20002B2564000A4572726F722056D0
:1053E000616C75653A203078255800000A2D2D2013
:1053F0004D6265644F53204572726F7220496E662C
:105400006F202D2D0A000000F0B585B004466568B8
:105410003A20405D002804D160682030407E00289A
:1054200001D005B0F0BD204600F086FA6068406803
:10543000002838D06068416B006B0391029060686F
:10544000416803C901910090019B009A0399029859
:10545000801A994103D3216848698047E1E72046D3
:10546000019B009AFEF772FF064600BF286AB04211
:1054700005D1FF22093212A119A0FFF7C1FB00BF1D
:105480002068016930468847216848688047074698
:1054900032463946286AFEF719FF002802D02168F3
:1054A000486980470AE02969286A4018E968084085
:1054B0000646206801693046884700BF00BFB0E754
:1054C0002E2E5C6D6265645C68616C5C6D62656407
:1054D0005F7469636B65725F6170692E63000000C1
:1054E0006D617463685F7469636B20213D20717521
:1054F0006575652D3E7469636B5F6C6173745F7273
:105500006561640070B504460D462646B5602046C8
:10551000FFF748FA002803D0294602A0FFF700F859
:1055200070BD000043616E6E6F7420696E697469AE
:10553000616C697A652055415254207769746820FE
:105540006261756420726174652025750A0000002F
:10555000F0B585B007460D4616463C460020039040
:105560004D492846FFF7EEFD02904C493046FFF7C3
:10557000E9FD019001990298FFF7BEFD206000BF90
:105580002068401C002804D13D2245A14EA0FFF711
:1055900037FB00BF022D01D0032E02D10120039062
:1055A00009E03D490220FFF7CDFD0299884202D172
:1055B0004CA0FEF7C7FF5949206888420FD100BFB1
:1055C0005748806901218903084355498861084685
:1055D0008069012189030840009000BF00BF514944
:1055E000206888420FD100BF4D48C069012149049D
:1055F00008434B49C8610846C06901214904084075
:10560000009000BF00BF2068FFF714F8606000BF83
:105610006068002804DAA42221A143A0FFF7F0FA71
:1056200000BF1D492846FFF7BDFD1C493046FFF766
:10563000B9FD681C002803D001212846FFF7D4FCDF
:10564000701C002803D001213046FFF7CDFC4B2011
:10565000C001A0600398002803D04B20C001A060C7
:1056600002E04B20C001A0600020E060206160618A
:10567000E061258366833846FFF794F90398002894
:1056800007D001202D490860242239462C48FAF71A
:10569000E5FD05B0F0BD0000A4610008E061000870
:1056A0002E2E5C6D6265645C746172676574735CF8
:1056B0005441524745545F53544D5C736572696160
:1056C0006C5F6170692E63006F626A5F732D3E7557
:1056D00061727420213D2028554152544E616D6500
:1056E000294E43004572726F723A206E65772073BF
:1056F000657269616C206F626A65637420697320EA
:105700007573696E672073616D6520554152542031
:10571000617320535444494F000000000038014099
:1057200000100240004400406F626A5F732D3E69C2
:105730006E646578203E3D2030000000340100207A
:10574000DC030020F8B504460D462646702170683B
:1057500048430649471800BF204600F009F80028D2
:10576000FAD0E8B239680885F8BD0000400400208E
:1057700010B501460B46702458686043034C02196B
:105780001068C06980242040C00910BD400400207A
:1057900070B505460E461446012C02D0022C0CD1E1
:1057A00005E0012231462846FDF703FD0BE0022209
:1057B00031462846FDF7FDFC05E00022314628462B
:1057C000FDF7F7FC00BF00BF70BD000070B50346D9
:1057D0000E463107890E174C60583107090F07290B
:1057E00015D900BF010A4943040A6143040A614311
:1057F0000C01641A596AA143040A6443050A6C4304
:10580000050A6C4354432143596200BF11E000BFB5
:10581000196A044644434443444325012C1BA143D5
:10582000044644434443444354432143196200BF64
:1058300000BF70BDD45E000870B50446FEF70CFED4
:105840002168C868804760682030807E002802D0C8
:10585000FEF746FE70BD012160682030417621E0F0
:1058600060684068002800D11DE0204600F064F820
:105870006068436B026B406801684068511A83415D
:105880000FD36068456860684068C06861684860B8
:1058900060680068002803D0A868626811688847BB
:1058A00000E000E0DCE700BF0021606820304176C6
:1058B0002046FFF7A9FDFEF713FE00BFCAE710B5AB
:1058C0000446204600F001F810BD10B504462046FD
:1058D000FFF79EF8FEF7C0FD204600F02DF8FEF71A
:1058E000FFFD6168086B496B10BD000010B50C48E6
:1058F0000C49086008460068006902210840400819
:1059000000280CD007480068C068084040080028FC
:1059100005D0481F03490968086100F01BF910BD54
:10592000002C014000040020014802490860704733
:10593000002C014000040020F1B596B01698446890
:105940003A20005D002801D017B0F0BD1699096813
:1059500048688047069016984068016A0698814218
:1059600000D1F1E7216A0698401AE1680840002159
:1059700005910490069820625049A068884204D19D
:1059800005990498039102908DE03B20005D00286A
:1059900044D04A4B0022059904980B930A920C912B
:1059A0000D901A460A9BFAF7FFFC019100903B20EC
:1059B000005D009D019A0992024628460999FAF76E
:1059C000E2FC039102903B20025DE76AA66A02991D
:1059D00003980891079008460799FAF7C4FC009DC0
:1059E000019A281A8A4130185741E762A0620021C3
:1059F000E36AA26AA068101A8B410ED30023029EAC
:105A00000398711C5841029103900022A36AE16A35
:105A1000A068181A9141E162A06244E0274B00227D
:105A20000599049813931292149115901A46129B9B
:105A3000FAF7BAFC01910090A6683246002301995A
:105A40000098FAF7C9FC039102900023E76AA66A5E
:105A5000A26803990298109311920E910F9010462C
:105A600019460E9B0F9AFAF79FFC009B019A181A91
:105A70008A4130185741E762A0620021E36AA26AB6
:105A8000A068101A8B410DD30022029E0398711C4E
:105A9000504102910390A36AA168E06A591A9041AB
:105AA000A162E06200BF236B616B029A03989A18AF
:105AB00041412263616300BF46E7000040420F009E
:105AC0000220C043014909680861704700040020B2
:105AD00004480068C0680221884302490968C86018
