:020000040800F2
:100000000010002091020008990200089B020008DD
:1000100000000000000000000000000000000000E0
:100020000000000000000000000000009D02000829
:1000300000000000000000009F020008A10200086C
:10004000A302000800000000A3020008A3020008A9
:10005000A3020008A3020008A3020008A3020008EC
:1000600000000000A3020008A3020008A302000889
:10007000A3020008A3020008A30200080000000079
:10008000A30200080000000000000000A302000816
:1000900000000000A3020008A3020008A302000859
:1000A00000000000A302000800000000A3020008F6
:1000B00000F002F800F0C3F80CA030C8083824188B
:1000C0002D18A246671EAB4654465D46AC4201D190
:1000D00000F0B5F87E460F3E0FCCB64601263342FF
:1000E00000D0FB1AA246AB4633431847005200002B
:1000F00020520000103A02D378C878C1FAD85207CB
:1001000001D330C830C101D504680C6070470000CD
:100110000023002400250026103A01D378C1FBD823
:10012000520700D330C100D50B60704710B56E295F
:1001300002D100F08AFF10BD702902D100F063FAED
:1001400010BD662902D104F04FFF10BD652902D110
:1001500004F04AFF10BD672902D104F045FF10BD2D
:10016000612902D104F048FF10BD03681B0A01D3C6
:1001700080231943692902D100F0D0F910BD642908
:1001800002D100F0CBF910BD752902D100F0C6F9FB
:1001900010BD6F2902D101F05DF810BD782902D1A0
:1001A00000F01EFA10BDE92902D100F0F9FF10BDE0
:1001B000E42902D100F0F4FF10BDF52902D100F0CE
:1001C000EFFF10BDEF2902D101F050F810BDF82962
:1001D00002D100F013FA10BD0368DB0901D38023BC
:1001E0001943632902D101F092FE10BD732902D197
:1001F00001F095FE10BDE32902D101F09FFE10BD74
:10020000F32902D101F0A2FE10BD002010BD1FB5E0
:100210000098019900F02BFE01F004FF040000207B
:10022000002104F019FE401C60600020002104F051
:10023000FDFDE06001F0E0F900F0B2FD1FBD03F04C
:1002400005FB114603B403F02BFB03BCFFF7DFFFF4
:1002500002F04BFA03F0D0FC70B505460C4616468A
:1002600002E00FCC0FC5103E102EFAD2082E02D39A
:1002700003CC03C5083E042E07D301CC01C5361FAD
:1002800003E021782970641C6D1C761EF9D270BDC4
:100290000448804704480047FEE7FEE7FEE7FEE724
:1002A000FEE7FEE745300008B1000008004870474F
:1002B0006404002070B5064600F0BCFD05683046B9
:1002C0000B30C408E400B44201D8002070BD686857
:1002D0002A46002818D00168A14211D30B462146B6
:1002E00008318B4208D3436801194B6003681B1B1C
:1002F0000B605160046001E041685160001D70BDF9
:10030000024640680028E6D12146284600F09AFDC2
:100310000028DCD170BD70B50446051F00F08AFDD1
:100320000068002C1AD0446801E020466468002C64
:1003300001D0AC42F9D301680A18AA4204D12A6854
:1003400005468918016000E0456028684119A1420E
:1003500005D16168696021684018286070BD6C60D3
:1003600070BD10B5202A04DB0146203A91400020E0
:1003700010BD914020239C1A0346E340194390404E
:1003800010BD10B5202A04DB0846203AD0400021D9
:1003900010BD0B462024D340D040A21A9140084300
:1003A000194610BD4343514330B55C18010C130C82
:1003B0000D4692B25D4380B251432C190546554318
:1003C0000A0C09044D1962415843010C00044019FC
:1003D000514130BDFEB5054610460C46184373D05A
:1003E000AE468C460020AD1A01469C4167D3664656
:1003F000002701243D46B61A9D4102D313463A46D2
:100400002124654676462F04360C3E432D0CB61A41
:100410009D4104D3150C1B042B4312041034654674
:1004200076462F06360A3E432D0AB61A9D4104D35E
:10043000150E1B022B4312020834654676462F0721
:1004400036093E432D09B61A9D4104D3150F1B01F1
:100450002B431201241D65467646AF07B6083E437E
:10046000AD08B61A9D4104D3950F9B002B43920013
:10047000A41C65467646EF0776083E436D08B61A1B
:100480009D411AD392185B41641C16E00018764611
:1004900065464941B71A9D410191009009D36046D4
:1004A000B11A98418E468446009801990025401C57
:1004B0006941DD0752082A435B08641EE6D572468F
:1004C000634603B0F0BDFFE700200146C046C046CA
:1004D0002A462346F5E710B50B460146184600F0BC
:1004E000EDFD10BD7CB51D4616460C00009001D0F8
:1004F0000019401E084B7B442A466946019030464D
:1005000000F0BBFD002C054603D06946002000F03A
:10051000C7FD28467CBD0000B10B0000F7B50025E3
:1005200075291068009914A611D000F0FBFC002872
:1005300002DA404211A608E0009909688A0701D54D
:100540000FA602E0490704D50EA6012501E000F040
:10055000F2FC009F0024243704E001F0EBF8303176
:100560003955641C0028F8D12B46324621460098A4
:1005700000F013FDFEBD0000000000002D00000093
:100580002B00000020000000F8B50F460188090587
:1005900002D5224C7C4402E0204C7C440E340546BB
:1005A0000021243508E016071209360FA65D6E54A7
:1005B0001E0732431B09491C16461E43F3D122462F
:1005C00004780023240705D5702F06D0002901D018
:1005D0000223113200F0E1FCF8BD01231032F9E7EB
:1005E00070B504460D462146106800F0A4FC0023B7
:1005F000024629462046FFF7C7FF70BDD21DD3082B
:10060000DB000CCBC0E730B403682024126823431E
:1006100003600823C36130BC0023B5E7704B0000C2
:10062000F3B50446002081B020622046E168884787
:10063000002872D0252802D06268A168ABE0594F2B
:1006400000267F442046E16888472028054608DBCD
:10065000312D06D2781920380078002801D00643C1
:10066000F0E7B00701D5042086430020E06107468B
:10067000A0612A2D0AD0284603F002F9002827D0CD
:10068000B8000019303D0090856119E00298BA0069
:10069000121902C8916102902046E1688847012F33
:1006A000054617D1E06900281FDA202086431CE0A8
:1006B00000980A21806948430099401930388861C0
:1006C0002046E1688847054603F0DAF80028EFD1B4
:1006D000012F0AD02E2D08D12046E1688847054613
:1006E000202006437F1C022FC3DBA069002803DA09
:1006F0004042A06101200643F00701D0102086434C
:100700006C2D0BD0682D09D04C2D3CD06A2D38D0E3
:10071000742D38D07A2D36D016E040E0E1682F46AF
:1007200020468847B842054609D16C2F29D00120C0
:100730008002E168064320468847054604E06C2FA6
:100740001DD0FF2001300643002D28D02846413817
:10075000192803D80120C002064320352046266010
:100760002946029A1646FFF7E1FC002810D001281E
:100770000BD0F61DF008C0000830029055E740206D
:10078000E1E78020D5E70020D3E7361D02964CE74D
:1007900062682846A1689047206A401C44E7206AA6
:1007A000FEBD0000EA4A000070B50446C06881073B
:1007B00013D0800601D5A56A04E0A16960684018DD
:1007C0002169451A204600F0CFFE00220646294640
:1007D000204600F01DF8304670BD002070BD70B599
:1007E000002802D0FFF7E0FF70BD0025074C6E1E09
:1007F00008E02046FFF7D8FF002800D03546206DDE
:1008000044086400002CF4D1284670BD6804002020
:10081000F8B5044616460D464769007B800730D080
:10082000384603F05BF800282BD132461026002A08
:1008300025D0012A02D0022A23D104E0204600F06C
:100840001BFE45191BE0384603F032F8E1683143DE
:100850000028E16004DA204600F056FE0120F8BDD1
:10086000C9030BD56268E16A914200D81146A269BA
:1008700089182269891A814200DD08462D18002D49
:1008800001DA0220F8BDE16A6068E268814206D2BE
:100890009103E06203D5012149048A433243A669EA
:1008A000AE4211DCE16A814201D90B4600E0034609
:1008B0009F192369FF1AAF4206DD814201D90F4615
:1008C00000E007469F4206D1202002430020A0609E
:1008D000A56220600DE0AD1BE669AE1B8142A660FB
:1008E00000D90846C01A281A2060581960602020D4
:1008F0008243034802400020E26040342072F8BD89
:10090000BFCFD7FFF7B516460C46104600F06EF87D
:100910002078611C61280AD0722802D0772839D14A
:1009200002E00125002404E00225042401E02D4D0D
:1009300008240222032301270878491C2B2806D00B
:10094000622807D02039C87F742807D008E01D43EB
:100950001443F1E7042005433C43EDE71020044332
:100960000098214602F0BEFF411C13D000213161E6
:1009700071600121F5604902F1617061200704D5C1
:10098000304602220021FFF743FF306D38433065C7
:100990003046FEBD0020FEBDF8B50D460646124CA1
:1009A000206DC10704D0410804D044086400F7E773
:1009B000224610E05420FFF77DFC070010D0790894
:1009C000206D490001221143084354212065384617
:1009D00000F0F1F83A4629463046FFF793FFF8BD9C
:1009E0000020F8BD0280000068040020FEB5044627
:1009F000466900690F4F0190E56800200090A80744
:100A000007D0204600F0B0FD304602F04DFF002830
:100A100001DA3846FEBD280502D50198FFF77BFCB8
:100A20004C21204600F0C7F8206D400840002065AA
:100A30000098FEBDFFFFFFFF30B503461D78002D77
:100A400008D00A461478521C002C03D0AC42F9D1CD
:100A50005B1CF3E7181A30BD034610B50B439B0728
:100A60000FD1042A0DD308C810C9121FA342F8D011
:100A700018BA21BA884201D9012010BD0020C04314
:100A800010BD002A03D0D30703D0521C07E000207A
:100A900010BD03780C78401C491C1B1B07D1037840
:100AA0000C78401C491C1B1B01D1921EF1D1184629
:100AB00010BD000030B5441C03E00178401C002943
:100AC0000DD08107F9D10B4BDD0104C8D11A914338
:100AD0002940FAD0001B0A0603D0C01E30BD001BFF
:100AE00030BD0A0401D0801E30BD0902FCD0401E7A
:100AF00030BD000001010101F8B5042A2CD38307A1
:100B000012D00B78491C0370401C521E83070BD077
:100B10000B78491C0370401C521E830704D00B78CD
:100B2000491C0370401C521E8B079B0F05D0C91A2D
:100B3000DF002023DE1B08C90AE0FFF78DFBF8BDAC
:100B40001D4608C9FD401C46B4402C4310C0121F6E
:100B5000042AF5D2F308C91A521EF0D40B78491CA6
:100B60000370401C521EEAD40B78491C0370401CD1
:100B7000012AE4D409780170F8BD01E004C0091F1E
:100B80000429FBD28B0701D50280801CC90700D045
:100B90000270704700290BD0C30702D00270401CBE
:100BA000491E022904D3830702D50280801C891EB6
:100BB000E3E70022EEE70022DFE70000024670B51F
:100BC0000A4392072AD11E4DEE0104C808C9541BDE
:100BD0009443344017D0D0B2D9B2401A2106014311
:100BE00010D190B299B2401A210401430AD11002E7
:100BF0001902000A090A401A2102014302D1100E0B
:100C0000190E401A70BD9A42DFD010BA19BA884244
:100C100001D9012070BD0020C04370BD02780B785F
:100C2000401C491C002A09D09A4207D102780B784F
:100C3000401C491C002A01D09A42EFD0D01A70BD46
:100C400001010101002203098B422CD3030A8B42CC
:100C500011D300239C464EE003460B433CD40022B4
:100C600043088B4231D303098B421CD3030A8B42C6
:100C700001D394463FE0C3098B4201D3CB01C01A94
:100C8000524183098B4201D38B01C01A524143095F
:100C90008B4201D34B01C01A524103098B4201D34D
:100CA0000B01C01A5241C3088B4201D3CB00C01ABA
:100CB000524183088B4201D38B00C01A5241430832
:100CC0008B4201D34B00C01A5241411A00D2014657
:100CD0005241104670475DE0CA0F00D049420310F0
:100CE00000D34042534000229C4603098B422DD33F
:100CF000030A8B4212D3FC22890112BA030A8B42E7
:100D00000CD3890192118B4208D3890192118B4235
:100D100004D389013AD0921100E08909C3098B42BA
:100D200001D3CB01C01A524183098B4201D38B01FD
:100D3000C01A524143098B4201D34B01C01A5241A0
:100D400003098B4201D30B01C01A5241C3088B42E5
:100D500001D3CB00C01A524183088B4201D38B00D0
:100D6000C01A5241D9D243088B4201D34B00C01A5A
:100D70005241411A00D20146634652415B1010466F
:100D800001D34042002B00D54942704763465B10B7
:100D900000D3404201B50020C046C04602BD00005D
:100DA00070B5064C7C44064D7D4403E02068001974
:100DB0008047241DAC42F9D170BD00009046000070
:100DC00094460000F8B517460E460546002B07D09E
:100DD000104658434419E41B2046B047A542FAD1B7
:100DE00028460838F8BD10B501469E240002CA15F1
:100DF000A307002A02D01843002A04DBA21A002A03
:100E00000CDDD04010BD1206120E01D1400040088A
:100E1000A21A03D4D04040420028F3DDFF2248004C
:100E20001206904201D9002010BDC817C043584097
:100E300010BD0000004870476405002070477047EF
:100E40007047704738B504460A460020694601F0ED
:100E5000BFF8002805D002462046009900F07EFC2D
:100E6000012038BD10B5012001F0A0F810BDF8B583
:100E700001F0A2F8054600200C461020C0460646A8
:100E8000A819A0420DD932466946002001F0A0F809
:100E9000070001D101F08AF80098A04200D0054671
:100EA000C419FFF7C7FFF61D07460560F008C0002C
:100EB0004619284600F008F8B44204D03146386894
:100EC000A21B00F04BFCF8BD002101604160806076
:100ED00070471020704770B5044685690068C106E8
:100EE00001D5302600E02026C00707D070BD62681B
:100EF0003046A1689047206A401C20626D1EF6D5DE
:100F000070BD70B5044685690078C00707D170BD13
:100F10006268A16820209047206A401C20626D1EF4
:100F2000F6D570BD09684A0501D540B27047C905BC
:100F3000FCD500B2704709684A0501D5C0B27047B8
:100F4000C905FCD580B2704770B50C460546012A2C
:100F500005D02878800600D5EA69002302E0012345
:100F600005E05B1C934202D2E05C0028F9D1A8693D
:100F7000E618C01AA861286AC01828622846FFF738
:100F8000AAFF04E06A682078A968641C9047B4420C
:100F9000F8D32846FFF7B5FF70BDFFB504460D46F0
:100FA00081B0243000902168880604D51022E069C1
:100FB0009143216000E00120A84201DD471B00E0D1
:100FC00000270498A1697A191018081AA0612078DE
:100FD000C00602D42046FFF77EFF002608E00398F3
:100FE0006268A168805D9047206A401C761C206280
:100FF00004988642F3DB2078C0060AD52046FFF726
:101000006AFF06E06268A16830209047206A401CB1
:10101000206238467F1E0028F4DC07E000986268F2
:10102000A168405D9047206A401C206228466D1EE2
:101030000028F3DC2046FFF764FF2078000602D585
:10104000022005B0F0BD0120FBE711680268006ACC
:10105000530501D5087009E0D30501D5088005E0E6
:10106000130602D5C21705C100E0086001207047D1
:1010700001694A1C02610878704700B58FB002917F
:10108000002105910549019379440391114604908B
:101090006846FFF7C5FA0FB000BD0000E5FFFFFF8F
:1010A0000A681070521C0A6070470CC908399A42CD
:1010B00002D2531C0B60107070470000084B70B5D3
:1010C0000D467B44FFF7D9FF0446284600F0D8F8C8
:1010D000002802D00020C04370BD204670BD000033
:1010E0005F2B0000F7B50446154686B02B487844C0
:1010F000002703C83E460090019111E007986A4618
:101100007100415A02A800F025FF411C07D0217848
:10111000890603D5E269391891420ED83F18761C2A
:101120002078800602D5E069B84206DDAE42E5DBF4
:1011300007987100405A0028E0D1A069C01BA06147
:101140002046FFF7C8FE154878445A3803C8009077
:101150000020019116E041006A460798415A02A812
:1011600000F0F8FE0590401C0AD0002505E06268FA
:1011700002A8A168405D90476D1C05988542F6D392
:101180000498401CB0420490E5DB206AC01920623C
:101190002046FFF7B6FE09B0F0BD00005240000047
:1011A000F7B5D21D0025D20815A6D200F52905CA2B
:1011B00011D0002A05DA00214042914111A60A46C9
:1011C00008E0009909688B0701D50FA602E04907DE
:1011D00001D50EA601251146009F0024243704E006
:1011E00000F0D6FA30323A55641C02460A43F7D171
:1011F0002B46324621460098FFF7CFFEFEBD000089
:10120000000000002D0000002B0000002000000066
:1012100070B504460021243408E05507D2086D0F4C
:10122000303565545D072A43DB08491C15461D43CC
:10123000F3D10468002310A2250708D520252C40EF
:101240000C4304D0C46901230CA2641EC461FFF7DF
:10125000A4FE70BD10B5044621461068FFF76BFE72
:10126000002302462046FFF7D3FF10BDD21DD10850
:10127000C9000CC9CCE700000000000030000000ED
:10128000C068802108407047F8B505460C46C8681C
:101290000521C9048843012189050843E0608006CF
:1012A00002D5204600F086F97149E0680140022924
:1012B00003D0204600F028F9BCE0052101224903B3
:1012C0000140D20391420FD1C00306D56168E06AA4
:1012D000884200D80846606006E02069E0626060ED
:1012E000606902F0E5FAA061A1680022EEB200296F
:1012F0000EDAE06883050BD4C943A160092122609E
:1013000049030843E0606068411C61600670ACE01E
:10131000E068012149030843E06000202060206963
:10132000002831D1606902F0D9FA01252746243717
:10133000ED02002816D0A0898005800F08D0E06952
:10134000FEF7B8FF0028206102D0E068284318E0CB
:1013500001202761E061E06803210902884301213F
:1013600089020DE0E069FEF7A5FF00282061EFD0BB
:10137000E0682843E0608105890F03D1FF21013136
:101380000843E06020696060E2683A4F2569D00553
:101390001FD56168E06A884200D80846411B05D025
:1013A0002246284600F0BAF8002843D1E06801023E
:1013B00004D5E56200206560A06053E0691CE1622D
:1013C0006160E169491E3843A160E06030462E70DB
:1013D000F8BD100201D53A4009E06068411C616027
:1013E0000670E06838430A2EE06006D00022E16A09
:1013F0006068814203D90B4602E00122F7E7034609
:10140000A7895B1B7F0504D4E7699F4201DD002AA1
:101410001ED0814200D801460F1A0020E5626560A7
:10142000002BA06009DD22461946284600F076F818
:10143000002802D00020C043F8BD002F08D0A069CA
:10144000E5626560C01BA061E06810210843E060B0
:10145000E068000209D56168A069E562491B40188F
:101460006560A0610120C043F8BD3046F8BD0000B2
:10147000821000000000010010B50146C26890070C
:1014800003D0900607D5886A0AE0FEF70FFF012116
:101490000160881E10BD8B694868C0180B69C01AAE
:1014A00040310B7A002B02D0497A401A10BD11034B
:1014B000FCD50028FADD401E10BD000070B5C468E0
:1014C000A50713D0650211D4D51FF93D0AD0FF3D01
:1014D0006D1E07D0FF3DFF3D022D07D1014624318F
:1014E000012305E0074E5D1EB54201D3012070BD0A
:1014F0000161C36141600F2109028C431443C46040
:10150000002070BDFFFFFF00C168802211439203DD
:101510009143C1600021816001607047F7B51446B6
:101520000E463348D5685769054209D03846A16947
:1015300002F026FA002811DB2D48C0430540E56083
:101540002B4632463846009902F020FA4200A16943
:101550005208B21A89180028A16104D02046FFF76A
:10156000D3FF0020C043FEBD70B504460569C06AC4
:101570006168884200D80846E1680522D204914398
:10158000E160C90314D5A84209D02246411B284670
:10159000FFF7C4FF002802D00020C04370BDE56201
:1015A00000206560A060E068012109048843E060D4
:1015B000002070BD10B50446C06820218843E0605B
:1015C000A16AA06988420ED02046FFF7CDFFE068EF
:1015D00003210903884310210843E060A06AA06149
:1015E0002069E06260600349E0680840E06010BD87
:1015F00010000200BFBFFFFF10B543485421FFF7A2
:10160000DAFA42485421FFF7D6FA41485421FFF74D
:10161000D2FA40483C493D4B404A01603E48036095
:101620003B4810605A1C0A65411C1965012101657F
:101630003C48354A3AA17844FFF764F9002804D1C0
:10164000384878440C3800F0ABFC38482F4A36A1B3
:101650007844FFF757F9002804D1344878440C380F
:1016600000F09EFC32482A4A2FA17844FFF74AF93D
:10167000002804D12E4878440C3800F091FC402317
:101680002148DC0000212246FFF718FF002804D083
:10169000244878445C3800F083FC1C4822464023F0
:1016A0000021FFF70BFF002804D0204878445C3865
:1016B00000F076FC1648224610230021FFF7FEFEBC
:1016C000002804D01A4878445C3800F069FC10BD4A
:1016D0000F4870B5006D44080B486400FFF786F9A9
:1016E0000A48FFF783F90A48FFF780F909E0206DFF
:1016F000450820466D00FFF779F92046FEF70BFEFE
:101700002C46002CF3D170BD68040020BC040020DE
:10171000100500207C0000208000002084000020B4
:1017200072000000FE39000077000000EB39000075
:10173000D939000001468008081A02091018020A67
:101740001018020C1018C008820012185200891AD2
:1017500001E0401C0A390A29FBD2704710B5034644
:10176000406801E003464068002801D08842F9D370
:101770001868C3188B4206D0CB1CD808C000001DC7
:10178000411A521A0146081D0A60FEF7C4FD10BD39
:101790000B4670B5024689078008084319469D0824
:1017A000141AA94125090807054308092C194841BD
:1017B000250A01060D43010A2C194141200C0D0494
:1017C00028430D0C00194D41002140194D41C0081E
:1017D00069070843E908840F8D0025438400241815
:1017E0004D4124196D41121BAB4107E00925ED4322
:1017F0002C11521963410024401C61411C460A25EA
:101800000026551BB441F1D270BD00007047FFB5F2
:101810000C461E468FB003CA089009914F007D0DFB
:1018200000D16D1E002108460020C0460321099A00
:1018300089050840002A03DA820080184008084021
:10184000800D01280A9002DD0020C0430A9008980C
:1018500007430DD0EF48F04928184843071418985B
:1018600000281DD07542291E1DDD0A9842421BE04A
:101870001898012802D00020302104E00020F24313
:1018800005E02154401CB042FBDB30460022189B8F
:10189000002121540F998B600A60486013B0F0BD9D
:1018A000BD1B6D1CDFE70A9A002900DA69420BA80C
:1018B00000F000FC0BAB07CB03AB07C308990998FA
:1018C00000F05CFC6B4607C30146D4480918002DA4
:1018D00000910ADDD14903980A9A4942401803A9A8
:1018E0000390684600F06FFE07E003990A9A081813
:1018F00003A90390684600F03CFE6B4607C3000452
:10190000000C03D00020C043410800E01046189AA4
:10191000002A03D00022009215461EE0751E05D451
:10192000FFF736FF303262556D1EF9D501220843AC
:10193000079602D000227F1C04E02078302801D1D5
:1019400000227F1E002A069789D01EE0112D07DA9B
:10195000FFF71EFF303262556D1C02460A43F5D177
:10196000084303D00098002819D00EE00021681E1B
:1019700005E0235C625C63542254401E491C814292
:10198000F7DBA81B401E07950690079A18990020C0
:10199000A0540F98079B069A81600CC07EE7112621
:1019A000002018905BE7D21DF0B50D460446D10823
:1019B00093B0C90003C90C900D9101F047FE024697
:1019C0000D98C00F01D02D2007E02068810701D5B8
:1019D0002B2002E04007C00F4001032A0F9001D0E6
:1019E000072A05DB03462946204600F01FFB0EE1CF
:1019F0002078800601D5E76900E006272846652D96
:101A000004D0662814D0672D69D12DE00020112F55
:101A1000009001DB112300E07B1C0CAA03A910A895
:101A2000FFF7F5FE1199002610987D1C0E9142E0FB
:101A300001203B460CAAC0070B900120009003A98F
:101A400010A8FFF7E4FE119D1298109900260028B7
:101A50000E9501D1781C0D18781B02D446427D1CCE
:101A6000761EE81B00903AE0012F00DA01270020E3
:101A7000112F009001DD112300E03B460CAA03A9C1
:101A800010A8FFF7C4FE11993D46109800260E914C
:101A9000217809070BD40E99A94200DA0D4603A953
:101AA000012D04DD4A19203AD27F302A06D0B842EF
:101AB00001DA011D04DA012100910FE06D1EEFE74C
:101AC000002802DC86192D1A03E0411CA94200DD22
:101AD0000D46801B401C00900120C0070B90207811
:101AE000000705D40098A84202DB0020C043009004
:101AF00069460020C8720B98012102AF0337C9075D
:101B0000884225D0022010902B2011900B9800289D
:101B10000BDA40420B902D20119006E00B98FFF756
:101B200009FE30317F1E0B9039701099481E002934
:101B30001090F3DC0B980028F0D111987F1E3870BC
:101B40002088000501D5452000E065207F1E387003
:101B500001A8C01BC01D0B900F98002800D00120C9
:101B600041190098C01709180B980818A169081A9C
:101B7000401EA0612078C00602D42046FFF7ABF9D2
:101B80000F98002805D06268A1689047206A401C21
:101B900020622078C00625D52046FFF79CF921E079
:101BA000002E07DB0E98B04204DD03A86268805D5A
:101BB000A16802E06268A16830209047206A761C24
:101BC000401C20620098401E002800900AD100F0BE
:101BD00029FAC06862680168405CA1689047206A81
:101BE000401C206228466D1E0028D9DC07E0626890
:101BF0003878A1687F1C9047206A401C20620B99AE
:101C0000481E00290B90F2DC2046FFF77AF90320EA
:101C100044E6000001FCFFFF104D0000E1DFFFFF84
:101C2000D21DF0B504460D46D0088DB0C000466800
:101C300007683146384601F009FD0246F00F01D031
:101C40002D2307E02068810701D52B2302E0400700
:101C5000C00F43016846002B037001D0012000E053
:101C60000020032A0A9001D0072A04DB29462046D7
:101C700000F0DCF92DE12078800601D40D2500E08C
:101C8000E5697000400D0D2D01904BDA300D0021FB
:101C90000B9008460020C046032189050840002E0D
:101CA00005DA82008018C20F101840100840801515
:101CB000012801DD0020C043A9000023182906D314
:101CC0009C460A460123183A1B07D34003E0012231
:101CD0001205CA4094460C31202902D33A462039D5
:101CE00000E032468A40002802DD002A06D119E0D1
:101CF000002817D10121C9078A4213D31946634628
:101D00007F185E41002806D10120C007824202D11F
:101D1000084687439E430B98310D814202D00198BB
:101D2000401C01902088000502D57149794402E0E9
:101D30006F49794419396B460A9830221A540A9827
:101D40000A7C401C1A54401C0A900198002801DCAF
:101D5000302000E031201872019A0120002A02D0C0
:101D6000644BD21804E072003A4302D0614A521C1C
:101D70000192002D02DC2278120703D56A462E203C
:101D8000507202200022864694460CE0320336014F
:101D9000120F6D1E8B5C02AA13546246521C401C2B
:101DA0009446052A01DA002DF0DC002202AE08E09C
:101DB0003B0F3F01CB5C521C6D1E3354401C082A64
:101DC00001DA002DF4DC23689A0601D511E0401EEB
:101DD000704504DD3218203AD27F302AF7D000282F
:101DE00007DD3218203AD27F2E2A02D11A0700D4FA
:101DF000401E002D03DD3E223254401C6D1E497CE6
:101E000031540199401C002906DA2D21471C315418
:101E100001984042019003E02B21471C3154019866
:101E20007D21C900884206DBFEF716FF3030F055F1
:101E30007F1C019101E0642808DB01986421FEF712
:101E40000BFF3030F0557F1C019101E00A2806DBC2
:101E500001980A21FEF700FF3030F0557F1C0198F1
:101E60000A21FEF7F9FE3031F1550A98A1697F1C6D
:101E70007A191018081AA0612078C00602D42046EA
:101E8000FFF729F8216A6E460A980818206204E0D4
:101E900062683078A168761C90470A98401E0A90C4
:101EA000401CF5D12078C00602D52046FFF713F874
:101EB00002AE09E03078761C3E280DD06268A16839
:101EC0009047206A401C20627F1EF3D22046FFF715
:101ED00018F80DB00320F0BD206A4019206203E01D
:101EE0006268A168302090476D1EEDD3F8E70000CE
:101EF0002F34000001FCFFFF10B54369002B02D016
:101F0000C046C04601E0FFF71FF8012010BD12785F
:101F1000014624310A7000224A700122ECE7116860
:101F20000022D243E8E710B54369002B02D0C04637
:101F3000C04601E0FFF7D6F8012010BD1288014627
:101F4000243182840022C2840122ECE7116800223D
:101F5000D243E8E770B516460C46054600F05AF83D
:101F60000368FF200230C05C012807D0FF2C0ED888
:101F7000185D00280BD001202C7070BDFF33324655
:101F8000214608331868C3182846984770BD0020BA
:101F9000C04370BD10B5002801D000F035F810BD69
:101FA00010B500F059FBFFF7F5FF10BD10B500F0BC
:101FB0006DFBFFF7EFFF10BD01226946114B1203C5
:101FC00082188A421A6001D811467047196070471A
:101FD00070B50C4C6D46012636032368AD1B9A186C
:101FE000AA420ED8AD1A9019EE0F75196D10AA18E5
:101FF000904200D91046C01D0B60C208D200D01A12
:10200000226070BD8800002001491820ABBEFEE7A9
:102010002600020010B500F005F8001D10BD00BF3D
:10202000392E00000048704768050020F8B51F46AB
:10203000044601230068DB02032601461840072AF4
:1020400005DB002801D017A506E017A504E000284D
:1020500001D016A500E016A5102081432160A069DB
:10206000C01E002FA06101D0401EA0612046FEF7D7
:1020700032FF002F09D038466268A1689047206A75
:10208000401C2062C01C206206E0206AFAE76268F9
:102090002878A1686D1C9047761EF8D22046FEF77E
:1020A00030FFF8BD4E414E006E616E00494E460055
:1020B000696E6600F7B516468AB02F4878446C46BC
:1020C00003467C33C06F5A689B680DC42A48784425
:1020D000763003AC0DC80DC43720C0010818372175
:1020E0001B30FEF7B9FD05460C46803D1B3C02D572
:1020F0006442012000E00020002709900FE0E00783
:102100000BD00C201C497843794432464C39411895
:10211000684600F02EFA6B4607C364107F1C002C43
:10212000EDD1154F7F442C3F15E0E80711D0200179
:10213000C0190EC80691089307920068F04201D1B9
:1021400098190890324606A903A800F012FA03ABCA
:1021500007C36D10641C002DE7D13246694609980B
:10216000002803A802D000F02EFA01E000F001FAE6
:102170000A9B07C30DB0F0BDB43000000346400019
:102180000A4610B5400D0BD00121C9070F24A40247
:1021900000191C0364082143540D2143D20207E0B7
:1021A00000210120F2E7D40F490021435200401ED4
:1021B0000029F8DADB0FDB07184310BDFFB50D4629
:1021C000144685B04868516801F01AFA00910190F0
:1021D000A868A16801F014FA02910390A8686168E8
:1021E00001F00EFA029A12188242029201D20120E4
:1021F00000E00020019A0B18D2180028019202D0AA
:102200008A4202D903E08A4201D2012000E0002084
:102210000099081800906868A16801F0F1F9029A25
:1022200012188242029201D2012000E00020019A9D
:102230000B18D2180028019202D08A4202D903E07A
:102240008A4201D2012000E0002000990818009085
:102250002868216840004900400849084018EE49B4
:10226000471814E001994000C90F084300900198F5
:1022700002994000C90F0843019002980399400059
:10228000C90F08430290039840007F1E03900098F6
:102290000028E7DA0898002801D0E04E00E0002688
:1022A000B74228DAF71BF806C00E15D0029B202192
:1022B000091A039A8B401A430392029A019BC24067
:1022C0008B401A430292019A009BC2408B400099B6
:1022D0001A430192C14000917A110BD06B46032042
:1022E000811A01D5002101E0890059588700401E5C
:1022F000D951F5D5374603980299002800D001201E
:10230000014308980291002808460CD0002800D00C
:1023100001200199019A490508430121D20AC90205
:10232000D202019200E001210E9B0122D207012B73
:1023300002D0002B03D013E0002807D116E0904212
:1023400004D890420CD1019B0B4209D0019B591833
:10235000019105D10099491C009101D17F1C009287
:10236000002803D0102108460020C04628682168B4
:10237000019B009A4840C10F0598C90739430EC018
:1023800009B0F0BDFFB587B0099A0898089953685D
:1023900092684068896896460022039317469446DF
:1023A000089A12685300099A5B0812685200520892
:1023B0009A1A9B4BD4180A9A002A01D0352200E0C1
:1023C000402206920022012315460492DB07059362
:1023D00024E0002D05D175460346039E4D1BB341F5
:1023E00009D375466646039B491B049D9841059B8E
:1023F0007519AC465F4163463B4308D0059B049E7C
:10240000DD0776082E435B080496059301E0521E13
:10241000641EC50FED0749184041521C069B9A42A5
:10242000D7DB002D04D17546039A6B1A824101D285
:1024300003200CE0039A0B466B404240134303D049
:10244000014303D0012002E0022000E000206146A9
:1024500001910021009702910A99002905D0614657
:10246000400201436D4B019102E08007002302907E
:102470009C423ADA1A1BD006C00E15D0029D2021CC
:10248000019C091AC5408C402543029C8C4000D019
:1024900001242543019C02953D46C4408D403946A8
:1024A0002C43C1400194009154111DD06D4602216E
:1024B000002202290CD10320001B07E0002804DBC6
:1024C0008600AE59002E00D00122401C0328F5DB07
:1024D000081B02D588002A5004E0800028581043C9
:1024E0008A00A850491EE3D51C460A980028029885
:1024F0000CD0002800D001200199019A4905084319
:102500000121D20AC902D202019200E00121109BEE
:102510000122D207012B02D0002B03D013E00028A8
:1025200007D116E0904204D890420CD1019B0B4297
:1025300009D0019B5918019105D10099491C0091BE
:1025400001D1641C0092002803D01021084600200D
:10255000C04608980999019A00680968484000999E
:10256000C30F0798DB0723430360826041600BB011
:10257000F0BD1FB5002300920A46014601A8FFF7EF
:102580001DFE01AB07CB04B010BD1FB501230092A7
:102590000A46014601A8FFF711FE01AB0F2407CB45
:1025A000A402C30F4000DB074008001B002900DB2A
:1025B0000020490000054908CC0A2043490518437A
:1025C000D20A1143DFE71FB5002300920A460146F5
:1025D00001A8FFF7D7FE01AB07CBD4E71FB5012356
:1025E00000920A46014601A8FFF7CCFE01AB0F247A
:1025F00007CBA402C30F4000DB074008001B0029E3
:1026000000DB0020490000054908CC0A20434905A9
:102610001843D20A1143B6E702C0FFFF013C000095
:10262000FF3F000070B505460C460A2000E06D1C17
:1026300000F054F8002D06D028780028F7D102E0E9
:10264000641C00F04BF8002C02D020780028F7D151
:102650000A2000F043F870BD10B5014602A0FFF754
:10266000E1FF012010BD0000534947525452454438
:102670003A2052656469726563743A2063616E271B
:1026800074206F70656E3A200000000010B50128BC
:1026900005D0002103A0FFF7C5FF012010BD09A14F
:1026A000F8E7000053494752544D454D3A204F75C5
:1026B00074206F662068656170206D656D6F72793A
:1026C000000000003A2048656170206D656D6F72F2
:1026D0007920636F727275707465640008B569461D
:1026E00008700320ABBE08BD704710B501F0CAFDED
:1026F00001F008FD10BD000070B50F487D25006891
:102700000E4CED00002809D001F0BEFA02F043FAA9
:102710000022216822604018294609E002F034FBBB
:1027200021886268411A89B28A1805C42946104670
:10273000FEF788FA70BD00007000002068000020DD
:1027400010B506480168102211430160032000F013
:1027500007F800F00AF8002010BD00000020024039
:1027600010B501F087FB002010BD7047F8B5054695
:1027700044480E460068C007C00FB0420AD2414824
:10278000016849084900314301600068C007C00F73
:10279000B0425CD128783C4C800705D56068F021B8
:1027A0008843A968084360602878C0073FD06868FC
:1027B000012813D02168022813D08907002946DA9E
:1027C00061688908890001436160FFF795FF6968C6
:1027D000074601290DD0022917D024E0216889037A
:1027E000ECE78901EAE7FFF787FFC11B2748814231
:1027F00017D860680007800F0128F4D117E0FFF7B1
:102800007BFFC11B214881420BD860680007800F05
:102810000228F4D10BE0FFF76FFFC11B1B48814278
:1028200001D90320F8BD60680007800FF3D1154877
:102830000168C907C90FB1420BD9016849084900AD
:10284000314301600068C007C00FB04201D00120D1
:10285000F8BD2878400706D560680721090288433B
:10286000E9680843606000F027F86168084A0906D3
:10287000090F515CC840074908600320FFF770FF4B
:102880000020F8BD00200240001002408813000024
:10289000A8500008780000200448054900684968ED
:1028A000044A4905490F515CC84070477800002030
:1028B00000100240B850000810B512A30FCB88B02A
:1028C0006C460FC413A30FCB0FC416494A680C20E3
:1028D000134603401448042B0FD0082B0DD193024C
:1028E0001B0F6C46E45CC96A04AB0907090F595C0D
:1028F000D20304D5FEF7A6F9604308B010BD0B481B
:102900006043FAE702030405060708090A0B0C0DE9
:102910000E0F10100102030405060708090A0B0C2C
:102920000D0E0F100010024000127A0000093D0049
:10293000FEB504460078D04DC00747D06868000750
:10294000800F012807D068680007800F022809D18E
:102950006868C00306D52868800337D560680028FA
:102960007ED033E0012062680004012A11D081008A
:10297000002A01D0052A10D02A6882432A602868DC
:10298000884328606068002814D0FFF7B5FE06462B
:102990000CE0296801432960F4E72A680A432A60A9
:1029A000F7E7FFF7A9FE801B64286FD8286880032B
:1029B000F7D50BE0FFF7A0FE064604E0FFF79CFE0C
:1029C000801B6428F1D828688003F7D4207801267A
:1029D000800700283BDA68680007800F07D0686826
:1029E0000007800F022809D16868C00306D4286850
:1029F000800715D5E068012832D111E0E068002891
:102A0000286815D030432860FFF776FE074604E0BB
:102A1000FFF772FEC01B0228C7D828688007F7D5C9
:102A20002868F82188432169C900084328600EE01E
:102A3000400840002860FFF75FFE074604E0FFF70C
:102A40005BFEC01B0228B0D828688007F7D4207826
:102A5000000724D5E0690028686A10D0304300E000
:102A600008E16862FFF748FE074604E0FFF744FE0E
:102A7000C01B022899D8686A8007F7D50FE0400884
:102A800040006862FFF738FE074605E09DE0FFF76B
:102A900033FEC01B022888D8686A8007F7D42078E4
:102AA00004274007002860DA00200190E869C00090
:102AB00008D4E969B8060143E961E96901400120E8
:102AC000009101906D480168C90511D40168821513
:102AD00011430160FFF710FE009005E0FFF70CFEC8
:102AE0000099401A642870D864480068C005F5D57C
:102AF000A06801280AD0002801D0052810D0286A33
:102B0000400840002862286AB84301E0286A304340
:102B10002862A068002812D0FFF7EEFD00900AE0BE
:102B2000286A38432862F1E7FFF7E6FD0099411A69
:102B30005348814249D8286A8007F5D50DE0FFF750
:102B4000DBFD009006E0FFF7D7FD0099411A4C48E5
:102B500081423AD8286A8007F5D40198002804D029
:102B6000E969012000078143E9612078C00635D575
:102B7000606901280CD0401D686B23D0384368631E
:102B8000686B400840006863FFF7B6FD064622E028
:102B9000686B38436863686B30436863FFF7ACFD6C
:102BA000064604E0FFF7A8FD801B02285BD8686B8F
:102BB0008007F7D5686BF8218843A169C9000843ED
:102BC00068630BE0B8436863F4E74CE0FFF794FDFB
:102BD000801B022847D8686B8007F7D4206A00283A
:102BE00046D069680907890F022943D001263606B5
:102BF0000228286805D0B0432860FFF77DFD044611
:102C000033E0B0432860FFF777FD074604E0FFF7A5
:102C100073FDC01B022826D828688001F7D4E86A13
:102C2000E16A000900010843E862616AA06A08439A
:102C300069683D2212049143084368602868304364
:102C40002860FFF759FD044604E0FFF755FD001B1F
:102C5000022808D828688001F7D509E0FFF74CFD65
:102C6000001B022801D90320FEBD28688001F5D48D
:102C70000020FEBD0120FEBD00100240007000409B
:102C80008813000070B5040005D025462035687F04
:102C9000002802D006E0012070BD002028772046E1
:102CA00000F00AF802206877211D206800F0F8F98A
:102CB00001206877002070BD704702220146203154
:102CC0004A770268136801200343136048770020A5
:102CD0007047000010B504460068012200F01CFA9D
:102CE0000A482168814205D00948814202D009483A
:102CF000814204D1486C0122D20310434864206809
:102D00000168012211430160002010BD002C014028
:102D1000004401400048014030B5044600680022EC
:102D200000F0FAF9124A114821689310814205D047
:102D30001048814202D0104881420AD1086A1042EC
:102D400007D1086A184204D1486C0125ED03A84355
:102D500048642068016A114206D1016A194203D110
:102D60000168490849000160002030BD002C014085
:102D700011110000004401400048014070B50400FA
:102D800005D025466035687A002802D006E001208B
:102D900070BD00202872204600F026F824206872BA
:102DA00020680168490849000160204600F02EFAB9
:102DB0000128EDD0606A002802D0204600F0B7F963
:102DC000206841680122D2029143416020688168F5
:102DD000082291438160206801680122114301604B
:102DE000204600F009FA70BD704710B503684943EA
:102DF0004C000C19A34351430B43036010BD4368BF
:102E00008B4351430B434360704710B5C36849433C
:102E10004C000C19A34351430B43C36010BD000089
:102E2000F0B50B4B1A680B4CD24392070CD0DE0264
:102E30000022950077592D19521C2F602D2AF8DB9E
:102E40001A6803252A431A60800000190164F0BD46
:102E5000000001400000002010B5012000F018F82B
:102E600000280AD100F014F8002806D100F048F834
:102E7000002802D101A000F091FE10BD53657453EB
:102E80007973436C6F636B206661696C65640A00DB
:102E900070B590B0064630216846FDF78CFE0025DF
:102EA00001240D950E9521460CA80F950C94FFF763
:102EB0005DFC00281FD10094002E0FD0052001904A
:102EC0000226F00309900520C0040A9008960B948E
:102ED0006846FFF72DFD00280DD101E00194EFE7D2
:102EE00007200C900E9501210D960F950CA8FFF769
:102EF0003DFC002802D0002010B070BD0120FBE78F
:102F000030B591B00024022501940120102103AABC
:102F10000095029413C232C20B900520C0040A909F
:102F200009946846FFF704FD00280AD107200C9099
:102F30000E9401210D950F940CA8FFF717FC0028A3
:102F400002D0002011B030BD0120FBE708B51449C4
:102F5000030000F06DFB06040A0E12211721092060
:102F60004B69C0060122520410E00E484B69020270
:102F70000CE00D484B69020208E00C484B69012245
:102F8000120503E00A484B690122920513434B6185
:102F900049691140009108BD06A000F0FFFD000046
:102FA000001002400004004800080048000C0048DF
:102FB0000014004850696E6D6170206572726F7206
:102FC0003A2077726F6E6720706F7274206E756D25
:102FD0006265722E0000000070B5154E71680C20FD
:102FE00001401448144C03D0042901D0082901D011
:102FF000206014E07168726801231B041A40890282
:103000000D0FF16AAD1C0907090F491C9A4203D143
:10301000FDF718FE6843EBE70848454325607068F4
:1030200007490006000F085C2168C140216070BD9F
:103030000010024000127A007800002000093D00D4
:10304000A85000081348026801210A430260426840
:10305000114B1A4042600268104B1A40026002682D
:103060008B049A43026042683F231B049A434260E8
:10307000C26A12091201C262026BFF2314339A431F
:103080000263426B8A4342630022826082690A4380
:1030900082617047001002400CB8FF08FFFFF6FE87
:1030A00070B50268174B184E984201D0B04203D158
:1030B0007024A2434C682243144C154D984208D00A
:1030C000B04206D0134EB04203D0A04201D0A84275
:1030D00004D103263602B243CE6832438026B2437F
:1030E0004E69324302608A68C2620A68826298420C
:1030F00003D0A04201D0A84201D109690163012196
:10310000416170BD002C01400004004000440140BA
:10311000004801400020004010B50123046A8B40A4
:103120009C430462036A8A401343036210BD10B5D6
:10313000818CC90707D001684A6801235B049A4360
:10314000836A1A434A60818C890707D501684A68F7
:1031500001231B049A43C36A1A434A60818C4907BE
:1031600007D501684A6801239B049A43036B1A43FD
:103170004A60818C090707D501684A680123DB038F
:103180009A43436B1A434A60818CC90607D502688B
:10319000916801231B039943836B19439160818CD0
:1031A000890607D501688A6801235B039A43C36BCC
:1031B0001A438A60818C490612D503685A68012136
:1031C0000905046C8A4322435A60026C8A4207D183
:1031D0000268516803235B059943436C19435160AE
:1031E000818C090607D501684A680123DB04806CDD
:1031F0009A4302434A6010BD0021C166202260301C
:10320000427282720172084670470000F8B50446A7
:103210002369A268E6691A436369102133430020D9
:1032200026681A4333680546394F3B4013433360E1
:1032300023685A6803263603B243E66832435A606D
:10324000236AA26926681A43B3680B273F02BB436F
:103250001343B3602F4A126B9207920F06D0012AD4
:1032600008D0022A08D0032A07D101E0002104E097
:10327000022102E0042100E008210122E369D203D7
:10328000934224D100290CD002290DD0042913D057
:10329000082917D00125010909010007400F08433B
:1032A00032E0FFF7F9FA09E061681B4A4808801824
:1032B000FDF7C8FC80B2EEE7FFF7FEFA6168400058
:1032C0004A08F4E76168012248081204EFE7002980
:1032D00008D0022909D004290BD008290ED00125D5
:1032E0002846F8BDFFF7D8FA05E061680B4A4808A0
:1032F00006E0FFF7E1FA61684A0801E06168480802
:103300008018FDF79FFC80B22168C860E8E70000E4
:10331000F369FFFF001002400024F40000127A005D
:1033200010B5044600F0B8F800281ED1204600F081
:10333000B5F8002819D10D480078C00713D10B4803
:1033400000F0DCF900280ED008484B23DB010322F3
:103350000221001D00F074F8054A064900F0BAF990
:10336000024800F007FA0148001D10BD20000020AF
:10337000000000087534000870B50C460546FCF7DF
:1033800095FF69420160034A0020A1005050401E91
:1033900070BD00002800002070B5104801F0B6FD97
:1033A00003240F48251FA1004158002903D0641CA5
:1033B000102CF8DB01E0102C08DBFCF777FF18215C
:1033C0000160064801F0A2FD284670BDA1004550ED
:1033D000024801F09BFD204670BD00001003002054
:1033E0002800002070B50146102801DB002070BDC8
:1033F000054D8C002859421CF9D10329F7DA0846FB
:10340000FFF78EFF285170BD280000201C20C0430C
:1034100070471520C04370470020704770B51546AF
:103420000E46002404E0315D034801F053FB641CA8
:10343000AC42F8D3284670BD20030020012070471D
:1034400070B504460848206008481D4600680028FA
:1034500001D0204670BD064801F07AFA294604489A
:1034600001F054FAF5E70000105200087400002043
:103470002003002070470268002901D0816800E025
:10348000C1680A6070470020704710B500211430F1
:1034900001F022FD143810BD002070470020704755
:1034A000007B7047F8B507460D46184801F02EFD21
:1034B000174E34680EE0A06800280AD0FDF7FAFA2B
:1034C000A84206D12A463946A068FDF7C5FA002869
:1034D00005D06468002CEED1072D05D00BE00B4819
:1034E00001F014FD2046F8BD2A46394609A0FDF733
:1034F000B3FA002804D0054801F008FD0020F8BD0B
:10350000024801F003FD7068F8BD00006001002072
:103510000800002064656661756C740010B504468F
:1035200000F007F8002803D06068002800D0001FD2
:1035300010BD10B54068002804D0FFF7B1FF012886
:1035400000D0002010BD10B5044600F00CF8002893
:1035500003D06068002800D0001F10BD406800281C
:1035600000D00120704710B54068002804D0FFF754
:1035700097FF002801D0002010BD012010BD006879
:103580007047000070B5044600200D462060606062
:103590000FA12846FDF750FA40190021024620608D
:1035A00013782F2B05D0002B05D0521C491C22600C
:1035B000F6E7521C2260002904D0FFF773FF606019
:1035C000204670BD2A2203A10AA000F0AFFD000032
:1035D0002F0000002E2E5C6D6265645C706C61745F
:1035E000666F726D5C46696C65506174682E6370BD
:1035F000700000006C656E20213D2030000000004E
:10360000F8B5040C8BB2264682B25E430D0C104610
:10361000370C5843360480190021794116466E4311
:10362000370C36048019794126466E438919F8BD56
:1036300030B47446641E2578641CAB4200D21D462B
:10364000635D5B00E31830BC184700004900CA0204
:103650000243100000D004204A0D01D00122104383
:10366000044A490D914201D102210843012800D1A9
:1036700005207047FF070000002805DBC106C90EC2
:1036800001208840014908607047000000E100E027
:103690008307FF22DB0E9A408907090E9940002814
:1036A00008DB830809489B001B18186890430843EF
:1036B000186070470007000F0838830804489B0013
:1036C0001B18D86990430843D861704700E400E0B4
:1036D00000ED00E001207047FFB581B01C461746A1
:1036E0000E0007D0019D02E02846B047ED192046A4
:1036F000641EF9D2019805B0F0BD000010B5017844
:103700008A07920F012A06D08A0706D0054A06A129
:103710000EA000F00BFD002010BD0222114301702D
:10372000012010BD8C0500002E2E5C6D6265645C6E
:10373000706C6174666F726D5C6D6265645F7265FA
:103740007461726765742E637070000030203D3DB7
:1037500020282A67756172645F6F626A65637420EE
:1037600026204358415F47554152445F4D41534BDA
:103770002900000010B501788A07920F022A04D0B0
:10378000044A05A10DA000F0D1FC89088900491C5C
:10379000017010BD940500002E2E5C6D6265645CA6
:1037A000706C6174666F726D5C6D6265645F72658A
:1037B0007461726765742E63707000004358415FD6
:1037C00047554152445F494E49545F494E5F5052FC
:1037D0004F4752455353203D3D20282A677561725B
:1037E000645F6F626A6563742026204358415F47B7
:1037F000554152445F4D41534B29000010B50848D4
:1038000002232C220749FFF767FF00218165602210
:10381000C1651154044A0549FFF75CFF10BD000063
:10382000A8000020854E000800000008AD4E0008EA
:1038300070B5054C04251C212046FDF7BCF929462E
:10384000204600F04FFA70BD8C00002010B500F04B
:103850001FF810BDF8B51D4616460C46074600F089
:1038600021FA641C0BD02946384600F07DFA01216C
:10387000384600F00DFA3146384600F03EFAF8BD01
:1038800030380A2801D2012070470020704700001C
:1038900002486A46C008C000704700008305002047
:1038A00010B500F0F1FC10BD10B500F0ABF810BD84
:1038B00070B5FFF797FD0025ED4300280AD0016899
:1038C000896A8847040004D5FCF7F0FC6142016076
:1038D000284670BDFCF7EAFC0921F8E710B500F0B6
:1038E000E3FB10BD38B50C4605462449FDF766F9E3
:1038F000002814D021492846C91DFDF75FF900288A
:1039000012D01E4928460F31FDF758F9002810D073
:103910002878402812D0A00717D502211EE00020E9
:10392000FFF760FD002038BD0120FFF75BFD01209F
:1039300038BD0220FFF756FD022038BD0422691C65
:103940006846FDF7D9F8009838BD600701D5012118
:1039500004E0200701D5092100E000212007800FA5
:1039600002D0012040020143600702D501208002FD
:103970000143284600F0C2FC38BD00003850000862
:1039800010B5002200F0A4FB10BD0000F8B50646FB
:103990000F480027FF430D46824204D9FCF786FCFE
:1039A0001621016008E000201446002A0DDD304693
:1039B00001F022FA002801DA3846F8BD002804DDBB
:1039C00029182039034AC97F9155201AF8BD0000F3
:1039D000FFFFFF7F00030020824204D9914206D2FC
:1039E000814204D305E0814203D2914201D30120F8
:1039F000704700207047EFF31080C007C017401CCD
:103A00007047000070B50446FFF7ECFC0021A200EF
:103A10000A4B4D1E995000280AD001684969884711
:103A2000040009D5FCF742FC61420160284670BDE4
:103A3000FCF73CFC0921F8E7002070BD28000020BD
:103A4000F8B545681946286B6E6B141AB141AF6919
:103A50002869EA693B1B06468A411FD3124AA868B7
:103A6000904201D1204616E03B22525D002A03D04D
:103A70002046FCF776FC05E000270B462246394637
:103A8000FCF790FC084B00225B1EC01851415A1CE9
:103A90000023FCF79FFC864200D23046296A0818B2
:103AA000E9680840F8BD000040420F00EFF31080C5
:103AB000C007C017401C704770B5044600F00CF8F2
:103AC00025780120207000F045F8002D01D001205C
:103AD00070BD002070BD000010B5074C2068401C70
:103AE00005D000F051F92068401C206010BD512223
:103AF00002A10BA000F01AFB100000202E2E5C6D1E
:103B00006265645C706C6174666F726D5C6D626539
:103B1000645F637269746963616C2E630000000006
:103B2000637269746963616C5F73656374696F6EF6
:103B30005F7265656E7472616E63795F636F756ED7
:103B4000746572203C2055494E5433325F4D4158C4
:103B50000000000010B506480168002907D0016880
:103B6000491E01600068002801D100F01BF910BD5A
:103B700010000020EFF30580002800D001207047DE
:103B80000FB410B503AA04480299FCF7A4FC10BCBA
:103B900008BC04B018470000100500200FB408B599
:103BA0000C48FFF789FF002811D1019800230090ED
:103BB0001A461946084800F02BF900231A4607A1B7
:103BC0000C4800F05BFD03A9029800F027FB00F011
:103BD0003FFB0000140000200001FF80466174617B
:103BE0006C2052756E2D74696D65206572726F72EE
:103BF00000000000A401002004460848FCF7EFFD87
:103C00000748FCF7ECFD012000F01BF8022000F053
:103C100018F8002C01D000F099FAFEE7BC0400204F
:103C20001005002010B58A68002A02DCFDF72CFB85
:103C300010BD521E8A604A68C0B2531C4B6010709F
:103C400010BD70B5FFF7CEFB0025ED4300280AD06C
:103C5000016889698847040009D5FCF727FB6142A0
:103C60000160284670BDFCF721FB0921F8E7002020
:103C700070BD00000349884201D100207047002038
:103C8000C043704700380140004870472850000882
:103C900010B50A004369816900D001221846FFF778
:103CA000A4F810BD70B5044601820E46481C16D01B
:103CB0003006000FFFF74AF90546304600F024F8B9
:103CC00065612060207C06490007800E0858A061CD
:103CD00028461030606008302835E560A06070BD6F
:103CE0006050000810B5002200F001F810BD10B5BA
:103CF00013460022FFF7AEFD10BD10B5024610209E
:103D0000105E00F0E1FB10BD10B50446401C08D069
:103D10000021204600F03CFB2107090F01208840CC
:103D200010BD762201A10BA000F000FA2E2E5C6DD2
:103D30006265645C746172676574735C5441524778
:103D400045545F53544D5C6770696F5F6170692EB5
:103D50006300000070696E20213D202850696E4E7E
:103D6000616D65294E4300000268002901D080681A
:103D700000E0C068026070470268002901D08068D6
:103D800000E0C0680260704710B5FFF734FE72B6FD
:103D900003494A78002A02D108700120487010BDFA
:103DA0000000002010B5FFF726FE002804D03622C0
:103DB00005A10FA000F0BAF9144800214170007865
:103DC000002800D062B610BD2E2E5C6D6265645C6A
:103DD00068616C5C6D6265645F637269746963617C
:103DE0006C5F73656374696F6E5F6170692E6300E9
:103DF000216172655F696E74657272757074735F4C
:103E0000656E61626C656428290000000000002076
:103E100070B58EB0129E0D46040000D4124C3421B1
:103E20006846FCF7C8FE019602950094FFF754FE21
:103E30000E4C6068401C6060012804D13422694641
:103E40000B48FCF709FA0A48342269463430FCF77B
:103E500003FAA168002902D0054834308847FFF7EB
:103E600079FE00200EB070BD0101FF80140000201B
:103E70007001002038B525488269C1140A43826167
:103E800082690A400092C2680A43C260C2688A43DB
:103E9000C260FFF7A1F81F4C1D4820601E48E0607B
:103EA0001F481E490068FCF7CDFE00252561A5606E
:103EB0006561401EA56160602046FEF7E3FE0021BB
:103EC0002046FEF707FF17490D20FEF7A9FF0D203A
:103ED000FFF7D2FB00210D20FFF7DAFB12490E207D
:103EE000FEF79EFF0E20FFF7C7FB01210E20FFF714
:103EF000CFFB2046FEF7E1FE2068C1680222914315
:103F0000C1600A4805600A48056038BD00100240DB
:103F1000002C014044030020FFFF000040420F003E
:103F200078000020E14B0008B54B00086800002035
:103F30006C00002010B50146406870225043134ABF
:103F400080180A6802608A684260CA6882600A69EA
:103F5000C2604A690261CA69826100220346403335
:103F6000C2615A821A825A831A831A228A5E521CAA
:103F700008D018228A5E521C06D00C214161FEF73F
:103F8000FDFE10BD0821F9E70421F7E784030020B6
:103F9000F0B50446406887B02030017E00296DD11D
:103FA000807E00286AD12068006880472068C06948
:103FB000804705680146002D07D000261F200122FA
:103FC0008240AA4203D1064605E02D2209E0401EA8
:103FD0000006000EF3D148680190001F1D2804D38D
:103FE0003B2227A12EA000F0A1F807228240104614
:103FF0002C490492FFF704FB00277B1E6A1E7B41BD
:10400000801859412A463B46FCF7E4F90391029097
:104010006068076060684760206840688047616842
:104020000862626800209062D0626068002185604A
:1040300060682030C6760120019AFCF792F9616829
:10404000401EC8606068049A026162680399029821
:10405000D161906162680020106350636068203015
:1040600047766068203087766168012020310876C5
:10407000204600F0BDFD204600F0E6FB07B0F0BD95
:104080002E2E5C6D6265645C68616C5C6D6265645B
:104090005F7469636B65725F6170692E6300000015
:1040A0003000000040420F0010B5FFF79BF90028D8
:1040B0000AD00168C9698847040004D5FCF7F6F8FE
:1040C00061420160002010BDFCF7F0F80921F8E71B
:1040D00070B514460E46FFF785F90025ED4300281C
:1040E0000CD0016822460B6931469847040004D57C
:1040F000FCF7DCF861420160284670BDFCF7D6F899
:104100000921F8E7074C01210748FFF7B4F92046D9
:1041100000F050FE00210448FFF7ADF9204600F002
:1041200049FEF0E7CDCC4C3E8C00002008B5164689
:104130000C460546FFF7D0FC2346002229460248DC
:10414000009600F031F800004401FF8088B0FFF7CE
:10415000C3FC04216846FFF7C5FDFF259135002407
:1041600001216846FFF708FE962000F02FFE00218F
:104170006846FFF701FE962000F028FE641C042C20
:10418000EEDB002401216846FFF7F6FD284600F02B
:104190001DFE00216846FFF7EFFD284600F016FEE1
:1041A000641C042CEEDBDAE7FFB581B01C46154633
:1041B0000F460B480A9EFFF77FFC00280DD1099897
:1041C00000903346224629460198FFF721FE3346E8
:1041D00022463946034800F051FA00F039F8000051
:1041E00014000020A40100200FB410B503A9029808
:1041F00000F014F810BC08BC04B0184710B5044611
:10420000FFF76AFC2046FCF755FC024621460220D7
:1042100000F0F2FDFFF79EFC10BD000010B5A2B04B
:104220000B46024684216846FCF75CF90446842864
:1042300005D31FA8052205490330FCF75DFC002CBF
:1042400002DD6846FFF7DAFF22B010BD30500008EB
:104250000B48FFF731FC002805D0FFF73DFCBFF30A
:104260004F8F20BFFDE7FFF785FC002806D1FFF741
:104270001DFC002802D00120FFF7BEFCFFF766FFFF
:10428000150000207047000010B58CB0FEF7A4FEAA
:10429000FEF756FAFEF7E0FDFEF79EFE3021684677
:1042A000FCF789FC0B48006A01248005800F002878
:1042B0000CD0082000900020089007946846FEF774
:1042C00037FB002802D004A0FFF768FC0A4804600E
:1042D0000CB010BD00100240496E6974203A206392
:1042E000616E6E6F7420696E697469616C697A655C
:1042F000204C53490A000000700000200FB4F0B5B4
:1043000087B00646FFF748F804002DD40025314653
:1043100004A80195FFF736F904A8FFF71FF9122644
:10432000F643002809D004A8FFF71DF9002804A8C7
:1043300006D0FFF708F901901CE02146304611E055
:10434000FFF7ECF80028F8D0064604A8FFF717F9A5
:104350000246306801A9876830460D9BB84700289F
:1043600007D02146FFF708F807B0F0BC08BC04B03E
:1043700018470198044AA1005050044805551030D0
:1043800005552046F0E7000028000020F00200203C
:10439000F0B50E4685B0411C29D03105090F0391B7
:1043A00001060007000F0A0F0290800036490190B5
:1043B000095877077F0F002510460091FEF7C6FDCC
:1043C0000099826804464943480008188243024322
:1043D0008446A260002F3AD0012F0CD0022F0CD0BF
:1043E000032F33D0672229A131A0FFF79FFE3E2281
:1043F00026A130A0F9E7012529E0029B019A9E46FB
:10440000214B02259A5873460398072B0ED9130A9D
:104410001A465A435A435A4386461301981A636A06
:104420008343704642431343636210E00190236A62
:10443000104650435043504386460201101A8343AE
:104440000198724642431343236200E0032520682B
:1044500062469043694308432060012F01D0022F38
:1044600009D1F010C00701D0012200E0002220464F
:104470000099FEF7C4FCB006820F2046009900F0B8
:104480004BFB05B0F0BD0000605000082E2E5C6DA7
:104490006265645C746172676574735C5441524711
:1044A00045545F53544D5C70696E6D61702E6300AE
:1044B0003000000070696E20213D202850696E4E4A
:1044C000616D65294E43000070B50C46411C16D045
:1044D000010600071E4A800E090F15580846FEF710
:1044E00035FD06460068294669434A008A1810408F
:1044F000FCF7A8FB012807D0022805D015E0882288
:1045000014A11DA0FFF712FE042C09D0032C07D024
:10451000052C05D0002229463046FEF770FC06E047
:10452000012229463046FEF76AFC032C0BD0012CF1
:1045300009D0052C09D0022C07D00022294630468C
:1045400000F0EAFA70BD0122F8E70222F6E7000067
:10455000605000082E2E5C6D6265645C7461726749
:104560006574735C5441524745545F53544D5C70BD
:10457000696E6D61702E630070696E20213D202888
:1045800050696E4E616D65294E43000004E0824221
:1045900001D1486870470C3100228A5E531CF6D165
:1045A000581E704708B588420CD0421C09D0491CDF
:1045B00008D000210B460246009103A10748FFF7EF
:1045C000F3FD084608BD000070696E6D6170206DD6
:1045D00069732D6D61746368000000003001018013
:1045E00008B50022D243431C0AD0FFF7CFFF411C7D
:1045F00007D10B460246009102A10A48FFF7D4FDFD
:10460000104608BD70696E6D6170206E6F74206613
:104610006F756E6420666F72207065726970686570
:1046200072616C003001018038B50446401C0AD02C
:104630000BE0A04208D189682046FFF7A9FE0021BF
:104640002046FFF741FF38BD0C310020085E421CB8
:10465000EFD1002003460090224602A10648FFF752
:10466000A3FD0000636F756C64206E6F7420706929
:104670006E6F75740000000030010180FFB50F46B9
:1046800001680446480FC04381B01646800716D023
:104690008DB20802030E2A462B48FFF7A5FDFF2125
:1046A0003631681A8D4223D00BDCFF3D323D11D0EC
:1046B000012D12D0022D15D0032D28D115E04D4229
:1046C000E7E701281AD0022815D0032819D00F28AF
:1046D0001DD119E01DA0A16801E022A0A168FFF78B
:1046E00083FD14E023A0A168F9E726A0A168F6E7FE
:1046F00029A0A168F3E72DA0A168F0E730A0A16888
:10470000EDE733A0A168EAE737A0FFF76DFD384673
:10471000FFF774FD39A06168FFF766FD002E09D030
:104720003AA0FFF76BFD3046FFF768FD39A004990A
:10473000FFF75AFD38A0A168FFF756FD3BA0FFF731
:1047400053FD05B0F0BD0000985200084B65726E35
:10475000656C204572726F723A20307825582C2093
:10476000000000005468726561643A203078255872
:104770002C2000004D757465783A20307825582C2F
:104780002000000053656D6170686F72653A2030DB
:104790007825582C200000004D656D6F7279506FA0
:1047A0006F6C3A20307825582C2000004576656ED5
:1047B00074466C6167733A20307825582C200000CD
:1047C00054696D65723A20307825582C200000001D
:1047D0004D65737361676551756575653A2030780D
:1047E00025582C2000000000417373657274696FB6
:1047F0006E206661696C65643A2000000A4C6F6344
:104800006174696F6E3A2030782558000A46696CE9
:10481000653A20002B2564000A4572726F7220569B
:10482000616C75653A203078255800000A2D2D20DE
:104830004D6265644F53204572726F7220496E66F7
:104840006F202D2D0A00000070B5446805462046F3
:104850002030817E00292DD1407E00282AD1284693
:1048600000F0C6F968684368002B24D0016B0CCBBC
:10487000406B891A98411AD22846FFF7E1F806469C
:10488000206AB04205D1FF2209320FA116A0FFF71E
:104890004DFC286801693046884728684068804791
:1048A00001463246206AFFF797F8002802D02868B0
:1048B0004069804770BD2169206A4018E16808405E
:1048C00029680969884770BD2E2E5C6D6265645C3D
:1048D00068616C5C6D6265645F7469636B65725F6F
:1048E0006170692E630000006D617463685F7469B4
:1048F000636B20213D2071756575652D3E7469637C
:104900006B5F6C6173745F726561640010B50C4617
:104910008160FFF70FFB002803D0214601A0FFF7BD
:104920002FF910BD43616E6E6F7420696E697469F2
:10493000616C697A6520554152542077697468200A
:104940006261756420726174652025750A0000003B
:10495000F8B50E4604461546002734493046FFF7A1
:104960003FFE009032492846FFF73AFE0146009884
:10497000FFF718FE2060401C0ED0022E10D0032D31
:104980000ED02A490220FFF72BFE014600988142F3
:1049900007D128A0FFF702F93D2234A13DA016E07F
:1049A000012743492068884208D142488269012191
:1049B00089030A4382618069084000902068FFF7FC
:1049C00059F96060002804DAA42228A13AA0FFF770
:1049D000ADFB16493046FFF727FE15492846FFF77D
:1049E00023FE701C03D001213046FFF76DFD681CCB
:1049F00003D001212846FFF767FD4B20C001A060CE
:104A00000020E06020616061E061268320466583CC
:104A1000FFF790FA002F07D02C49012008602422CC
:104A200021462B48FBF718FCF8BD0000C0500008D9
:104A3000E45000084572726F723A206E65772073F9
:104A4000657269616C206F626A65637420697320A6
:104A50007573696E672073616D65205541525420EE
:104A6000617320535444494F000000002E2E5C6DAA
:104A70006265645C746172676574735C544152472B
:104A800045545F53544D5C73657269616C5F61702E
:104A9000692E63006F626A5F732D3E7561727420C8
:104AA000213D2028554152544E616D65294E4300E9
:104AB00000380140001002406F626A5F732D3E694A
:104AC0006E646578203E3D203000000074000020B8
:104AD0002003002070B504460D464068702148430D
:104AE00005494618204600F009F80028FAD0316838
:104AF000E8B2088570BD0000840300204068702182
:104B00004843044940180068C069C0430006C01704
:104B1000401C70478403002010B5012A02D0022AED
:104B200000D00022FEF771F910BD70B50446FEF703
:104B3000D3FF2068C068804760682030817E0029EC
:104B400002D0FFF707F870BD012141766068406828
:104B5000002814D0204600F04BF8616848680A6BC2
:104B600060C808384B6B521BB34108D3C2684A6017
:104B7000616809680029E9D080688847E6E76068CD
:104B80000021203041762046FFF75EFED9E710B5C0
:104B900000F001F810BD10B50446FFF7F9F9FEF773
:104BA0009BFF204600F024F8FEF7D4FF6168086BF5
:104BB000496B10BD10B50949074808600169C94330
:104BC000890708D4C168C943890704D40221C943AD
:104BD000016100F0CDF810BD002C0140440300201D
:104BE0000249014808607047002C0140440300203E
:104BF000F0B5456806462C462034A07E8BB00028D0
:104C000071D130684068804702467068006A9042FF
:104C100069D0286AE968101A2A620840AA68334BEA
:104C2000002109929A4202D10446019154E0E27EA9
:104C30000292002A2D4A25D00023FBF7B3FB0591F1
:104C40000490029AFBF79DFB01910446AF6AEE6A5D
:104C5000029AFBF786FB049A059B101A8B413818C1
:104C60005E41EE62A862099A37460021821A8F419E
:104C700032D3019A0023641C5A410192099A801A86
:104C80008E4127E00023FBF78DFB04910290002367
:104C9000099AFBF79FFB019104460B46AF6AEE6A47
:104CA000002122460998FBF77DFB029B049A181A03
:104CB0008A4138185641EE62A862099900223346AB
:104CC000411A934108D30199641C514101910999FA
:104CD000401A9641EE62A8622A6B686B019912191C
:104CE00048412A6368630BB0F0BD000040420F00EA
:104CF000024902200968C04308617047440300204C
:104D000003480068C16802229143C16070470000F7
:104D100044030020074802210268C9431161016869
:104D20004B69022213434B610068C1681143C160A3
:104D3000704700004403002010B500210248FDF731
:104D4000EBFFFFF7DDFF10BD440300200048704774
:104D5000A050000810B505480068C16802229143C0
:104D6000C16000210148FDF7B5FF10BD44030020DC
:104D700003480168002901D0024808477047000035
:104D800004000020285000080148406A70470000D5
:104D9000002C014006490A68506302200A68C0439B
:104DA00010610868C16802221143C16070470000A9
:104DB0004403002010B5044900F0BEF8FCF713F8D6
:104DC00000F00BF810BD0000002474497D2110B5DF
:104DD000C900484300F001F810BD70B50546FEF764
:104DE00053FF0646FFF7D3FE04463046FFF7CFFEDB
:104DF000001BA842F9D370BD70B514460E46FEF7ED
:104E0000F1FA0025ED4300280CD001682246CB685A
:104E100031469847040004D5FBF748FA6142016027
:104E2000284670BDFBF742FA0921F8E710B50029C2
:104E30000AD00878002807D005487844FBF7BEFE62
:104E4000002801D0002010BD0248784410BD0000A9
:104E5000D2040000CA04000010B500290AD0087866
:104E6000002807D005487844FBF7A8FE002801D0A9
:104E7000002010BD0248784410BD0000C2040000AC
:104E8000BA04000010B50446002020602821201D2F
:104E9000FBF791FE201DFEF7F8FA001F10BD10B5BC
:104EA000183000F029F8183810BD000010B504467D
:104EB00002232C220249FBF785FF204610BD00008B
:104EC0009F4E00080268084610477047002801D02E
:104ED00009680160704700000022002905D0426087
:104EE000826001600349C160704702604260826075
:104EF000C26070475852000810B50446C0680028C8
:104F000002D0816820468847204610BD10B5014672
:104F100002680831002A01D10A46016010468A421F
:104F200004D0682202490348FFF700F910BD0000D1
:104F3000785200086452000870B5420064414B008A
:104F40005C41120E39D01B0E38D0FF2A3CD0FF2B0B
:104F50003AD040024902400A490A060045184E4329
:104F6000000A090AD2184843ED017F3A0104731A76
:104F70004019190C4318990F04D001215B08490707
:104F80005B1A521CD80904D3401CF50301D19D06BD
:104F900007D0FF2A08D2D50506D0E40720434019E0
:104FA00070BD0125A843F4E7002A01DCE00770BDCD
:104FB0002402FF202043C00570BD1B0EFF2A03D032
:104FC000FF2B01D0E00770BDFF2645003606B54235
:104FD00006D84D00B54203D8D218FF2A00D0E7E723
:104FE000004870BD0000C07F03B402487844844686
:104FF00003BC6047B7C9FFFF03B402487844844646
:1050000003BC604721CCFFFF554D0008894D0008C7
:10501000014D0008F14C0008954D0008154D0008A1
:10502000394D00084D4D00080850000820010020AF
:105030002E2E2E0A000000002F737464696E002F5C
:105040007374646F7574002F7374646572720000FA
:1050500040420F002000000040420F0020000000EE
:105060000100000002000000040000000800000031
:105070001000000020000000400000008000000040
:105080000001000000020000000400000008000011
:105090000010000000200000004000000080000020
:1050A00040420F001000000000000000000000005F
:1050B00001020304060708090000000001020304BE
:1050C0000900000000380140120100001600000035
:1050D0000038014012000000FFFF0000FFFFFFFF4B
:1050E000000000000A00000000380140120100002A
:1050F000170000000038014012000000FFFF000010
:10510000FFFFFFFF00000000303132333435363707
:1051100038394142434445464030580030313233FB
:1051200034353637383961626364656640307800FB
:105130000400000800000000000000020001000060
:105140001000000000000000000000003031323389
:10515000343536373839616263646566787000309B
:105160003132333435363738394142434445465875
:105170005000000002400000000000A000000000FD
:1051800005400000000000C8000000000C400000C6
:105190000000409C00000000194000000020BCBE40
:1051A0000000000034400000BFC91B8E0000000456
:1051B000B5400000504BCFD06607E2CF01000000A1
:1051C0006C4100003E8251AADFEEA73401000000CE
:1051D000D9420000DCB5A0E23A301F97FFFFFFFF85
:1051E000B4450000FD25A0C8E9A3C14FFFFFFFFFA4
:1051F000FF3F00000000008000000000FF3F0000B3
:10520000000000800000000000000000000000001E
:105210007534000800000000000000001D34000884
:105220000D34000819340008873400083D340008A4
:10523000000000000000000013340008000000001F
:10524000000000000000000000000000000000005E
:105250000000000000000000C54E0008CD4E000810
:10526000CB4E00085F707472203D3D202854202AE8
:1052700029265F64617461002E2E5C6D6265645C3A
:10528000706C6174666F726D2F53696E676C6574B4
:105290006F6E5074722E68000A0A2B2B204D6265C7
:1052A000644F53204572726F7220496E666F202BD7
:1052B0002B0A4572726F72205374617475733A20B1
:1052C0003078255820436F64653A202564204D6F5F
:1052D00064756C653A2025640A4572726F72204DC0
:1052E0006573736167653A20000000004054000850
:1052F000000000208C000000F4000008CC540008DE
:105300008C000020F0040000100100081C000000C8
:1053100043000000F8FFFFFF0C0000000E0000003B
:105320000F0000002E0000001001000043000000EC
:10533000F8FFFFFF004040404040404040404141B6
:10534000414141404040404040404040404040405A
:1053500040404040400502020202020202020202F4
:1053600002020202022020202020202020202002F1
:105370000202020202029090909090901010101081
:10538000101010101010101010101010101010101D
:1053900002020202020288888888888808080808B1
:1053A000080808080808080808080808080808087D
:1053B00002020202400000000000000000000000A5
:1053C00000000000000000000000000000000000DD
:1053D00000000000000000000000000000000000CD
:1053E00000000000000000000000000000000000BD
:1053F00000000000000000000000000000000000AD
:10540000000000000000000000000000000000009C
:10541000000000000000000000000000000000008C
:10542000000000000000000000000000000000007C
:105430000000000000000000F9E3FFFFC1E3FFFFF0
:10544000000000002B4B00080000000000000000DE
:10545000000000000000000000000000000000004C
:105460000000000000000000FFFFFFFFFFFFFFFF44
:10547000FFFFFFFF00000000000000000000000030
:10548000000000000000000000000000000000001C
:10549000000000000000000000000000000000000C
:1054A00000000000000000000000000000000000FC
:1054B000000000000000000000127A000000000060
:0C54C000000000000000000000000000E0
:04000005080000B13E
:00000001FF
